:100000000C9464000C94400B0C94190B0C948C0011
:100010000C948C000C943A0D0C948C000C94670B8F
:100020000C948C000C948C000C948C000C948C0020
:100030000C948C000C948C000C948C000C948C0010
:100040000C94CF0A0C948C000C94E90B0C94C30B09
:100050000C948C000C948C000C948C000C948C00F0
:100060000C941B0C0C948C00000000002400270052
:100070002A000000000023002600290000000008DC
:10008000000201000003040700000000000000005F
:10009000010204081020408001020408102001021F
:1000A0000408102000000000250028002B00040494
:1000B0000404040404040202020202020303030310
:1000C000030302005F0DCC1511241FBECFEFD8E053
:1000D000DEBFCDBF24E0AEECB2E001C01D92A23C79
:1000E000B207E1F712E0A0E0B1E0EEE1F2E302C016
:1000F00005900D92AE3CB107D9F710E0C3E6D0E011
:1001000004C02197FE010E94E716C236D107C9F745
:100110000E94D00D0C9402190C94000008950895CB
:10012000833081F028F4813099F08230A9F008956D
:100130008730A9F08830C9F08430B1F48091800014
:100140008F7D03C0809180008F7780938000089519
:1001500084B58F7784BD089584B58F7DFBCF809162
:10016000B0008F778093B00008958091B0008F7DAC
:10017000F9CFCF93DF93282F30E0F901E458FF4FF8
:100180008491F901E057FF4FD491F901E255FF4FF7
:10019000C491CC23A1F081110E949000EC2FF0E0DB
:1001A000EE0FFF1FEE58FF4FA591B491EC91ED2398
:1001B00081E090E009F480E0DF91CF91089580E044
:1001C00090E0FACF1F93CF93DF93282F30E0F9010F
:1001D000E458FF4F8491F901E057FF4FD491F901A2
:1001E000E255FF4FC491CC23A9F0162F81110E9434
:1001F0009000EC2FF0E0EE0FFF1FEC55FF4FA591A4
:10020000B4918FB7F894EC91111108C0D095DE230A
:10021000DC938FBFDF91CF911F910895DE2BF8CF34
:10022000CF93DF9390E0FC01E057FF4F249182557C
:100230009F4FFC0184918823D1F090E0880F991F93
:10024000FC01E859FF4FA591B491FC01EC55FF4F1B
:10025000C591D491623071F49FB7F8943C91822F8C
:10026000809583238C93E8812E2B28839FBFDF9179
:10027000CF9108958FB7F894EC912E2B2C938FBFCC
:10028000F6CFCF92DF92EF92FF92CF936C018091E5
:1002900004018B3049F08F3F09F444C0CF91FF90A7
:1002A000EF90DF90CF900895E2ECF0E0C491C7FDAD
:1002B000F5CF61E08BE00E941001F12CE12CCC2302
:1002C000D9F0960150E040E0C23009F09AC07A01BE
:1002D00060E970ED83E090E00E94A616BA01A901E2
:1002E000415051096109710993E04F3F5105610582
:1002F000710509F00CF4C1C068E478EE81E090E08B
:10030000A70196010E94A616BA01A9014150510900
:100310006109710994E0C111B0C085B5887F83601F
:1003200085BDB7C08BE080930401E2ECF0E0C4919E
:10033000CF3F09F4B3CFC13021F150F0C23009F4FE
:100340003EC0C7FDABCF61E08BE00E941001B9CF8A
:1003500014BC15BC84B5826084BD85B5816085BD43
:10036000E9EBF0E0E491F0E0EE0FFF1FEC55FF4FFA
:1003700085919491EBE9F0E0E491E093D203C0E041
:1003800098CF109280001092810080918100886047
:100390008093810080918100816080938100E9EBEE
:1003A000F0E0E491F0E0EE0FFF1FEC55FF4F859178
:1003B0009491EBE9F0E0E491E093D1037ACF1092CD
:1003C000B0001092B1008091B00082608093B000C4
:1003D0008091B10081608093B100E9EBF0E0E4919D
:1003E000F0E0EE0FFF1FEC55FF4F85919491909335
:1003F000D0038093CF03EBE9F0E0E491E093CE03E8
:1004000058CF60E072E18AE790E00E94A616BA0138
:10041000A9014150510961097109C130A1F58091CB
:100420008100887F81608093810050938900409390
:1004300088008FEF9FEFDC018093D7039093D80360
:10044000A093D903B093DA0380916F008260809308
:100450006F0024CF4093B3008FEF9FEFDC018093B8
:10046000D3039093D403A093D503B093D603809184
:10047000700082608093700011CF8091B100887FFE
:10048000892B8093B100C13081F2C23019F3C111C0
:1004900005CF47BD8FEF9FEFDC018093DB03909387
:1004A000DC03A093DD03B093DE0380916E008260D5
:1004B00080936E00F3CE3FB7F8948091C203909181
:1004C000C303A091C403B091C50326B5A89B05C082
:1004D0002F3F19F00196A11DB11D3FBFBA2FA92FC3
:1004E000982F8827BC01CD01620F711D811D911DC0
:1004F00042E0660F771F881F991F4A95D1F708952C
:100500008F929F92AF92BF92CF92DF92EF92FF9223
:100510004B015C010E945B026B017C010E945B024B
:100520006C197D098E099F09683E7340810591050C
:10053000A8F321E0821A9108A108B10888EEC80E3C
:1005400083E0D81EE11CF11C81149104A104B104C4
:1005500029F7FF90EF90DF90CF90BF90AF909F90E2
:100560008F9008952FB7F8946091BE037091BF03E8
:100570008091C0039091C1032FBF089508950895FD
:100580009091040189130BC0E2ECF0E0E4919FEF3D
:1005900090930401E13049F028F0E23061F060E02E
:1005A0000C94E20010926E00FACF90916F009D7F44
:1005B00090936F00F4CF909170009D7F90937000A6
:1005C00091E09093B0009091B100987F94609093E7
:1005D000B1001092B300E3CFDB0114964D915C9112
:1005E00015976D917C91DC01ED91FC910280F38176
:1005F000E02D0994AF92BF92CF92DF92EF92FF92DB
:100600000F931F93CF93DF936C017B018B01040F3A
:10061000151FEB015E01AE18BF08C017D10759F0D6
:100620006991D601ED91FC910190F081E02DC60118
:100630000995892B79F7C501DF91CF911F910F9112
:10064000FF90EF90DF90CF90BF90AF900895FC01A6
:10065000538D448D252F30E0842F90E0821B930B27
:10066000541710F0CF96089501970895FC01918DCD
:10067000828D981761F0A28DAE0FBF2FB11D5D96D0
:100680008C91928D9F5F9F73928F90E008958FEF72
:100690009FEF08950F931F930E94B2026093E703A8
:1006A0007093E8038093E9039093EA038FED93E05E
:1006B0000E94360397FF1DC00E94B2020091E7031B
:1006C0001091E8032091E9033091EA03601B710B5C
:1006D000820B930B0091E3031091E4032091E50357
:1006E0003091E6036017710782079307F8F28FEFE6
:1006F0009FEF1F910F910895FC01918D828D9817A6
:1007000031F0828DE80FF11D858D90E008958FEF17
:100710009FEF0895FC01918D228D892F90E0805CE0
:100720009F4F821B91098F73992708958FED93E056
:100730000E948A0321E0892B09F420E0822F08958A
:1007400080E090E0892B29F00E94960381110C949F
:1007500000000895FC01A48DA80FB92FB11DA35A64
:10076000BF4F2C91848D90E001968F739927848FD1
:10077000A689B7892C93A089B1898C9183708064F4
:100780008C93938D848D981306C00288F389E02D95
:1007900080818F7D80830895EF92FF920F931F9346
:1007A000CF93DF93EC0181E0888F9B8D8C8D981324
:1007B0001AC0E889F989808185FF15C09FB7F89430
:1007C000EE89FF896083E889F9898081837080647C
:1007D00080839FBF81E090E0DF91CF911F910F91C7
:1007E000FF90EF900895F62E0B8D10E00F5F1F4FD6
:1007F0000F731127E02E8C8D8E110CC00FB607FCE5
:10080000FACFE889F989808185FFF5CFCE010E9472
:10081000AA03F1CFEB8DEC0FFD2FF11DE35AFF4F33
:10082000F0829FB7F8940B8FEA89FB898081806200
:10083000CFCFCF93DF93EC01888D8823B9F0AA89BD
:10084000BB89E889F9898C9185FD03C0808186FD8B
:100850000DC00FB607FCF7CF8C9185FFF2CF8081DA
:1008600085FFEDCFCE010E94AA03E9CFDF91CF91A2
:10087000089520913603260F3327331F2132310587
:10088000ECF420915A03FC0190E080E0243069F000
:1008900082E00895A09136032191AC014A5E5C4F3D
:1008A000A40FB52FB11D2C930196861798F3809154
:1008B0003603680F6093360380E0089581E0089561
:1008C00010925A0381E080935C0310925B0361E015
:1008D00082E10E94E20061E083E10E94E200E9EB34
:1008E000F0E080818E7F808380818D7F808388E4AB
:1008F0008093B80085E48093BC000895CF93DF9384
:1009000091E0909315038823B9F0C091B800D0917D
:10091000BA008091BC008A7B8093BC0060E082E1D9
:100920000E94E20060E083E10E94E2000E94600415
:10093000D093BA00C093B800DF91CF910895089585
:10094000E091CD038091CC03E81730F4F0E0E05162
:10095000FD4F808190E008958FEF9FEF0895909173
:10096000CD038091CC032FEF3FEF981748F4E92F88
:10097000F0E0E051FD4F208130E09F5F9093CD0388
:10098000C90108958091CC039091CD03891B990BE7
:100990000895CF92DF92EF92FF920F931F93CF9320
:1009A000DF937C01CB018A012091EF02222389F0A1
:1009B000EB016B01C40ED51ECC15DD0569F0699104
:1009C000D701ED91FC910190F081E02DC7010995CF
:1009D000F3CF642F0E943904C801DF91CF911F919A
:1009E0000F91FF90EF90DF90CF900895CF93DF931A
:1009F0001F92CDB7DEB769832091EF022223F9F071
:100A00002091CA03203258F021E030E0FC0133830A
:100A1000228390E080E00F90DF91CF910895809144
:100A2000CB03E82FF0E0E153FD4F998190838F5F76
:100A30008093CB038093CA0381E090E0ECCF61E028
:100A4000CE0101960E943904F7CFCF92DF92EF9248
:100A5000FF920F931F93CF93DF93FC01C48121E09A
:100A60002093EF02C093CE021092CB031092CA03E0
:100A70008385682B8CE794E00E94F604D091CA032A
:100A8000D13208F092C00E945B026B017C01809120
:100A90005A03811165C082E080935A0381E08093FC
:100AA0005C038FEF8093590310927E03D0937D03F4
:100AB000AFECB2E0EDE5F3E080E0D81385C0109232
:100AC0007F0380917F03CC0FC82BC0937F0380915D
:100AD0005B03813009F07CC010925B030E945B02D3
:100AE0006B017C0180917F038093BB008091110397
:100AF00090911203A0911303B0911403892B8A2BB8
:100B00008B2B99F00E945B0200911103109112034C
:100B100020911303309114036C197D098E099F09EC
:100B20000617170728073907E0F18091BC0083FDFD
:100B3000D9CF85EC8093BC000E945B026B017C01E5
:100B400080915A03823009F445C0809159038F3F48
:100B500061F180915903803241F18091590325C0A0
:100B60008091110390911203A0911303B09114038B
:100B7000892B8A2B8B2B09F48ACF0E945B02009170
:100B800011031091120320911303309114036C1977
:100B90007D098E099F09061717072807390708F0EE
:100BA00076CF809110030E947E041092CB031092A6
:100BB000CA031092EF02DF91CF911F910F91FF9026
:100BC000EF90DF90CF9008959D9191938F5F75CFB7
:100BD00085EEB0CF8091110390911203A091130381
:100BE000B0911403892B8A2B8B2B09F4A9CF0E9477
:100BF0005B020091110310911203209113033091B5
:100C000014036C197D098E099F0906171707280719
:100C1000390708F095CFC5CF90E080E008950F9395
:100C20001F93CF938C01C62F0E9425056C2F646003
:100C3000C8010E9425056C2F6B7FC8010E94250505
:100C400083EC90E00197F1F7CF911F910F910895F8
:100C50000F931F93CF93DF938C01D62FC42F607F08
:100C6000642B0E940F0680E1D89FB00111246C2BE9
:100C7000C801DF91CF911F910F910C940F06CF9374
:100C8000DF93CDB7DEB728970FB6F894DEBF0FBE5F
:100C9000CDBF98E0EBE0F1E0DE01119601900D92FE
:100CA0009A95E1F79091BA04961710F46FEF690FD7
:100CB000262F30E0220F331F41E050E04C0F5D1F24
:100CC000240F351FF9016081680F606840E082EBF6
:100CD00094E028960FB6F894DEBF0FBECDBFDF912B
:100CE000CF910C94280640E061E082EB94E00E94F2
:100CF00028068BE39FE10197F1F70895CF93DF93E7
:100D00001092CD031092CC031092CB031092CA0321
:100D10000E9460048EE890E09093C7038093C6031E
:100D20008FE890E09093C9038093C8031092B704B2
:100D30008091BC04823018F098E09093B7048093BF
:100D4000BA0462E370E080E090E00E94800260916B
:100D5000BD0482EB94E00E94250568EE73E080E01C
:100D600090E00E94800260E382EB94E00E940F0614
:100D7000CBE4D6E4CE010197F1F760E382EB94E097
:100D80000E940F062197F1F760E382EB94E00E9446
:100D90000F0683E592E00197F1F760E282EB94E0C1
:100DA0000E940F066091B704606240E082EB94E01D
:100DB0000E94280684E08093B80440E06CE082EB57
:100DC00094E00E9428060E94730682E08093B90492
:100DD00040E066E082EB94E00E94280640E062E09A
:100DE00082EB94E00E9428068BE39FE10197F1F7E4
:100DF000DF91CF91089541E00E94280681E090E0C4
:100E000008950F931F93CF93DF938B0198E0899FF1
:100E1000B0011124606440E082EB94E00E94280657
:100E2000E801085F1F4F699182EB94E00E94FB0686
:100E3000C017D107C1F7DF91CF911F910F9108958E
:100E4000FC0101900020E9F73197AF01481B590BD5
:100E5000BC0182EB94E00C94FA0266E082EB94E031
:100E60000E94FB0664E670E080E090E00E94800251
:100E70008BE791E00E94200764E670E080E090E05C
:100E80000E94800266E082EB94E00E94FB0664E62A
:100E900070E080E090E00E94800261E080E00E94CB
:100EA0003F0664E670E080E090E00E9480028EE8F9
:100EB00091E00E94200764E670E080E090E00E94EC
:100EC000800262E080E00E943F0664E670E080E01D
:100ED00090E00E94800283EA91E00E94200764E68D
:100EE00070E080E090E00E94800263E080E00E9479
:100EF0003F0664E670E080E090E00E94800288EBAC
:100F000091E00C9420070E94730660E080E00E944C
:100F10003F0666E082EB94E00E94FB0662E370E02D
:100F200080E090E00E9480028DEC91E00E9420071A
:100F300062E370E080E090E00E94800266E082EB75
:100F400094E00E94FB0662E370E080E090E00E9483
:100F5000800261E080E00E943F068EE891E00E94FE
:100F6000200762E370E080E090E00E94800262E08F
:100F700080E00E943F0680EE91E00E94200762E33D
:100F800070E080E090E00E94800263E080E00E94D8
:100F90003F068EE891E00E94200768EE73E080E053
:100FA00090E00E9480020C942D07CF93DF93BC0148
:100FB0008FED93E00E94EC02EC0142E050E065EF1F
:100FC00071E08FED93E00E94FA028C0F9D1FDF917C
:100FD000CF91089590E080E00E945916811120C0C1
:100FE00088EE93E00E94410168EC70E080E090E0C0
:100FF0000E9480028BE00E94C00261E070E080E00D
:1010000090E00E94800284EF91E00E94410168EC30
:1010100070E080E090E00E9480028BE00C94C002BF
:101020000895CF93DF93DC0114962D913C91159791
:10103000232B79F0FB01CD91DC9160817181CE0190
:101040000E94E818009729F08C1B9D0BDF91CF912F
:1010500008958FEF9FEFFACFFC0124813581232B78
:1010600039F421E0FB018081882349F020E007C0AA
:10107000808191810E94D81821E0892BB9F7822FB5
:101080000895CF93DF93EC01A881B981EB01E8814A
:10109000F9811097F1F03097B1F4EC018C819D81CA
:1010A000892BC9F08C9190E00BC0DB0114968D91D7
:1010B0009C91892B81F0808190E091958195910997
:1010C000DF91CF910895BF01CD01DF91CF910C94B5
:1010D000D818309751F790E080E0F2CFFC014481BE
:1010E0005581FB01248135814217530729F40E9461
:1010F000410821E0892B09F020E081E08227089552
:101100000F931F93CF93DF938C01EB01FC01808140
:1011100091810097E1F06881798161157105A9F0ED
:10112000428153812C813D814217530770F00E9408
:10113000E1188C819D81F801958384831D821C8236
:10114000DF91CF911F910F9108950E948917888197
:101150009981F801918380838A819B819383828323
:101160008C819D8195838483198218821B821A82C7
:10117000E5CFCF93DF93EC0188819981009711F03F
:101180000E948917198218821D821C821B821A8272
:10119000DF91CF910895FC0180819181009711F03A
:1011A0000C94891708950F931F93CF93DF93EC014D
:1011B00088819981009759F02A813B81261737074A
:1011C00030F081E0DF91CF911F910F9108958B0155
:1011D0006F5F7F4F0E941218009759F099838883A0
:1011E0001B830A832C813D81232B59F7FC0110823C
:1011F000E8CF80E0E7CFEF92FF920F931F93CF935A
:10120000DF936115710541F480E0DF91CF911F916B
:101210000F91FF90EF90089541155105B1F07B01BA
:10122000EC010C811D81040F151FB8010E94D30829
:10123000882351F3288139818C819D81B701820FE8
:10124000931F0E94E1181D830C8381E0DECFCF93B2
:10125000DF93EC0144E050E06EE971E00E94FB088E
:10126000811103C0CE010E94B908CE01DF91CF9158
:101270000895CF93DF93EC01FB0144815581608198
:1012800071810E94FB08811103C0CE010E94B90840
:10129000CE01DF91CF910895EF92FF920F931F93AC
:1012A000CF93DF93EC017B018A01BA010E94D3083E
:1012B00081110BC0CE010E94B908CE01DF91CF9100
:1012C0001F910F91FF90EF9008951D830C83B7013C
:1012D000888199810E94E118F0CFFB0101900020E4
:1012E000E9F73197AF01461B570B0C944C090F934C
:1012F0001F93CF93DF93CDB7DEB762970FB6F89405
:10130000DEBF0FBECDBF8C01CB01F8011182108270
:1013100013821282158214824AE0BE016F5F7F4FF2
:101320000E940F16BE016F5F7F4FC8010E946D09BA
:1013300062960FB6F894DEBF0FBECDBFDF91CF919E
:101340001F910F910895CF93DF93EC01FB01861756
:10135000970749F0608171816115710541F0448101
:1013600055810E944C09CE01DF91CF9108950E94D2
:10137000B908F9CFFC011182108213821282158202
:1013800014820C94A309CF93DF93CDB7DEB76E9789
:101390000FB6F894DEBF0FBECDBF82E00E94B90049
:1013A000BC01CE0143960E94770983E00E94B900F8
:1013B000BC01CE010D960E94770984E00E94B9001D
:1013C000BC01CE0101960E947709BE016F5F7F4F7D
:1013D000CE0107960E94BA09BE01635F7F4FCE011E
:1013E00007960E943909BE016D5E7F4F0E94390940
:1013F000BC01CE0149960E94BA09CE0107960E940F
:10140000CB08CE0101960E94CB08CE010D960E941A
:10141000CB08CE0143960E94CB082D8D3E8D809146
:101420008C0490918D042817390741F468E874E022
:10143000CE0149960E944108892B41F08091BC035E
:10144000882321F0CE0149960E94D507BE01675E30
:101450007F4F88E894E00E94A309CE0149960E943C
:10146000CB086E960FB6F894DEBF0FBECDBFDF91EE
:10147000CF910895FC01118210821382128215828D
:101480001482FB0101900020E9F73197AF01461B60
:10149000570B0C944C09AF92BF92CF92DF92EF9210
:1014A000FF920F931F93CF93DF936C015B017A013F
:1014B00089012417350720F48F2D7901042F182F67
:1014C00067EF71E0C6010E943A0AD5011496CD91EA
:1014D000DC91EC16FD06E0F40C171D0708F4E8019A
:1014E000D501ED91FC911197EC0FFD1F1081108239
:1014F0006D917C916E0D7F1DC60161157105A1F086
:101500000E946D09F50180819181C80FD91F188350
:10151000C601DF91CF911F910F91FF90EF90DF9067
:10152000CF90BF90AF9008950E94B908EBCF85EDA2
:101530008093BC008091110390911203A09113033A
:10154000B09114030796A11DB11D23E0B695A79590
:10155000979587952A95D1F72091BC0024FD03C06B
:1015600010925A0308954091110350911203609113
:10157000130370911403452B462B472B69F30097F7
:10158000A105B10541F02AE22A95F1F700C00197C3
:10159000A109B109E1CF809110030C947E041F9240
:1015A0000F920FB60F9211242F933F938F939F9317
:1015B000AF93BF938091BE039091BF03A091C003EE
:1015C000B091C1033091BD0323E0230F2D3758F5AF
:1015D0000196A11DB11D2093BD038093BE0390937E
:1015E000BF03A093C003B093C1038091C203909145
:1015F000C303A091C403B091C5030196A11DB11D01
:101600008093C2039093C303A093C403B093C50314
:10161000BF91AF919F918F913F912F910F900FBEEE
:101620000F901F90189526E8230F0296A11DB11D5B
:10163000D2CF1F920F920FB60F9211242F933F9388
:101640004F935F936F937F938F939F93AF93BF93CA
:10165000EF93FF93E0910201F09103010995FF914F
:10166000EF91BF91AF919F918F917F916F915F911A
:101670004F913F912F910F900FBE0F901F90189593
:101680001F920F920FB60F9211242F933F934F93F7
:101690005F936F937F938F939F93AF93BF93EF93DA
:1016A000FF93E0910001F09101010995FF91EF9105
:1016B000BF91AF919F918F917F916F915F914F916A
:1016C0003F912F910F900FBE0F901F9018951F9272
:1016D0000F920FB60F9211242F933F934F935F9366
:1016E0006F937F938F939F93AF93BF93EF93FF93EA
:1016F0008091D3039091D403A091D503B091D603E8
:10170000892B8A2B8B2BD1F19091CE03E091CF03C3
:10171000F091D0038081892780838091D3039091B9
:10172000D403A091D503B091D603181619061A0652
:101730001B069CF48091D3039091D403A091D50310
:10174000B091D6030197A109B1098093D303909377
:10175000D403A093D503B093D603FF91EF91BF912B
:10176000AF919F918F917F916F915F914F913F9139
:101770002F910F900FBE0F901F901895809104012C
:101780000E94C002EACF1F920F920FB60F9211244F
:101790002F933F934F935F936F937F938F939F9379
:1017A000AF93BF93EF93FF938FED93E00E94AA0353
:1017B000FF91EF91BF91AF919F918F917F916F9129
:1017C0005F914F913F912F910F900FBE0F901F90FF
:1017D00018951F920F920FB60F9211242F938F938B
:1017E0009F93EF93FF93E091EF03F091F0038081DB
:1017F000E091F503F091F60382FD1BC0908180918A
:10180000F8038F5F8F732091F903821741F0E09105
:10181000F803F0E0E152FC4F958F8093F803FF91BD
:10182000EF919F918F912F910F900FBE0F901F906E
:1018300018958081F4CF1F920F920FB60F9211244A
:101840002F933F934F935F936F937F938F939F93C8
:10185000AF93BF93EF93FF938091B900887F803659
:1018600009F44AC0F0F5883209F4A7C018F58031B0
:1018700009F49BC0B8F4882309F4F9C0883009F44E
:1018800094C0FF91EF91BF91AF919F918F917F9104
:101890006F915F914F913F912F910F900FBE0F90DD
:1018A0001F901895883109F488C0803251F78093D1
:1018B000590314C0803409F49DC040F48033B9F357
:1018C0008833F9F68093590385ECB0C0803509F46C
:1018D00085C0883509F496C0883499F60E94970A25
:1018E000D0CF883909F48CC038F5883729F050F406
:1018F000883611F0803729F683E080935A031092DE
:10190000580357C0883809F47BC0803919F08038F3
:1019100009F0B7CF80915803803208F071C0E09190
:10192000580381E08E0F809358038091BB00F0E054
:10193000E85CFC4F80833DC0803B39F0E0F4803AA6
:1019400009F479C0883A09F09CCF84E080935A0367
:101950001092370310923603E091C603F091C7034B
:1019600009958091360381110FC081E08093360381
:101970001092160309C0803C09F4A6CF883C09F4F4
:10198000A3CF883B09F07DCFE091370381E08E0F34
:1019900080933703F0E0EA5EFC4F80818093BB00C8
:1019A000909137038091360329C080917F03809303
:1019B000BB0085EC8093BC0064CF90917E03809146
:1019C0007D03981758F5E0917E0381E08E0F809398
:1019D0007E03F0E0E35AFC4F8081E9CFE0917E0383
:1019E00081E08E0F80937E038091BB00F0E0E35A8C
:1019F000FC4F808390917E0380917D039817C8F2FD
:101A000085E8D8CFE0917E0381E08E0F80937E033E
:101A10008091BB00F0E0E35AFC4F808380915C032F
:101A200081115CCF81E080935B0384EA8093BC00EA
:101A300010925A0326CF85EC8093BC0010925A0373
:101A400080915803803230F4E0915803F0E0E85C74
:101A5000FC4F10826091580370E0E091C803F09150
:101A6000C90388E393E00995109258030ACF1092B6
:101A7000590334CF1F920F920FB60F9211242F9358
:101A80003F934F935F936F937F938F939F93AF9306
:101A9000BF93EF93FF931C9B0E94C309FF91EF91AB
:101AA000BF91AF919F918F917F916F915F914F9176
:101AB0003F912F910F900FBE0F901F901895EFED53
:101AC000F3E01382128288EE93E0A0E0B0E084831A
:101AD0009583A683B7832FE431E03183208325ECFF
:101AE00030E03587248724EC30E03787268720ECE8
:101AF00030E0318B208B21EC30E0338B228B22ECD9
:101B000030E0358B248B26EC30E0378B268B118E22
:101B1000128E138E148EECE7F4E01382128284830B
:101B20009583A683B78381E691E091838083E2EB7E
:101B3000F4E01382128283E791E09183808387E24D
:101B4000848384E1818784E08287138667EF71E074
:101B50008CEA94E00E943A0A67EF71E086EA94E02A
:101B60000E943A0A67EF71E080EA94E00E943A0A24
:101B700067EF71E08AE994E00E943A0A67EF71E04A
:101B800084E994E00E943A0A67EF71E08EE894E0FD
:101B90000E943A0A67EF71E088E894E00C943A0AF0
:101BA000CF93DF93CDB7DEB7E0970FB6F894DEBFE3
:101BB0000FBECDBF789484B5826084BD84B581604A
:101BC00084BD85B5826085BD85B5816085BD809108
:101BD0006E00816080936E00109281008091810080
:101BE0008260809381008091810081608093810078
:101BF000809180008160809380008091B10084603A
:101C00008093B1008091B00081608093B00080919A
:101C10007A00846080937A0080917A008260809359
:101C20007A0080917A00816080937A0080917A00B6
:101C3000806880937A001092C1001092CD031092B8
:101C4000CC031092CB031092CA030E9460048EE86A
:101C500090E09093C7038093C6038FE890E0909341
:101C6000C9038093C8038CE08093B8000E947E066D
:101C70000E947E0688E08093BD0460E082EB94E0E1
:101C80000E94250540E062E082EB94E00E94280675
:101C90008BE39FE10197F1F760E080E00E943F064F
:101CA00088EF91E00E94200761E080E00E943F06FB
:101CB0008DE092E00E94200763E080E00E943F06F2
:101CC00082E292E00E94200790E080E00E94591694
:101CD000811127C084EF91E00E94410168EC70E01F
:101CE00080E090E00E9480028BE00E94C00288EEBB
:101CF00093E00E94410168EC70E080E090E00E9477
:101D000080028BE00E94C00280E293E00E944101C9
:101D100068EC70E080E090E00E9480028BE00E941E
:101D2000C00268EE73E080E090E00E9480020E94B2
:101D30007306E091EF03F091F00382E08083E0917D
:101D4000EB03F091EC031082E091ED03F091EE03D0
:101D500080E180831092F703E091F303F091F403A4
:101D600086E08083E091F103F091F203808180614D
:101D70008083E091F103F091F20380818860808399
:101D8000E091F103F091F203808180688083E0911B
:101D9000F103F091F20380818F7D808363E471E031
:101DA00080E00E9401076BE371E081E00E9401077F
:101DB00063E371E082E00E9401076BE271E083E07F
:101DC0000E94010763E271E084E00E9401076BE179
:101DD00071E085E00E94010763E171E086E00E9406
:101DE000010761E08BE00E94100162E089E00E943F
:101DF000100162E084E00E94100162E083E00E9432
:101E0000100162E082E00E9410018091680084600D
:101E10008093680080916D00806180936D0023EC59
:101E200039E03093010120930001809169008C7F9B
:101E3000816080936900E89A309303012093020146
:101E400080916900837F846080936900E99A0E9491
:101E50002D0790E080E00E945916811120C088E78C
:101E600095E00E94410166E970E080E090E00E9408
:101E700080028BE00E94C00268E270E080E090E0A7
:101E80000E94800288E795E00E94410168E572E0C7
:101E900080E090E00E9480028BE00E94C00240E05F
:101EA000242E40E0342E8091BC03882309F47DC0A9
:101EB0000E94B2020091B8031091B9032091BA03B5
:101EC0003091BB03601B710B820B930B683873411D
:101ED0008105910508F469C08091B703811165C03F
:101EE0000E94730660E080E00E943F0666E082EB9D
:101EF00094E00E94FB0662E370E080E090E00E94C4
:101F000080028DEC91E00E94200762E370E080E0A7
:101F100090E00E94800266E082EB94E00E94FB0663
:101F200062E370E080E090E00E94800261E080E087
:101F30000E943F068EE891E00E94200762E370E075
:101F400080E090E00E94800262E080E00E943F0614
:101F500087E392E00E94200762E370E080E090E077
:101F60000E94800263E080E00E943F068EE891E0DC
:101F70000E94200768EE73E080E090E00E948002FB
:101F80000E942D070E94EA071092BC0367EF71E0E0
:101F90008CEA94E00E946D0967EF71E086EA94E0B4
:101FA0000E946D0981E08093B70367EF71E0CE0175
:101FB0008B960E943A0A67EF71E0CE0185960E94E7
:101FC0003A0A67EF71E0CE014F960E943A0A67EF36
:101FD00071E0CE0149960E943A0A8FED93E00E948B
:101FE0008A03181619060CF0CDC18091BC0381112B
:101FF000C9C10E94B2026093B8037093B903809381
:10200000BA039093BB031092B70381E08093BC03A3
:102010006CE472E0CE010D960E943A0A65E572E02A
:10202000CE0107960E943A0ABE01695F7F4FCE013A
:1020300001960E94BA09BE01635F7F4FCE010196EF
:102040000E9439090E94D507CE0101960E94CB0853
:1020500090E080E00E94591681111AC084EF91E04F
:102060000E94410168EC70E080E090E00E948002F4
:102070008BE00E94C00288EE93E00E94410168EC70
:1020800070E080E090E00E9480028BE00E94C0023D
:102090000E94730661E080E00E943F068FE592E0B7
:1020A0000E94200762E080E00E943F0684E792E001
:1020B0000E94200781E08093A80366E470E080E03E
:1020C00090E00E948002CE0107960E94CB08CE01CC
:1020D0000D960E94CB086CEA74E080EA94E00E94BE
:1020E000A30966EA74E08AE994E00E94A309BE01AC
:1020F0006B5D7F4F84E994E00E94A309BE01615E9D
:102100007F4F8EE894E00E94A309E4E9F3E0A0E8A1
:10211000B3E081918D9388EAC82E83E0D82ECE1645
:10212000DF06B9F7CE0149960E94CB08CE014F9643
:102130000E94CB08CE0185960E94CB08CE018B96DB
:102140000E94CB080E94B2020091B3031091B40325
:102150002091B5033091B6036B017C01C01AD10AFE
:10216000E20AF30A97018601083E13402105310572
:1021700008F4FCC06093B3037093B4038093B50379
:102180009093B6038091B0049091B104459708F400
:1021900073C060E080E00E943F066CEA74E0CE010C
:1021A00001960E94BA09CE0101960E942709BC013E
:1021B000CE0149960E94BA09CE0101960E94CB0831
:1021C0008D8D9E8D0091AA031091AB0398012C5E1A
:1021D0003F4F2817390708F05FC4A801BE01675EAA
:1021E0007F4FCE0101960E944B0ABE016F5F7F4F69
:1021F00082EB94E00E94EC02CE0101960E94CB0893
:102200008091AA039091AB0301969093AB038093C6
:10221000AA032D8D3E8D82179307A8F01092AB0371
:102220001092AA0381E08093A9030E94B202605633
:10223000704F8F4F9F4F6093AC037093AD038093AB
:10224000AE039093AF038091A903882389F00E9485
:10225000B2020091AC031091AD032091AE03309116
:10226000AF03601771078207930710F01092A9035C
:10227000CE0149960E94CB088091AA049091AB04AC
:10228000459708F473C061E080E00E943F0666EA6B
:1022900074E0CE0101960E94BA09CE0101960E9417
:1022A0002709BC01CE0149960E94BA09CE010196C8
:1022B0000E94CB088D8D9E8D0091B1031091B203C9
:1022C00098012C5E3F4F2817390708F025C4A80154
:1022D000BE01675E7F4FCE0101960E944B0ABE0190
:1022E0006F5F7F4F82EB94E00E94EC02CE0101967B
:1022F0000E94CB088091B1039091B2030196909314
:10230000B2038093B1032D8D3E8D82179307A8F001
:102310001092B2031092B10381E08093B0030E9447
:10232000B2026056704F8F4F9F4F6093AC03709313
:10233000AD038093AE039093AF038091B0038823E5
:1023400089F00E94B2020091AC031091AD0320917C
:10235000AE033091AF03601771078207930710F047
:102360001092B003CE0149960E94CB08211431048B
:1023700009F499CD0E949603882309F490CD0E9418
:1023800000008DCD8FED93E00E948A031816190688
:102390000CF0A1CE8091BC03882309F49CCE0E944E
:1023A000B2026093B8037093B9038093BA03909319
:1023B000BB031092B70367EF71E0CE018B960E94CA
:1023C0006D0969E872E08EE894E00E946D0967EF9C
:1023D00071E0CE0101960E943A0A0E944A0397FDDD
:1023E0000CC08F83188641E050E0BE01695F7F4FCB
:1023F000CE0101960E94FB08F0CFBE016F5F7F4FB8
:10240000CE018B960E948008CE0101960E94CB08D7
:1024100061E070E080E090E00E9480026EE972E08E
:10242000CE0101960E943A0ABE016F5F7F4FCE0136
:102430008B960E94110810E0181619060CF040C087
:1024400061EA72E0CE0107960E943A0ABE01695F16
:102450007F4FCE018B960E94110810E018161906C6
:102460005CF564EA72E0CE010D960E943A0ABE0164
:10247000635F7F4FCE018B960E94110810E0181603
:102480001906B4F467EA72E0CE0143960E943A0A54
:10249000BE016D5E7F4FCE018B960E94110811E048
:1024A000181619060CF010E0CE0143960E94CB08D6
:1024B000CE010D960E94CB08CE0107960E94CB0854
:1024C000CE0101960E94CB08112309F404CE80911D
:1024D000A803882351F01092A80367EF71E0CE01A2
:1024E0008B960E946D090E9473066EE972E0CE0120
:1024F00007960E943A0ABE01695F7F4FCE018B9614
:102500000E9411089C0150E040E0BE01655D7F4FD4
:10251000CE0101960E944B0ABE016F5F7F4F8CEA8D
:1025200094E00E948008CE0101960E94CB08CE0163
:1025300007960E94CB0861EA72E0CE0107960E94DE
:102540003A0ABE01695F7F4FCE018B960E94110847
:102550008C016EE972E0CE010D960E943A0ABE012E
:10256000635F7F4FCE018B960E941108AC014E5FD6
:102570005F4F9801BE01655D7F4FCE0101960E94BD
:102580004B0ABE016F5F7F4F86EA94E00E9480088D
:10259000CE0101960E94CB08CE010D960E94CB0879
:1025A000CE0107960E94CB0864EA72E0CE0107963E
:1025B0000E943A0ABE01695F7F4FCE018B960E944E
:1025C00011088C0161EA72E0CE010D960E943A0A70
:1025D000BE01635F7F4FCE018B960E941108AC0154
:1025E0004E5F5F4F9801BE01655D7F4FCE01019642
:1025F0000E944B0ABE016F5F7F4FCE0185960E94FD
:102600008008CE0101960E94CB08CE010D960E9453
:10261000CB08CE0107960E94CB0867EA72E0CE0194
:1026200007960E943A0ABE01695F7F4FCE018B96E2
:102630000E9411088C0164EA72E0CE010D960E949E
:102640003A0ABE01635F7F4FCE018B960E9411084C
:10265000AC014E5F5F4F9801BE01655D7F4FCE01BB
:1026600001960E944B0ABE016F5F7F4FCE014F96CD
:102670000E948008CE0101960E94CB08CE010D96E3
:102680000E94CB08CE0107960E94CB080FA518A97F
:1026900067EA72E0CE0107960E943A0ABE01695FBE
:1026A0007F4FCE018B960E941108AC014E5F5F4FA9
:1026B0009801BE01655D7F4FCE0101960E944B0AD5
:1026C000BE016F5F7F4FCE0149960E948008CE0108
:1026D00001960E94CB08CE0107960E94CB0867EFB7
:1026E00071E0CE0149960E942C0881114EC024E071
:1026F00030E042E050E0BE01675E7F4FCE010196C0
:102700000E944B0A6AEA72E0CE0101960E942C08F0
:10271000182FCE0101960E94CB081123B1F121E0C0
:1027200030E050E040E0BE01675E7F4FCE01019691
:102730000E944B0A6BEA72E0CE0101960E942C08BF
:10274000182FCE0101960E94CB0861E0111119C02B
:1027500021E030E050E040E0BE01675E7F4FCE01F7
:1027600001960E944B0A6DEA72E0CE0101960E942A
:102770002C08182FCE0101960E94CB08112329F0B6
:1027800060E090E080E00E94611660EA74E08CEA0C
:1027900094E00E946E08882361F11092AB031092BE
:1027A000AA0360E080E00E943F068EE891E00E946C
:1027B000200760E080E00E943F068091B004909185
:1027C000B104449708F4C9C024E130E050E040E08F
:1027D0006CEA74E0CE0101960E944B0ABE016F5F65
:1027E0007F4F82EB94E00E94EC02CE0101960E94A2
:1027F000CB086AE974E086EA94E00E946E088823B8
:1028000041F161E080E00E943F068EE891E00E9485
:10281000200761E080E00E943F068091AA04909129
:10282000AB04449708F4A0C024E130E050E040E05D
:1028300066EA74E0CE0101960E944B0ABE016F5F0A
:102840007F4F82EB94E00E94EC02CE0101960E9441
:10285000CB0864E974E0CE0185960E946E08882357
:10286000D1F06FEA72E0CE0185960E942C088111AA
:1028700082C062E00E943F068EE891E00E9420073D
:1028800062E080E00E943F06BE016B5D7F4F82EBFD
:1028900094E00E94EC028BA19CA1059708F0D9C09E
:1028A0008091920490919304069760F110E000E00B
:1028B000F02E63E0802F0E943F060115110509F0FC
:1028C00061C08091940360E0811161E082EB94E04B
:1028D0000E94FB06C8010197429778F4F801EC5674
:1028E000FC4F808163E0811159C08F2D0E943F060B
:1028F00062E082EB94E00E94FB060F5F1F4F043101
:102900001105B1F66EE874E0CE014F960E946E0894
:10291000882309F4E0CBEF8CF8A034E9C32E33E030
:10292000D32E8601812C912C540177247394E114C9
:10293000F104C9F1C7010E94E815A5019401EFEF68
:102940008E1A9E0AAE0ABE0A26173707480759078D
:1029500054F5F80171928F01EACF6CEA74E082EBD2
:1029600094E00E94EC0245CF66EA74E082EB94E0CA
:102970000E94EC026ECF0E94EA070E948307109229
:10298000BC0389CF0331110509F0A4CF8091A703BF
:1029900064E0882309F49ACF65E098CF8F2D0E94D8
:1029A0003F0663E0A6CF04E913E023E1422E512C59
:1029B000612C712C5301420160E070E0CB01E11405
:1029C000F10419F0C7010E94E81501501109F1E066
:1029D0004F1A51086108710886169706A806B906AD
:1029E0001CF0F801148AE6CF90E8E92E93E0F92E66
:1029F00010E000E0F601B1906F01F70181917F01D5
:102A0000B81671F063E00115110581F480E00E94B1
:102A10003F0660E0B11061E082EB94E00E94FB06AB
:102A20000F5F1F4F0431110529F755CB03311105F5
:102A300041F0802F0E943F0662E0BB2069F363E013
:102A4000EBCF83E10E943F0664E0BB2029F365E001
:102A5000E3CF62EC72E0CE014F960E942C088823EF
:102A600039F00E94EA070E9483071092BC0333CB1F
:102A700063E080E00E943F068EE891E00E9420071C
:102A800063E080E00E943F06BE01615E7F4F82EB03
:102A900094E00E94EC021FCB9801281B390B2C5E9E
:102AA0003F4F50E040E06CEA74E0CE010D960E948A
:102AB0004B0A2D8D3E8DA801BE01675E7F4FCE0172
:102AC00001960E944B0ABE016F5F7F4FCE010796B1
:102AD0000E94BA09BE01635F7F4FCE0107960E9434
:102AE0003909BC01CE0143960E94BA09CE0107966E
:102AF0000E94CB08CE0101960E94CB08CE010D9614
:102B00000E94CB08BE016D5E7F4F82EB94E00E9475
:102B1000EC02CE01439672CB9801281B390B2C5E38
:102B20003F4F50E040E066EA74E0CE010D960E940F
:102B30004B0A2D8D3E8DA801BE01675E7F4FCE01F1
:102B400001960E944B0ABE016F5F7F4FCE01079630
:102B50000E94BA09BE01635F7F4FCE0107960E94B3
:102B60003909BC01CE0143960E94BA09CE010796ED
:102B70000E94CB08CE0101960E94CB08CE010D9693
:102B80000E94CB08BE016D5E7F4F82EB94E00E94F5
:102B9000EC02CE014396ACCB88E894E00E94CB08CF
:102BA0008EE894E00E94CB0884E994E00E94CB0870
:102BB0008AE994E00E94CB0880EA94E00E94CB0866
:102BC00086EA94E00E94CB088CEA94E00C94CB084F
:102BD0001F93FC0199278827BC01E89411911032BA
:102BE000E9F3193010F01E30C8F31B3251F01D32DA
:102BF00049F4689406C00E941A16610F711D811D68
:102C0000911D119110531A30B0F33EF490958095B8
:102C1000709561957F4F8F4F9F4F1F910895BB27F0
:102C20004A3031F4992322F4BDE2909581959F4F6B
:102C30000C943016592F482F372F262F660F771FE9
:102C4000881F991F660F771F881F991F620F731FB8
:102C5000841F951F660F771F881F991F0895BB2734
:102C6000FB015527AA27880F991FAA1FA41710F048
:102C7000A41B83955051B9F7A05DAA3308F0A95D54
:102C8000A193009779F7B111B1931192CB010C94F4
:102C90004916DC01FC01672F71917723E1F7329728
:102CA00004C07C916D9370836291AE17BF07C8F327
:102CB0000895F999FECF92BD81BDF89A992780B504
:102CC0000895262FF999FECF1FBA92BD81BD20BD70
:102CD0000FB6F894FA9AF99A0FBE019608952F92BA
:102CE0003F924F925F926F927F928F929F92AF929C
:102CF000BF92CF92DF92EF92FF920F931F93CF93E9
:102D0000DF93CDB7DEB7CA1BDB0B0FB6F894DEBF7F
:102D10000FBECDBF09942A88398848885F846E84A5
:102D20007D848C849B84AA84B984C884DF80EE80EF
:102D3000FD800C811B81AA81B981CE0FD11D0FB6F8
:102D4000F894DEBF0FBECDBFED010895052E97FBB1
:102D50001EF400940E94BD1657FD07D00E94C516B0
:102D600007FC03D04EF40C94BD1650954095309559
:102D700021953F4F4F4F5F4F0895909580957095E7
:102D800061957F4F8F4F9F4F0895A1E21A2EAA1B86
:102D9000BB1BFD010DC0AA1FBB1FEE1FFF1FA2170B
:102DA000B307E407F50720F0A21BB30BE40BF50B08
:102DB000661F771F881F991F1A9469F76095709591
:102DC000809590959B01AC01BD01CF010895EE0F58
:102DD000FF1F0590F491E02D09940F931F93CF935B
:102DE000DF938230910510F482E090E0E091C0041E
:102DF000F091C10430E020E0B0E0A0E0309799F419
:102E00002115310509F44AC0281B390B243031053E
:102E1000D8F58A819B816115710589F1FB01938346
:102E20008283FE0111C040815181028113814817C4
:102E30005907E0F04817590799F4109761F0129676
:102E40000C93129713961C933296CF01DF91CF917A
:102E50001F910F9108950093C0041093C104F4CF03
:102E60002115310551F04217530738F0A901DB0154
:102E70009A01BD01DF01F801C1CFEF01F9CF9093B5
:102E8000C1048093C004CDCFFE01E20FF31F8193F4
:102E900091932250310939832883D7CF2091BE04E2
:102EA0003091BF04232B41F4209107013091080198
:102EB0003093BF042093BE04209105013091060198
:102EC0002115310541F42DB73EB7409109015091CC
:102ED0000A01241B350BE091BE04F091BF04E217F8
:102EE000F307A0F42E1B3F0B2817390778F0AC012D
:102EF0004E5F5F4F2417350748F04E0F5F1F50930A
:102F0000BF044093BE04819391939FCFF0E0E0E033
:102F10009CCFCF93DF930097E9F0FC0132971382A7
:102F20001282A091C004B091C104ED0130E020E014
:102F30001097A1F420813181820F931F2091BE044C
:102F40003091BF042817390709F061C0F093BF041E
:102F5000E093BE04DF91CF910895EA01CE17DF0719
:102F6000E8F54A815B819E0141155105B1F7E90100
:102F7000FB83EA8349915991C40FD51FEC17FD07D4
:102F800061F4808191810296840F951FE9019983F4
:102F90008883828193819B838A83F0E0E0E01296AC
:102FA0008D919C9113970097B9F52D913C911197B4
:102FB000CD010296820F931F2091BE043091BF0471
:102FC0002817390739F6309751F51092C10410923D
:102FD000C004B093BF04A093BE04BCCFD383C2830C
:102FE00040815181840F951FC817D90761F44E5F46
:102FF0005F4F88819981480F591F518340838A818F
:103000009B81938382832115310509F0B0CFF09322
:10301000C104E093C0049ECFFD01DC01C0CF138248
:103020001282D7CFB0E0A0E0E8E1F8E10C9471168D
:103030008C01009751F4CB010E94ED168C01C80160
:10304000CDB7DEB7E0E10C948D16FC01E60FF71F5B
:103050009C0122503109E217F30708F49DC0D90101
:10306000CD91DC911197C617D70798F0C530D105DF
:1030700030F3CE0104978617970708F3C61BD70BCA
:103080002297C193D1936D937C93CF010E948917AE
:10309000D6CF5B01AC1ABD0A4C018C0E9D1EA091CF
:1030A000C004B091C104512C412CF12CE12C10979B
:1030B00031F58091BE049091BF048815990509F0FF
:1030C0005CC04616570608F058C0809105019091E3
:1030D0000601009741F48DB79EB7409109015091C8
:1030E0000A01841B950BE817F90708F055C0F09307
:1030F000BF04E093BE04F90171836083A0CF8D917A
:103100009C91119712966C90129713967C9013973E
:10311000A815B90559F56C0142E0C40ED11CCA14BA
:10312000DB0420F1AC014A195B09DA01129615970C
:1031300080F06282738251834083D9016D937C93C6
:10314000E114F10471F0D7011396FC93EE931297FA
:1031500076CF22968C0F9D1FF90191838083F30116
:10316000EFCFF093C104E093C00469CF481659062D
:1031700008F42C017D01D3019ACFCB010E94ED16FA
:103180007C01009749F0AE01B8010E94CF18C80138
:103190000E948917870153CF10E000E050CFFB0158
:1031A000DC0102C001900D9241505040D8F70895C3
:1031B000FB01DC018D91019080190110D9F3990B6D
:1031C0000895FB01DC0101900D920020E1F70895C4
:1031D000FB0151915523A9F0BF01DC014D91451729
:1031E0004111E1F759F4CD010190002049F04D91D2
:1031F00040154111C9F3FB014111EFCF81E090E08F
:103200000197089510E0C3E6D0E004C0FE010E94DB
:0E321000E7162196C436D107C9F7F894FFCF10
:10321E00BF02BF02FF0000C2048000000040001485
:10322E000054000E1115111515110E001C061A1A58
:10323E00061C00001C060202061C00001F001F1FB9
:10324E00001F00001F000000001F0000070C0B0BEA
:10325E000C070000070C08080C070000000000CC4B
:10326E0003FA02270319048A0336037C03000000C5
:10327E0000F604C9040C069F04C204AF04A00400A7
:10328E00000000FB06FA020C06BE022020436F6E01
:10329E006E6563742057697A617264202000202065
:1032AE002020202020202020202020202020202010
:1032BE0020200020506C656173652074617020635E
:1032CE006F6E6E65637420002020696E204D7573DD
:1032DE006963204C43442050524720200020202078
:1032EE00446973636F6E6E6563746564202020009D
:1032FE00446973706C617920446973636F6E6E6597
:10330E0063746564000D0A002020202046696B75E9
:10331E0053797374656D73202020202000202020A7
:10332E0020204D757369634C4344202020202020BB
:10333E0020004769744875623A202046696B7553C0
:10334E00797374656D730020496E7465726E616C6D
:10335E0020457863657074696F6E200020302E30C2
:10336E002E302E3400493243203230783420002063
:10337E00436F6E6E656374696F6E20666F756E64F3
:10338E0021202000202020506C656173652077611C
:10339E0069742E2E2E202020002E2E2E2E2E2E2E16
:1033AE002E2E2E2E2E2E2E2E2E2E2E2E2E003E314A
:1033BE00003E32003E33003E3400313100300044D6
:1033CE006973636F6E6E6563742072657175657374
:0E33DE007400446973636F6E6E656374000063
:00000001FF
