:100000000C9463000C948B000C948B000C948B006C
:100010000C948B000C948B000C948B000C948B0034
:100020000C948B000C948B000C948B000C948B0024
:100030000C948B000C948B000C948B000C948B0014
:100040000C941C070C948B000C948C070C94660782
:100050000C948B000C948B000C948B000C948B00F4
:100060000C948B000C948B000000000023002600F1
:10007000290000000000240027002A0000000000E2
:10008000250028002B0004040404040404040202D4
:100090000202020203030303030301020408102007
:1000A0004080010204081020010204081020000012
:1000B0000008000201000003040700000000000027
:1000C0000000BE074E0D11241FBECFEFD8E0DEBFEB
:1000D000CDBF23E0A2E3B2E001C01D92AC32B20773
:1000E000E1F712E0A0E0B1E0E2E8FFE102C0059034
:1000F0000D92A233B107D9F710E0C2E6D0E004C0F8
:100100002197FE010E94990DC136D107C9F70E94BF
:1001100055080C94B40F0C940000833081F028F43F
:10012000813099F08230A9F008958730A9F08830A5
:10013000C9F08430B1F4809180008F7D03C080913C
:1001400080008F7780938000089584B58F7784BD79
:10015000089584B58F7DFBCF8091B0008F77809319
:10016000B00008958091B0008F7DF9CF1F93CF9399
:10017000DF93282F30E0F901E255FF4F8491F90118
:10018000E656FF4FD491F901EA57FF4FC491CC23B3
:10019000A9F0162F81110E948D00EC2FF0E0EE0FD8
:1001A000FF1FE458FF4FA591B4918FB7F894EC91DD
:1001B000111108C0D095DE23DC938FBFDF91CF9162
:1001C0001F910895DE2BF8CFCF93682F6170809137
:1001D0001C030E94B60061E080911D030E94B600DE
:1001E00060E080911E030E94B60060E080911F03D2
:1001F0000E94B600C0911303809114038F3F21F039
:10020000909115039111C82F61E08C2F0E94B600C8
:1002100060E08C2FCF910C94B600CF93DF9390E0E9
:10022000FC01E656FF4F24918A579F4FFC018491B1
:100230008823D1F090E0880F991FFC01EE58FF4F02
:10024000A591B491FC01E458FF4FC591D49161117F
:100250000EC09FB7F8948C91E22FE0958E238C937B
:100260002881E223E8839FBFDF91CF9108958FB764
:10027000F894EC91E22BEC938FBFF6CF3FB7F89454
:1002800080914C0290914D02A0914E02B0914F028C
:1002900026B5A89B05C02F3F19F00196A11DB11DE1
:1002A0003FBFBA2FA92F982F8827BC01CD01620F1D
:1002B000711D811D911D42E0660F771F881F991FD8
:1002C0004A95D1F708958F929F92AF92BF92CF92A5
:1002D000DF92EF92FF924B015C010E943E016B01A5
:1002E0007C010E943E016C197D098E099F09683EC0
:1002F000734081059105A8F321E0821A9108A108B5
:10030000B10888EEC80E83E0D81EE11CF11C8114F0
:100310009104A104B10429F7FF90EF90DF90CF90F2
:10032000BF90AF909F908F9008952FB7F8946091F1
:1003300048027091490280914A0290914B022FBF6E
:1003400008950895DB0114964D915C9115976D9178
:100350007C91DC01ED91FC910280F381E02D099408
:10036000AF92BF92CF92DF92EF92FF920F931F93C3
:10037000CF93DF936C017B018B01040F151FEB0101
:100380005E01AE18BF08C017D10759F06991D601B8
:10039000ED91FC910190F081E02DC6010995892B2A
:1003A00079F7C501DF91CF911F910F91FF90EF90E9
:1003B000DF90CF90BF90AF900895FC01538D448D96
:1003C000252F30E0842F90E0821B930B541710F000
:1003D000CF96089501970895FC01918D828D98170D
:1003E00061F0A28DAE0FBF2FB11D5D968C91928DE5
:1003F0009F5F9F73928F90E008958FEF9FEF089516
:100400000F931F930E9495016093580270935902B5
:1004100080935A0290935B0280E592E00E94EC0187
:1004200097FF1DC00E94950100915802109159023A
:1004300020915A0230915B02601B710B820B930B6F
:1004400000915402109155022091560230915702AA
:100450006017710782079307F8F28FEF9FEF1F91E4
:100460000F910895FC01918D828D981731F0828D46
:10047000E80FF11D858D90E008958FEF9FEF0895AF
:10048000FC01918D228D892F90E0805C9F4F821B13
:1004900091098F739927089580E592E00E944002A8
:1004A00021E0892B09F420E0822F089580E090E07C
:1004B000892B29F00E944C0281110C9400000895B0
:1004C000FC01A48DA80FB92FB11DA35ABF4F2C91C9
:1004D000848D90E001968F739927848FA689B789C0
:1004E0002C93A089B1898C91837080648C93938DB7
:1004F000848D981306C00288F389E02D80818F7D5A
:1005000080830895EF92FF920F931F93CF93DF9311
:10051000EC0181E0888F9B8D8C8D98131AC0E8893F
:10052000F989808185FF15C09FB7F894EE89FF890E
:100530006083E889F98980818370806480839FBFAC
:1005400081E090E0DF91CF911F910F91FF90EF90AC
:100550000895F62E0B8D10E00F5F1F4F0F731127BC
:10056000E02E8C8D8E110CC00FB607FCFACFE889F7
:10057000F989808185FFF5CFCE010E946002F1CF1D
:10058000EB8DEC0FFD2FF11DE35AFF4FF0829FB76B
:10059000F8940B8FEA89FB8980818062CFCFCF935B
:1005A000DF93EC01888D8823B9F0AA89BB89E8899B
:1005B000F9898C9185FD03C0808186FD0DC00FB641
:1005C00007FCF7CF8C9185FFF2CF808185FFEDCFBF
:1005D000CE010E946002E9CFDF91CF910895DF92B2
:1005E000EF92FF920F931F93CF93DF93EC01162F9F
:1005F000E42E088589858F3F19F09A859111082F7F
:100600008F818F3F09F047C08BEF94E00197F1F79E
:100610006E2D8E810E94B600612F607189890E94C3
:10062000B600612F60728A890E94B600612F6074E3
:100630008B890E94B600612F60788C890E94B60079
:1006400061E0802F0E94B60060E0802F0E94B6001B
:10065000612F617089890E94B600612F62708A895A
:100660000E94B600612F64708B890E94B600612FD2
:1006700068708C890E94B60061E0802F0E94B600ED
:1006800060E0802FDF91CF911F910F91FF90EF904D
:10069000DF900C94B60060E089890E940D0160E053
:1006A0008A890E940D0160E08B890E940D0160E043
:1006B0008C890E940D0161E08F810E94B60060E08C
:1006C0008E810E94B60061E0802F0E94B6002C89C6
:1006D00030E0F901E255FF4F8491F901E656FF4FF2
:1006E000F490F901EA57FF4FD490DD20B1F1811168
:1006F0000E948D00ED2DF0E0EE0FFF1FE859FF4F37
:10070000A591B491EC91FE2281E009F480E0F82EED
:1007100060E0802F0E94B60061E0802F0E94B6004A
:1007200060E0802F0E94B60081E0F81609F4CBCF7C
:1007300061E089890E940D0161E08A890E940D01B2
:1007400061E08B890E940D0161E08C890E940D019E
:1007500060E08F810E94B6005BCFF12CD9CF0F9360
:100760001F93CF93DF938C01FC018689841710F4CB
:100770004FEF480FF801458764871686E40FF11D97
:100780008789C82FC074F8019385690F8F73680F2C
:100790006832E4F06852C62BD42FD270F8018285FB
:1007A000D81741F0638D6D7F638F686040E0C801AA
:1007B0000E94EF02F801D2876C2F606840E0C80108
:1007C000DF91CF911F910F910C94EF0267FFE3CF60
:1007D000685DE1CF809114038F3F11F182E0809337
:1007E000150340E061E08BE093E00E94EF0210927D
:1007F000150340E061E08BE093E00E94EF028091FE
:1008000012038F3F21F48BE49DE20197F1F740E062
:1008100060E08BE093E00E94AF031092160308950E
:1008200040E061E08BE093E00E94EF0280911203D0
:100830008F3F99F78BE49DE20197F1F7EECF1F937D
:10084000CF93DF93C62F18E0813009F410E082E1E6
:100850002BE235E7F9013197F1F78150D9F760E0E4
:10086000809111030E94B60060E08C2F0E94B600B8
:1008700060E0809111030E94B60083E00E94E400D2
:100880008BE19EE40197F1F783E00E94E400C3E569
:10089000D2E0CE010197F1F783E00E94E400CE019F
:1008A0000197F1F782E00E94E4002197F1F7612FB0
:1008B000606240E08BE093E00E94EF0284E080936E
:1008C0002603809114038F3FA1F440E06CE08BE09D
:1008D00093E00E94EF020E94EA0382E080932703E4
:1008E00040E066E08BE093E0DF91CF911F910C94A4
:1008F000EF02C09115031092150340E06CE08BE00D
:1009000093E00E94EF0282E08093150340E06CE0E8
:100910008BE093E00E94EF02C0931503DCCFCF93EE
:10092000C82F84E18093200380931003C093210398
:10093000C0930F03809122038C5E809324038091E7
:1009400023038C5E80932503609113038C2F0E94F8
:100950001F04609114036F3F61F01092240380E440
:100960008093250382E0809315038C2FCF910C9404
:100970001F04CF9108951F93CF93DF93EC01162F9F
:100980008B85811103C08E85882329F04D856C8568
:10099000CE010E94AF031D3039F01A3029F041E03A
:1009A000612FCE010E94EF021E868C859F852D85CA
:1009B000911121C08F5F8C871D3041F0082E000CF3
:1009C000990B3D893817190609F02CF41C862F5F06
:1009D0002D8781E08E878D85082E000C990B2E893E
:1009E0002817190609F00CF41D8681E090E0DF91CC
:1009F000CF911F91089581508C871A3011F087FF95
:100A0000EACF8D8981508C87E2CF90E080E0089515
:100A1000FC0101900020E9F73197AF01481B590B09
:100A2000BC018BE093E00C94B00184E291E00E9461
:100A3000080564E670E080E090E00E94630141E018
:100A400060E08BE093E00E94AF0364E670E080E03A
:100A500090E00E94630189E391E00E94080564E64A
:100A600070E080E090E00E94630142E060E08BE093
:100A700093E00E94AF0364E670E080E090E00E94A3
:100A800063018EE491E00E94080564E670E080E076
:100A900090E00E94630143E060E08BE093E00E94FD
:100AA000AF0364E670E080E090E00E94630183E6BB
:100AB00091E00C940805CF93DF93209109033091C6
:100AC0000A03232B89F0FC01C0910503D091060392
:100AD00060817181CE010E949A0F009729F08C1BD2
:100AE0009D0BDF91CF9108958FEF9FEFFACFFC011F
:100AF00024813581FB014481558124173507E1F4B8
:100B0000FC0180819181FB01608171810097D9F0A6
:100B100061157105A9F4232BC9F0FC01808190E0D7
:100B200008C0232B99F0FB01808190E0919581957D
:100B3000910921E0892B09F020E081E082270895C6
:100B40000E948A0FF6CF6115710559F721E0F5CFA4
:100B50000F931F93CF93DF938C01EB01FC018081F6
:100B600091810097E1F06881798161157105A9F0A3
:100B7000428153812C813D814217530770F00E94BE
:100B8000930F8C819D81F801958384831D821C8243
:100B9000DF91CF911F910F9108950E943B0E8881A4
:100BA0009981F801918380838A819B8193838283D9
:100BB0008C819D8195838483198218821B821A827D
:100BC000E5CFCF93DF93EC0188819981009711F0F5
:100BD0000E943B0E198218821D821C821B821A827F
:100BE000DF91CF910895FC0180819181009711F0F0
:100BF0000C943B0E08950F931F93CF93DF93EC015A
:100C000088819981009759F02A813B8126173707FF
:100C100030F081E0DF91CF911F910F9108958B010A
:100C20006F5F7F4F0E94C40E009759F099838883AD
:100C30001B830A832C813D81232B59F7FC011082F1
:100C4000E8CF80E0E7CFEF92FF920F931F93CF930F
:100C5000DF936115710541F480E0DF91CF911F9121
:100C60000F91FF90EF90089541155105B1F07B0170
:100C7000EC010C811D81040F151FB8010E94FB05BA
:100C8000882351F3288139818C819D81B701820F9E
:100C9000931F0E94930F1D830C8381E0DECFCF93BF
:100CA000DF93EC0144E050E069E471E00E94230628
:100CB000811103C0CE010E94E105CE01DF91CF91E9
:100CC0000895CF93DF93EC01FB014481558160814E
:100CD00071810E942306811103C0CE010E94E105AB
:100CE000CE01DF91CF910895EF92FF920F931F9362
:100CF000CF93DF93EC017B018A01BA010E94FB05CF
:100D000081110BC0CE010E94E105CE01DF91CF9190
:100D10001F910F91FF90EF9008951D830C83B701F1
:100D2000888199810E94930FF0CFFB0101900020F0
:100D3000E9F73197AF01461B570B0C947406CF931C
:100D4000DF93EC01FB018617970749F06081718101
:100D50006115710541F0448155810E947406CE01F0
:100D6000DF91CF9108950E94E105F9CFFC01118236
:100D7000108213821282158214820C949F06FC0149
:100D8000118210821382128215821482FB0101905B
:100D90000020E9F73197AF01461B570B0C947406FE
:100DA000AF92BF92CF92DF92EF92FF920F931F9379
:100DB000CF93DF936C015B017A018901241735071A
:100DC00020F48F2D7901042F182F63E072E0C60103
:100DD0000E94BF06D5011496CD91DC91EC16FD065C
:100DE000E0F40C171D0708F4E801D501ED91FC9122
:100DF0001197EC0FFD1F108110826D917C916E0D8B
:100E00007F1DC60161157105A1F00E949506F501CF
:100E100080819181C80FD91F1883C601DF91CF91BE
:100E20001F910F91FF90EF90DF90CF90BF90AF9008
:100E300008950E94E105EBCF1F920F920FB60F921B
:100E400011242F933F938F939F93AF93BF938091E0
:100E5000480290914902A0914A02B0914B02309110
:100E6000470223E0230F2D3758F50196A11DB11D30
:100E7000209347028093480290934902A0934A022C
:100E8000B0934B0280914C0290914D02A0914E0282
:100E9000B0914F020196A11DB11D80934C02909319
:100EA0004D02A0934E02B0934F02BF91AF919F911C
:100EB0008F913F912F910F900FBE0F901F9018951B
:100EC00026E8230F0296A11DB11DD2CF1F920F92CB
:100ED0000FB60F9211242F933F934F935F936F930D
:100EE0007F938F939F93AF93BF93EF93FF9380E58F
:100EF00092E00E946002FF91EF91BF91AF919F91AC
:100F00008F917F916F915F914F913F912F910F90B2
:100F10000FBE0F901F9018951F920F920FB60F9251
:100F200011242F938F939F93EF93FF93E09160028F
:100F3000F09161028081E0916602F091670282FD8A
:100F40001BC09081809169028F5F8F7320916A022C
:100F5000821741F0E0916902F0E0E05BFD4F958F70
:100F600080936902FF91EF919F918F912F910F9044
:100F70000FBE0F901F9018958081F4CFCF93DF9311
:100F8000E0E5F2E01382128288EE93E0A0E0B0E0A8
:100F900084839583A683B7838AE091E091838083DD
:100FA00085EC90E09587848784EC90E0978786872E
:100FB00080EC90E0918B808B81EC90E0938B828B26
:100FC00082EC90E0958B848B86EC90E0978B868BFF
:100FD000118E128E138E148ECBE0D3E01B821A82F8
:100FE0008CE191E0998388838DE08E838FEF8F83EE
:100FF0009CE0988789871A861B861C861D861E861C
:101000001F8688E0898B87E08A8B86E08B8B85E062
:101010008C8B61E088E00E940D0161E087E00E9416
:101020000D0161E086E00E940D0161E085E00E9413
:101030000D011F8A80E4888F84E1898F84E58A8F7F
:1010400061E08E810E940D0161E08AE00E940D0145
:1010500060E08AE00E94B60061E088850E940D0190
:1010600081E00E948F048AE08F8363E072E085E074
:1010700093E00E94BF0663E072E08FEF92E00E946F
:10108000BF0663E072E089EF92E00E94BF0663E072
:1010900072E083EF92E00E94BF0663E072E08DEEA3
:1010A00092E0DF91CF910C94BF06CF93DF93CDB741
:1010B000DEB76E970FB6F894DEBF0FBECDBF789443
:1010C00084B5826084BD84B5816084BD85B582604D
:1010D00085BD85B5816085BD80916E0081608093FE
:1010E0006E00109281008091810082608093810067
:1010F0008091810081608093810080918000816077
:10110000809380008091B10084608093B1008091D1
:10111000B00081608093B00080917A0084608093F9
:101120007A0080917A00826080937A0080917A00C0
:10113000816080937A0080917A00806880937A0041
:101140001092C100E0916002F091610282E0808320
:10115000E0915C02F0915D021082E0915E02F091FC
:101160005F0280E1808310926802E0916402F09156
:10117000650286E08083E0916202F09163028081E3
:1011800080618083E0916202F091630280818860D7
:101190008083E0916202F0916302808180688083A5
:1011A000E0916202F091630280818F7D808384E010
:1011B0000E948F0440E060E08BE093E00E94AF0368
:1011C00088E791E00E94080541E060E08BE093E051
:1011D0000E94AF038DE891E00E94080543E060E0C3
:1011E0008BE093E00E94AF0382EA91E00E94080541
:1011F00068EE73E080E090E00E9463010E941505B4
:1012000094E1E92EF12C80E0C82E80E0D82E809168
:101210004602882309F473C00E949501009142029E
:10122000109143022091440230914502601B710BE2
:10123000820B930B683873418105910508F45FC0F8
:101240008091410281115BC00E94EA0340E060E0AE
:101250008BE093E00E94AF0362E370E080E090E0F7
:101260000E94630187EB91E00E94080562E370E051
:1012700080E090E00E94630141E060E08BE093E059
:101280000E94AF0389E391E00E94080562E370E0E9
:1012900080E090E00E94630142E060E08BE093E038
:1012A0000E94AF038CEC91E00E94080562E370E0BD
:1012B00080E090E00E94630143E060E08BE093E017
:1012C0000E94AF0389E391E00E94080568EE73E095
:1012D00080E090E00E9463010E9415051092460292
:1012E00063E072E08FEF92E00E94950663E072E0A7
:1012F00089EF92E00E94950681E0809341020E946E
:10130000950100913A0210913B0220913C023091EC
:101310003D024B015C01801A910AA20AB30A9501B1
:101320008401083E13402105310508F400C1609393
:101330003A0270933B0280933C0290933D0280916D
:10134000030390910403459708F475C041E060E001
:101350008BE093E00E94AF036FEF72E0CE01019645
:101360000E94B606CE0101960E944F06BC01CE0136
:1013700049960E94B606CE0101960E94F3058D8D16
:101380009E8D00913E0210913F0298012C5E3F4FCE
:101390002817390708F0F7C0A801BE01675E7F4F24
:1013A000CE0101960E94D006BE016F5F7F4F8BE099
:1013B00093E00E94A201CE0101960E94F305809164
:1013C0003E0290913F02019690933F0280933E022D
:1013D0002D8D3E8D82179307A8F010923F02109238
:1013E0003E0281E0809332020E9495016056704F68
:1013F0008F4F9F4F60933302709334028093350276
:101400009093360280913202882389F00E949501E0
:10141000009133021091340220913502309136024E
:10142000601771078207930710F010923202CE0105
:1014300049960E94F3058091FD029091FE02459726
:1014400008F475C042E060E08BE093E00E94AF03D7
:1014500069EF72E0CE0101960E94B606CE010196B8
:101460000E944F06BC01CE0149960E94B606CE01ED
:1014700001960E94F3058D8D9E8D0091380210918A
:10148000390298012C5E3F4F2817390708F0BBC07E
:10149000A801BE01675E7F4FCE0101960E94D00673
:1014A000BE016F5F7F4F8BE093E00E94A201CE01EF
:1014B00001960E94F30580913802909139020196BD
:1014C00090933902809338022D8D3E8D82179307B9
:1014D000A8F0109239021092380281E0809337020E
:1014E0000E9495016056704F8F4F9F4F609333025B
:1014F00070933402809335029093360280913702C4
:10150000882389F00E9495010091330210913402E2
:1015100020913502309136026017710782079307D8
:1015200010F010923702CE0149960E94F30580E533
:1015300092E00E944002181619062CF4809146028F
:10154000882309F4A0C080E592E00E9440021816AA
:1015500019060CF4EFC06FEF72E083EF92E00E9487
:101560009F0669EF72E08DEE92E00E949F06C11423
:10157000D10409F44CCE0E944C02882309F447CED2
:101580000E94000040CE801B910B9701281B390B55
:1015900050E040E06FEF72E0CE010D960E94D00661
:1015A0002D8D3E8DA801BE01675E7F4FCE01019655
:1015B0000E94D006BE016F5F7F4FCE0107960E944A
:1015C000B606BE01635F7F4FCE0107960E9461069B
:1015D000BC01CE0143960E94B606CE0107960E943A
:1015E000F305CE0101960E94F305CE010D960E94EF
:1015F000F305BE016D5E7F4F8BE093E00E94A20178
:10160000CE014396DACE801B910B9701281B390B34
:1016100050E040E069EF72E0CE010D960E94D006E6
:101620002D8D3E8DA801BE01675E7F4FCE010196D4
:101630000E94D006BE016F5F7F4FCE0107960E94C9
:10164000B606BE01635F7F4FCE0107960E9461061A
:10165000BC01CE0143960E94B606CE0107960E94B9
:10166000F305CE0101960E94F305CE010D960E946E
:10167000F305BE016D5E7F4F8BE093E00E94A201F7
:10168000CE01439616CF0E94EA0340E060E08BE073
:1016900093E00E94AF0381EE91E00E9408050E9452
:1016A00095016093420270934302809344029093A9
:1016B00045021092410211E01093460260EF71E082
:1016C000CE010D960E94BF066BEF71E0CE0107962A
:1016D0000E94BF06BE01695F7F4FCE0101960E9446
:1016E000B606BE01635F7F4FCE0101960E94610680
:1016F000BC0180E592E00E94A20142E050E061E07E
:1017000072E080E592E00E94B001CE0101960E9455
:10171000F3051093400266E470E080E090E00E94E0
:101720006301CE0107960E94F305CE010D960E943B
:10173000F30511CF80914602882309F40CCF0E9453
:101740009501609342027093430280934402909308
:1017500045021092410263E072E085E093E00E944E
:10176000950663E072E0CE0101960E94BF060E94DA
:10177000000297FD0CC08F83188641E050E0BE0147
:10178000695F7F4FCE0101960E942306F0CFBE0114
:101790006F5F7F4F85E093E00E94A805CE01019620
:1017A0000E94F30561E070E080E090E00E94630138
:1017B00064E072E0CE0101960E94BF06CE01019660
:1017C0000E945B0510E0181619069CF467E072E0B1
:1017D000CE0107960E94BF06CE0107960E945B05C8
:1017E00011E0181619060CF010E0CE0107960E94C1
:1017F000F305CE0101960E94F305112309F4ABCE47
:10180000809140028823A1F01092400263E072E0D0
:1018100085E093E00E9495060E94EA0340E060E0C4
:101820008BE093E00E94AF0381EE91E00E940805F7
:1018300064E072E0CE0107960E94BF06CE010796D3
:101840000E945B059C0150E040E065E073E0CE0142
:1018500001960E94D006BE016F5F7F4F8FEF92E02E
:101860000E94A805CE0101960E94F305CE010796BD
:101870000E94F30567E072E0CE0107960E94BF0662
:10188000CE0107960E945B058C0164E072E0CE01F8
:101890000D960E94BF06CE010D960E945B05AC011D
:1018A0004E5F5F4F980165E073E0CE0101960E94A4
:1018B000D006BE016F5F7F4F89EF92E00E94A805BE
:1018C000CE0101960E94F305CE010D960E94F3050C
:1018D000CE0107960E94F30563EF72E08FEF92E06E
:1018E0000E947705882381F110923F0210923E02F8
:1018F00041E060E08BE093E00E94AF0389E391E078
:101900000E94080541E060E08BE093E00E94AF0395
:101910008091030390910403449708F458C024E194
:1019200030E050E040E06FEF72E0CE0101960E949F
:10193000D006BE016F5F7F4F8BE093E00E94A20153
:10194000CE0101960E94F3056DEE72E089EF92E000
:101950000E9477052091FD023091FE028823F1F16B
:10196000232B51F06AE072E08091F9029091FA0223
:101970000E948A0F892BA9F142E060E08BE093E09E
:101980000E94AF0389E391E00E94080542E060E015
:101990008BE093E00E94AF038091FD029091FE02E4
:1019A000449708F474C024E130E050E040E069EF6F
:1019B00072E0CE0101960E94D006BE016F5F7F4F9C
:1019C0008BE093E00E94A201CE010196B0CE6FEFB2
:1019D00072E08BE093E00E94A201B6CF232B09F4C2
:1019E000BACD6AE072E08091F9029091FA020E9409
:1019F0008A0F892B09F0AFCD0E94EA0340E060E036
:101A00008BE093E00E94AF0362E370E080E090E03F
:101A10000E94630187EB91E00E94080562E370E099
:101A200080E090E00E94630141E060E08BE093E0A1
:101A30000E94AF0389E391E00E94080562E370E031
:101A400080E090E00E94630142E060E08BE093E080
:101A50000E94AF038CE192E00E94080562E370E00F
:101A600080E090E00E94630143E060E08BE093E05F
:101A70000E94AF0389E391E00E94080568EE73E0DD
:101A800080E090E00E9463010E94150564CD69EF3B
:101A900072E08BE093E00E94A2015DCD8DEE92E0BA
:101AA0000E94F30583EF92E00E94F30589EF92E034
:101AB0000E94F3058FEF92E00E94F30585E093E02A
:101AC0000C94F3052F923F924F925F926F927F9208
:101AD0008F929F92AF92BF92CF92DF92EF92FF923E
:101AE0000F931F93CF93DF93CDB7DEB7CA1BDB0BEA
:101AF0000FB6F894DEBF0FBECDBF09942A8839888F
:101B000048885F846E847D848C849B84AA84B98495
:101B1000C884DF80EE80FD800C811B81AA81B981A1
:101B2000CE0FD11D0FB6F894DEBF0FBECDBFED01B5
:101B30000895EE0FFF1F0590F491E02D09940F9387
:101B40001F93CF93DF938230910510F482E090E0F1
:101B5000E0912A03F0912B0330E020E0B0E0A0E018
:101B6000309799F42115310509F44AC0281B390B27
:101B700024303105D8F58A819B816115710589F181
:101B8000FB0193838283FE0111C040815181028158
:101B9000138148175907E0F04817590799F410972F
:101BA00061F012960C93129713961C933296CF0104
:101BB000DF91CF911F910F91089500932A03109305
:101BC0002B03F4CF2115310551F04217530738F09C
:101BD000A901DB019A01BD01DF01F801C1CFEF01CD
:101BE000F9CF90932B0380932A03CDCFFE01E20F10
:101BF000F31F819391932250310939832883D7CFE2
:101C00002091280330912903232B41F420910201D4
:101C10003091030130932903209328032091000180
:101C2000309101012115310541F42DB73EB74091A6
:101C3000040150910501241B350BE0912803F0911C
:101C40002903E217F307A0F42E1B3F0B28173907CF
:101C500078F0AC014E5F5F4F2417350748F04E0F08
:101C60005F1F5093290340932803819391939FCF43
:101C7000F0E0E0E09CCFCF93DF930097E9F0FC0128
:101C8000329713821282A0912A03B0912B03ED01A7
:101C900030E020E01097A1F420813181820F931F62
:101CA00020912803309129032817390709F061C0D2
:101CB000F0932903E0932803DF91CF910895EA017F
:101CC000CE17DF07E8F54A815B819E01411551057A
:101CD000B1F7E901FB83EA8349915991C40FD51FFC
:101CE000EC17FD0761F4808191810296840F951FA6
:101CF000E90199838883828193819B838A83F0E0C1
:101D0000E0E012968D919C9113970097B9F52D9173
:101D10003C911197CD010296820F931F20912803C9
:101D2000309129032817390739F6309751F5109269
:101D30002B0310922A03B0932903A0932803BCCF4E
:101D4000D383C28340815181840F951FC817D9075F
:101D500061F44E5F5F4F88819981480F591F51830D
:101D600040838A819B81938382832115310509F009
:101D7000B0CFF0932B03E0932A039ECFFD01DC014B
:101D8000C0CF13821282D7CFB0E0A0E0EAECFEE031
:101D90000C94640D8C01009751F4CB010E949F0DAF
:101DA0008C01C801CDB7DEB7E0E10C94800DFC01D9
:101DB000E60FF71F9C0122503109E217F30708F4E0
:101DC0009DC0D901CD91DC911197C617D70798F026
:101DD000C530D10530F3CE0104978617970708F375
:101DE000C61BD70B2297C193D1936D937C93CF01E0
:101DF0000E943B0ED6CF5B01AC1ABD0A4C018C0E83
:101E00009D1EA0912A03B0912B03512C412CF12C43
:101E1000E12C109731F580912803909129038815C2
:101E2000990509F05CC04616570608F058C0809125
:101E3000000190910101009741F48DB79EB7409148
:101E4000040150910501841B950BE817F90708F070
:101E500055C0F0932903E0932803F901718360834F
:101E6000A0CF8D919C91119712966C90129713961A
:101E70007C901397A815B90559F56C0142E0C40E82
:101E8000D11CCA14DB0420F1AC014A195B09DA0148
:101E90001296159780F06282738251834083D90134
:101EA0006D937C93E114F10471F0D7011396FC93C8
:101EB000EE93129776CF22968C0F9D1FF901918396
:101EC0008083F301EFCFF0932B03E0932A0369CFD4
:101ED0004816590608F42C017D01D3019ACFCB0195
:101EE0000E949F0D7C01009749F0AE01B8010E944D
:101EF000810FC8010E943B0E870153CF10E000E024
:101F000050CFFB01DC0102C001900D9241505040C6
:101F1000D8F70895FB01DC018D9101908019011023
:101F2000D9F3990B0895FB01DC0101900D9200207B
:101F3000E1F70895FB0151915523A9F0BF01DC01A0
:101F40004D9145174111E1F759F4CD010190002061
:101F500049F04D9140154111C9F3FB014111EFCFFB
:101F600081E090E00197089510E0C2E6D0E004C05F
:101F7000FE010E94990D2196C336D107C9F7F89446
:021F8000FFCF91
:101F820000002C038000000000008202B001DD018D
:101F9200CF024002EC01320200000000BB04B0019B
:101FA2000505A101202020436F6E6E6563742057E2
:101FB200697A6172642020200020202020202020C5
:101FC20020202020202020202020202020002050FF
:101FD2006C656173652074617020636F6E6E6563FA
:101FE2007420002020696E204D75736963204C4374
:101FF20044205052472020002020202046696B7543
:1020020053797374656D73202020202000202020D6
:1020120020204D757369634C4344202020202020EA
:1020220020004769744875623A202046696B7553EF
:10203200797374656D730020202020446973636F87
:102042006E6E6563746564202020200020496E74E2
:1020520065726E616C20457863657074696F6E207D
:10206200002020202020204D757369634C434400DA
:1020720020563A302E302E302E3400543A424353FA
:10208200000D0A003E31003E3200442A495E5324CC
:1020920043294F254E234525432654004469737036
:1020A2006C617920446973636F6E6E6563746564F5
:0220B20000002C
:00000001FF
