:100000000C9463000C948B000C948B000C948B006C
:100010000C948B000C948B000C948B000C948B0034
:100020000C948B000C948B000C948B000C948B0024
:100030000C948B000C948B000C948B000C948B0014
:100040000C9402070C948B000C9472070C944C07D0
:100050000C948B000C948B000C948B000C948B00F4
:100060000C948B000C948B000000000023002600F1
:10007000290000000000240027002A0000000000E2
:10008000250028002B0004040404040404040202D4
:100090000202020203030303030301020408102007
:1000A0004080010204081020010204081020000012
:1000B0000008000201000003040700000000000027
:1000C0000000A407E50C11241FBECFEFD8E0DEBF6F
:1000D000CDBF22E0AAEDB1E001C01D92A43DB20760
:1000E000E1F711E0A0E0B1E0E0EBFEE102C0059035
:1000F0000D92AA3DB107D9F710E0C2E6D0E004C0E6
:100100002197FE010E94300DC136D107C9F70E9428
:100110003B080C944B0F0C940000833081F028F4C2
:10012000813099F08230A9F008958730A9F08830A5
:10013000C9F08430B1F4809180008F7D03C080913C
:1001400080008F7780938000089584B58F7784BD79
:10015000089584B58F7DFBCF8091B0008F77809319
:10016000B00008958091B0008F7DF9CF1F93CF9399
:10017000DF93282F30E0F901E255FF4F8491F90118
:10018000E656FF4FD491F901EA57FF4FC491CC23B3
:10019000A9F0162F81110E948D00EC2FF0E0EE0FD8
:1001A000FF1FE458FF4FA591B4918FB7F894EC91DD
:1001B000111108C0D095DE23DC938FBFDF91CF9162
:1001C0001F910895DE2BF8CFCF93682F6170809137
:1001D000C4020E94B60061E08091C5020E94B60090
:1001E00060E08091C6020E94B60060E08091C70284
:1001F0000E94B600C091BB028091BC028F3F21F0EB
:100200009091BD029111C82F61E08C2F0E94B60021
:1002100060E08C2FCF910C94B600CF93DF9390E0E9
:10022000FC01E656FF4F24918A579F4FFC018491B1
:100230008823D1F090E0880F991FFC01EE58FF4F02
:10024000A591B491FC01E458FF4FC591D49161117F
:100250000EC09FB7F8948C91E22FE0958E238C937B
:100260002881E223E8839FBFDF91CF9108958FB764
:10027000F894EC91E22BEC938FBFF6CF3FB7F89454
:100280008091F4019091F501A091F601B091F701F0
:1002900026B5A89B05C02F3F19F00196A11DB11DE1
:1002A0003FBFBA2FA92F982F8827BC01CD01620F1D
:1002B000711D811D911D42E0660F771F881F991FD8
:1002C0004A95D1F708958F929F92AF92BF92CF92A5
:1002D000DF92EF92FF924B015C010E943E016B01A5
:1002E0007C010E943E016C197D098E099F09683EC0
:1002F000734081059105A8F321E0821A9108A108B5
:10030000B10888EEC80E83E0D81EE11CF11C8114F0
:100310009104A104B10429F7FF90EF90DF90CF90F2
:10032000BF90AF909F908F9008952FB7F8946091F1
:10033000F0017091F1018091F2019091F3012FBFD2
:1003400008950895DB0114964D915C9115976D9178
:100350007C91DC01ED91FC910280F381E02D099408
:10036000AF92BF92CF92DF92EF92FF920F931F93C3
:10037000CF93DF936C017B018B01040F151FEB0101
:100380005E01AE18BF08C017D10759F06991D601B8
:10039000ED91FC910190F081E02DC6010995892B2A
:1003A00079F7C501DF91CF911F910F91FF90EF90E9
:1003B000DF90CF90BF90AF900895FC01538D448D96
:1003C000252F30E0842F90E0821B930B541710F000
:1003D000CF96089501970895FC01918D828D98170D
:1003E00061F0A28DAE0FBF2FB11D5D968C91928DE5
:1003F0009F5F9F73928F90E008958FEF9FEF089516
:100400000F931F930E949501609300027093010265
:10041000809302029093030288EF91E00E94EC0126
:1004200097FF1DC00E9495010091000210910102EA
:100430002091020230910302601B710B820B930B1F
:100440000091FC011091FD012091FE013091FF010E
:100450006017710782079307F8F28FEF9FEF1F91E4
:100460000F910895FC01918D828D981731F0828D46
:10047000E80FF11D858D90E008958FEF9FEF0895AF
:10048000FC01918D228D892F90E0805C9F4F821B13
:1004900091098F739927089588EF91E00E94400297
:1004A00021E0892B09F420E0822F089580E090E07C
:1004B000892B29F00E944C0281110C9400000895B0
:1004C000FC01A48DA80FB92FB11DA35ABF4F2C91C9
:1004D000848D90E001968F739927848FA689B789C0
:1004E0002C93A089B1898C91837080648C93938DB7
:1004F000848D981306C00288F389E02D80818F7D5A
:1005000080830895EF92FF920F931F93CF93DF9311
:10051000EC0181E0888F9B8D8C8D98131AC0E8893F
:10052000F989808185FF15C09FB7F894EE89FF890E
:100530006083E889F98980818370806480839FBFAC
:1005400081E090E0DF91CF911F910F91FF90EF90AC
:100550000895F62E0B8D10E00F5F1F4F0F731127BC
:10056000E02E8C8D8E110CC00FB607FCFACFE889F7
:10057000F989808185FFF5CFCE010E946002F1CF1D
:10058000EB8DEC0FFD2FF11DE35AFF4FF0829FB76B
:10059000F8940B8FEA89FB8980818062CFCFCF935B
:1005A000DF93EC01888D8823B9F0AA89BB89E8899B
:1005B000F9898C9185FD03C0808186FD0DC00FB641
:1005C00007FCF7CF8C9185FFF2CF808185FFEDCFBF
:1005D000CE010E946002E9CFDF91CF910895DF92B2
:1005E000EF92FF920F931F93CF93DF93EC01162F9F
:1005F000E42E088589858F3F19F09A859111082F7F
:100600008F818F3F09F047C08BEF94E00197F1F79E
:100610006E2D8E810E94B600612F607189890E94C3
:10062000B600612F60728A890E94B600612F6074E3
:100630008B890E94B600612F60788C890E94B60079
:1006400061E0802F0E94B60060E0802F0E94B6001B
:10065000612F617089890E94B600612F62708A895A
:100660000E94B600612F64708B890E94B600612FD2
:1006700068708C890E94B60061E0802F0E94B600ED
:1006800060E0802FDF91CF911F910F91FF90EF904D
:10069000DF900C94B60060E089890E940D0160E053
:1006A0008A890E940D0160E08B890E940D0160E043
:1006B0008C890E940D0161E08F810E94B60060E08C
:1006C0008E810E94B60061E0802F0E94B6002C89C6
:1006D00030E0F901E255FF4F8491F901E656FF4FF2
:1006E000F490F901EA57FF4FD490DD20B1F1811168
:1006F0000E948D00ED2DF0E0EE0FFF1FE859FF4F37
:10070000A591B491EC91FE2281E009F480E0F82EED
:1007100060E0802F0E94B60061E0802F0E94B6004A
:1007200060E0802F0E94B60081E0F81609F4CBCF7C
:1007300061E089890E940D0161E08A890E940D01B2
:1007400061E08B890E940D0161E08C890E940D019E
:1007500060E08F810E94B6005BCFF12CD9CFCF93A0
:10076000DF939091BC029F3F41F440E0682F83EB00
:1007700092E0DF91CF910C94EF02C82FD091BD028F
:100780001092BD0240E0682F83EB92E00E94EF02DE
:1007900082E08093BD0240E06C2F83EB92E00E94E8
:1007A000EF02D093BD02DF91CF9108950F931F9375
:1007B000CF93DF938C01FC018689841710F44FEFEF
:1007C000480FF801458764871686E40FF11D878975
:1007D000C82FC074F8019385690F8F73680F683252
:1007E000E4F06852C62BD42FD270F8018285D81756
:1007F00041F0638D6D7F638F686040E0C8010E94A7
:10080000EF02F801D2876C2F606840E0C801DF91E9
:10081000CF911F910F910C94EF0267FFE3CF685DBA
:10082000E1CF8091BC028F3F11F182E08093BD0245
:1008300040E061E083EB92E00E94EF021092BD0283
:1008400040E061E083EB92E00E94EF028091BA0207
:100850008F3F21F48BE49DE20197F1F740E060E0E7
:1008600083EB92E00E94D6031092BE02089540E00E
:1008700061E083EB92E00E94EF028091BA028F3F29
:1008800099F78BE49DE20197F1F7EECF1F93CF9399
:10089000DF93C62F18E0813009F410E082E12BE2EB
:1008A00035E7F9013197F1F78150D9F760E0809190
:1008B000B9020E94B60060E08C2F0E94B60060E092
:1008C0008091B9020E94B60083E00E94E4008BE1AF
:1008D0009EE40197F1F783E00E94E400C3E5D2E0D3
:1008E000CE010197F1F783E00E94E400CE01019769
:1008F000F1F782E00E94E4002197F1F7612F606236
:1009000040E083EB92E00E94EF0284E08093CE020D
:100910008CE00E94AF030E94110482E08093CF021A
:1009200040E066E083EB92E0DF91CF911F910C9461
:10093000EF02CF93C82F84E18093C8028093B8025E
:10094000C093C902C093B7028091CA028C5E8093A3
:10095000CC028091CB028C5E8093CD026091BB0271
:100960008C2F0E9446046091BC026F3F61F0109290
:10097000CC0280E48093CD0282E08093BD028C2F74
:10098000CF910C944604CF9108951F93CF93DF939A
:10099000EC01162F8B85811103C08E85882329F0E9
:1009A0004D856C85CE010E94D6031D3039F01A307A
:1009B00029F041E0612FCE010E94EF021E868C8556
:1009C0009F852D85911121C08F5F8C871D3041F04F
:1009D000082E000C990B3D893817190609F02CF4E4
:1009E0001C862F5F2D8781E08E878D85082E000C59
:1009F000990B2E892817190609F00CF41D8681E041
:100A000090E0DF91CF911F91089581508C871A302B
:100A100011F087FFEACF8D8981508C87E2CF90E07B
:100A200080E00895FC0101900020E9F73197AF01C3
:100A3000481B590BBC0183EB92E00C94B0010E945F
:100A4000110440E060E083EB92E00E94D60384E270
:100A500091E00E94120564E670E080E090E00E9460
:100A6000630141E060E083EB92E00E94D60364E61C
:100A700070E080E090E00E94630185E391E00C94D7
:100A80001205CF93DF932091B1023091B202232B54
:100A900089F0FC01C091AD02D091AE0260817181FC
:100AA000CE010E94310F009729F08C1B9D0BDF9126
:100AB000CF9108958FEF9FEFFACFFC01248135810C
:100AC000FB014481558124173507E1F4FC01808145
:100AD0009181FB01608171810097D9F061157105E9
:100AE000A9F4232BC9F0FC01808190E008C0232BDE
:100AF00099F0FB01808190E091958195910921E029
:100B0000892B09F020E081E0822708950E94210FBF
:100B1000F6CF6115710559F721E0F5CF0F931F93BB
:100B2000CF93DF938C01EB01FC01808191810097D1
:100B3000E1F06881798161157105A9F042815381E5
:100B40002C813D814217530770F00E942A0F8C813F
:100B50009D81F801958384831D821C82DF91CF9152
:100B60001F910F9108950E94D20D88819981F801FB
:100B7000918380838A819B81938382838C819D81F1
:100B800095838483198218821B821A82E5CFCF93C2
:100B9000DF93EC0188819981009711F00E94D20DBA
:100BA000198218821D821C821B821A82DF91CF91CA
:100BB0000895FC0180819181009711F00C94D20D71
:100BC00008950F931F93CF93DF93EC018881998150
:100BD000009759F02A813B812617370730F081E0D2
:100BE000DF91CF911F910F9108958B016F5F7F4F20
:100BF0000E945B0E009759F0998388831B830A83B8
:100C00002C813D81232B59F7FC011082E8CF80E035
:100C1000E7CFEF92FF920F931F93CF93DF9361156E
:100C2000710541F480E0DF91CF911F910F91FF900A
:100C3000EF90089541155105B1F07B01EC010C8155
:100C40001D81040F151FB8010E94E105882351F38F
:100C5000288139818C819D81B701820F931F0E9469
:100C60002A0F1D830C8381E0DECFCF93DF93EC014D
:100C700044E050E064EB71E00E940906811103C07A
:100C8000CE010E94C705CE01DF91CF910895CF9389
:100C9000DF93EC01FB0144815581608171810E94E9
:100CA0000906811103C0CE010E94C705CE01DF9164
:100CB000CF910895EF92FF920F931F93CF93DF93FD
:100CC000EC017B018A01BA010E94E10581110BC090
:100CD000CE010E94C705CE01DF91CF911F910F91E8
:100CE000FF90EF9008951D830C83B701888199814F
:100CF0000E942A0FF0CFFB0101900020E9F7319705
:100D0000AF01461B570B0C945A06CF93DF93EC01AF
:100D1000FB018617970749F06081718161157105A4
:100D200041F0448155810E945A06CE01DF91CF9156
:100D300008950E94C705F9CFFC0111821082138229
:100D40001282158214820C948506FC011182108295
:100D50001382128215821482FB0101900020E9F7B0
:100D60003197AF01461B570B0C945A06AF92BF92B6
:100D7000CF92DF92EF92FF920F931F93CF93DF9367
:100D80006C015B017A0189012417350720F48F2D4E
:100D90007901042F182F6DE971E0C6010E94A506A4
:100DA000D5011496CD91DC91EC16FD06E0F40C17FC
:100DB0001D0708F4E801D501ED91FC911197EC0FA6
:100DC000FD1F108110826D917C916E0D7F1DC601FB
:100DD00061157105A1F00E947B06F501808191816A
:100DE000C80FD91F1883C601DF91CF911F910F91B2
:100DF000FF90EF90DF90CF90BF90AF9008950E944A
:100E0000C705EBCF1F920F920FB60F9211242F93AD
:100E10003F938F939F93AF93BF938091F0019091F5
:100E2000F101A091F201B091F3013091EF0123E0C3
:100E3000230F2D3758F50196A11DB11D2093EF0109
:100E40008093F0019093F101A093F201B093F3012C
:100E50008091F4019091F501A091F601B091F70114
:100E60000196A11DB11D8093F4019093F501A0930B
:100E7000F601B093F701BF91AF919F918F913F9190
:100E80002F910F900FBE0F901F90189526E8230FFB
:100E90000296A11DB11DD2CF1F920F920FB60F92D5
:100EA00011242F933F934F935F936F937F938F936F
:100EB0009F93AF93BF93EF93FF9388EF91E00E94CE
:100EC0006002FF91EF91BF91AF919F918F917F91C0
:100ED0006F915F914F913F912F910F900FBE0F90A7
:100EE0001F9018951F920F920FB60F9211242F93F7
:100EF0008F939F93EF93FF93E0910802F091090283
:100F00008081E0910E02F0910F0282FD1BC0908162
:100F1000809111028F5F8F7320911202821741F02E
:100F2000E0911102F0E0E850FE4F958F809311029E
:100F3000FF91EF919F918F912F910F900FBE0F9086
:100F40001F9018958081F4CFCF93DF93E8EFF1E005
:100F50001382128288EE93E0A0E0B0E08483958350
:100F6000A683B7838AE091E09183808385EC90E04B
:100F70009587848784EC90E09787868780EC90E063
:100F8000918B808B81EC90E0938B828B82EC90E054
:100F9000958B848B86EC90E0978B868B118E128ECE
:100FA000138E148EC3EBD2E01B821A828CE191E087
:100FB000998388838DE08E838FEF8F839CE0988761
:100FC00089871A861B861C861D861E861F8688E0DA
:100FD000898B87E08A8B86E08B8B85E08C8B61E048
:100FE00088E00E940D0161E087E00E940D0161E050
:100FF00086E00E940D0161E085E00E940D011F8ADC
:1010000080E4888F84E1898F84E58A8F61E08E8116
:101010000E940D0161E08AE00E940D0160E08AE01B
:101020000E94B60061E088850E940D0181E00E9467
:1010300099048AE08F836DE971E08DEA92E00E9465
:10104000A5066DE971E087EA92E00E94A5066DE9C8
:1010500071E081EA92E00E94A5066DE971E08BE9FA
:1010600092E00E94A5066DE971E085E992E0DF91CA
:10107000CF910C94A506CF93DF93CDB7DEB76E97D3
:101080000FB6F894DEBF0FBECDBF789484B58260F2
:1010900084BD84B5816084BD85B5826085BD85B51C
:1010A000816085BD80916E00816080936E0010929A
:1010B0008100809181008260809381008091810015
:1010C00081608093810080918000816080938000A6
:1010D0008091B10084608093B1008091B000816004
:1010E0008093B00080917A00846080937A00809130
:1010F0007A00826080937A0080917A008160809388
:101100007A0080917A00806880937A001092C10002
:10111000E0910802F091090282E08083E0910402EC
:10112000F09105021082E0910602F091070280E141
:10113000808310921002E0910C02F0910D0286E083
:101140008083E0910A02F0910B02808180618083AC
:10115000E0910A02F0910B02808188608083E09127
:101160000A02F0910B02808180688083E0910A027C
:10117000F0910B0280818F7D808384E00E9499042E
:1011800082E00E94AF038091BA028F3F21F48BE48A
:101190009DE20197F1F71092BE028091BC028F3F51
:1011A00031F040E060E083EB92E00E94D60340E043
:1011B00060E083EB92E00E94D60386E491E00E9417
:1011C000120541E060E083EB92E00E94D60387E5E0
:1011D00091E00E94120568EE73E080E090E00E94CA
:1011E00063010E941F0590E1E92EF12C80E0C82EDA
:1011F00080E0D82E8091EE01882309F453C00E942C
:1012000095010091EA011091EB012091EC013091E0
:10121000ED01601B710B820B930B683873418105E4
:10122000910508F43FC08091E90181113BC00E9403
:10123000110441E060E083EB92E00E94D60362E398
:1012400070E080E090E00E94630188E691E00E94F7
:10125000120562E370E080E090E00E94630141E0EB
:1012600060E083EB92E00E94D60389E791E00E9460
:10127000120568EE73E080E090E00E9463010E9436
:101280001F051092EE016DE971E087EA92E00E947D
:101290007B066DE971E081EA92E00E947B0681E0C5
:1012A0008093E9010E9495010091E2011091E30110
:1012B0002091E4013091E5014B015C01801A910A13
:1012C000A20AB30A95018401083E134021053105A5
:1012D00008F400C16093E2017093E3018093E4019C
:1012E0009093E5018091AB029091AC02419708F494
:1012F00075C040E060E083EB92E00E94D60367EAAD
:1013000072E0CE0101960E949C06CE0101960E94D9
:101310003506BC01CE0149960E949C06CE0101967D
:101320000E94D9058D8D9E8D0091E6011091E701F7
:101330009801205F3F4F2817390708F0F7C0A80130
:10134000BE01675E7F4FCE0101960E94B606BE01C8
:101350006F5F7F4F83EB92E00E94A201CE01019666
:101360000E94D9058091E6019091E7010196909342
:10137000E7018093E6012D8D3E8D82179307A8F03B
:101380001092E7011092E60181E08093DA010E9459
:1013900095016056704F8F4F9F4F6093DB017093A4
:1013A000DC018093DD019093DE018091DA018823D6
:1013B00089F00E9495010091DB011091DC012091E0
:1013C000DD013091DE01601771078207930710F08D
:1013D0001092DA01CE0149960E94D9058091A502AA
:1013E0009091A602419708F475C041E060E083EB5C
:1013F00092E00E94D60361EA72E0CE0101960E945B
:101400009C06CE0101960E943506BC01CE0149968C
:101410000E949C06CE0101960E94D9058D8D9E8D5D
:101420000091E0011091E1019801205F3F4F2817E2
:10143000390708F0BBC0A801BE01675E7F4FCE012F
:1014400001960E94B606BE016F5F7F4F83EB92E06C
:101450000E94A201CE0101960E94D9058091E0016F
:101460009091E10101969093E1018093E0012D8D2F
:101470003E8D82179307A8F01092E1011092E001CF
:1014800081E08093DF010E9495016056704F8F4F7D
:101490009F4F6093DB017093DC018093DD0190939B
:1014A000DE018091DF01882389F00E94950100917F
:1014B000DB011091DC012091DD013091DE0160172C
:1014C00071078207930710F01092DF01CE01499651
:1014D0000E94D90588EF91E00E9440021816190673
:1014E0002CF48091EE01882309F4A0C088EF91E0EC
:1014F0000E944002181619060CF4E5C067EA72E073
:101500008BE992E00E94850661EA72E085E992E04B
:101510000E948506C114D10409F46CCE0E944C02CD
:10152000882309F467CE0E94000060CE801B910BD7
:101530009701281B390B50E040E067EA72E0CE01CA
:101540000D960E94B6062D8D3E8DA801BE01675EE8
:101550007F4FCE0101960E94B606BE016F5F7F4F9E
:10156000CE0107960E949C06BE01635F7F4FCE01AD
:1015700007960E944706BC01CE0143960E949C0636
:10158000CE0107960E94D905CE0101960E94D90589
:10159000CE010D960E94D905BE016D5E7F4F83EB93
:1015A00092E00E94A201CE014396DACE801B910BFD
:1015B0009701281B390B50E040E061EA72E0CE0150
:1015C0000D960E94B6062D8D3E8DA801BE01675E68
:1015D0007F4FCE0101960E94B606BE016F5F7F4F1E
:1015E000CE0107960E949C06BE01635F7F4FCE012D
:1015F00007960E944706BC01CE0143960E949C06B6
:10160000CE0107960E94D905CE0101960E94D90508
:10161000CE010D960E94D905BE016D5E7F4F83EB12
:1016200092E00E94A201CE01439616CF0E941104BF
:101630000E9495016093EA017093EB018093EC01A5
:101640009093ED011092E90111E01093EE016AE828
:1016500071E0CE010D960E94A50665E971E0CE010C
:1016600007960E94A506BE01695F7F4FCE010196D5
:101670000E949C06BE01635F7F4FCE0101960E94CF
:101680004706BC0188EF91E00E94A20142E050E0D1
:101690006BE971E088EF91E00E94B001CE01019604
:1016A0000E94D9051093E80166E470E080E090E0C4
:1016B0000E946301CE0107960E94D905CE010D96C6
:1016C0000E94D9051BCF8091EE01882309F416CF23
:1016D0000E9495016093EA017093EB018093EC0105
:1016E0009093ED011092E9016DE971E08DEA92E0CD
:1016F0000E947B066DE971E0CE0101960E94A5066D
:101700000E94000297FD0CC08F83188641E050E0D4
:10171000BE01695F7F4FCE0101960E940906F0CF9E
:10172000BE016F5F7F4F8DEA92E00E948E05CE0171
:1017300001960E94D90561E070E080E090E00E948F
:1017400063016EE971E0CE0101960E94A506CE010B
:1017500001960E94410510E0181619069CF461EAF2
:1017600071E0CE0107960E94A506CE0107960E9461
:10177000410511E0181619060CF010E0CE0107968D
:101780000E94D905CE0101960E94D905112309F4C2
:10179000B5CE8091E801882341F01092E8016DE90F
:1017A00071E08DEA92E00E947B066EE971E0CE0165
:1017B00007960E94A506CE0107960E9441059C014E
:1017C00050E040E06DEA72E0CE0101960E94B6065C
:1017D000BE016F5F7F4F87EA92E00E948E05CE01C7
:1017E00001960E94D905CE0107960E94D90561EAAB
:1017F00071E0CE0107960E94A506CE0107960E94D1
:1018000041058C016EE971E0CE010D960E94A5069E
:10181000CE010D960E944105AC014E5F5F4F9801CD
:101820006DEA72E0CE0101960E94B606BE016F5FBE
:101830007F4F81EA92E00E948E05CE0101960E94C0
:10184000D905CE010D960E94D905CE0107960E94BA
:10185000D9056BE972E087EA92E00E945D05882372
:1018600081F11092E7011092E60140E060E083EB25
:1018700092E00E94D60384EA91E00E94120540E0C3
:1018800060E083EB92E00E94D6038091AB029091DE
:10189000AC02409708F458C020E130E050E040E04E
:1018A00067EA72E0CE0101960E94B606BE016F5F44
:1018B0007F4F83EB92E00E94A201CE0101960E942D
:1018C000D90565E972E081EA92E00E945D05209108
:1018D000A5023091A6028823F1F1232B51F069EB88
:1018E00071E08091A1029091A2020E94210F892BA8
:1018F000A9F141E060E083EB92E00E94D60384EA24
:1019000091E00E94120541E060E083EB92E00E94CA
:10191000D6038091A5029091A602409708F44EC08C
:1019200020E130E050E040E061EA72E0CE01019653
:101930000E94B606BE016F5F7F4F83EB92E00E946C
:10194000A201CE010196BCCE67EA72E083EB92E081
:101950000E94A201B6CF232B09F4D0CD69EB71E030
:101960008091A1029091A2020E94210F892B09F07F
:10197000C5CD0E94110440E060E083EB92E00E943C
:10198000D60362E370E080E090E00E9463018BEC9C
:1019900091E00E94120562E370E080E090E00E9416
:1019A000630141E060E083EB92E00E94D60388E6A9
:1019B00091E00E9412050E941F05A0CD61EA72E02D
:1019C00083EB92E00E94A20199CD85E992E00E940A
:1019D000D9058BE992E00E94D90581EA92E00E9444
:1019E000D90587EA92E00E94D9058DEA92E00C942D
:1019F000D9052F923F924F925F926F927F928F9272
:101A00009F92AF92BF92CF92DF92EF92FF920F938D
:101A10001F93CF93DF93CDB7DEB7CA1BDB0B0FB697
:101A2000F894DEBF0FBECDBF09942A883988488854
:101A30005F846E847D848C849B84AA84B984C884EA
:101A4000DF80EE80FD800C811B81AA81B981CE0FE1
:101A5000D11D0FB6F894DEBF0FBECDBFED010895C6
:101A6000EE0FFF1F0590F491E02D09940F931F9343
:101A7000CF93DF938230910510F482E090E0E09103
:101A8000D202F091D30230E020E0B0E0A0E0309745
:101A900099F42115310509F44AC0281B390B24306B
:101AA0003105D8F58A819B816115710589F1FB01AA
:101AB00093838283FE0111C0408151810281138191
:101AC00048175907E0F04817590799F4109761F043
:101AD00012960C93129713961C933296CF01DF91B6
:101AE000CF911F910F9108950093D2021093D302CA
:101AF000F4CF2115310551F04217530738F0A901F1
:101B0000DB019A01BD01DF01F801C1CFEF01F9CF7F
:101B10009093D3028093D202CDCFFE01E20FF31F48
:101B2000819391932250310939832883D7CF209113
:101B3000D0023091D102232B41F420910201309147
:101B400003013093D1022093D00220910001309103
:101B500001012115310541F42DB73EB74091040133
:101B600050910501241B350BE091D002F091D10278
:101B7000E217F307A0F42E1B3F0B2817390778F064
:101B8000AC014E5F5F4F2417350748F04E0F5F1FC3
:101B90005093D1024093D002819391939FCFF0E074
:101BA000E0E09CCFCF93DF930097E9F0FC01329700
:101BB00013821282A091D202B091D302ED0130E0E3
:101BC00020E01097A1F420813181820F931F209192
:101BD000D0023091D1022817390709F061C0F09383
:101BE000D102E093D002DF91CF910895EA01CE17A0
:101BF000DF07E8F54A815B819E0141155105B1F788
:101C0000E901FB83EA8349915991C40FD51FEC1771
:101C1000FD0761F4808191810296840F951FE9018F
:101C200099838883828193819B838A83F0E0E0E0BB
:101C300012968D919C9113970097B9F52D913C9137
:101C40001197CD010296820F931F2091D0023091FF
:101C5000D1022817390739F6309751F51092D3027F
:101C60001092D202B093D102A093D002BCCFD38302
:101C7000C28340815181840F951FC817D90761F431
:101C80004E5F5F4F88819981480F591F5183408370
:101C90008A819B81938382832115310509F0B0CF1E
:101CA000F093D302E093D2029ECFFD01DC01C0CFBE
:101CB00013821282D7CFB0E0A0E0E1E6FEE00C9400
:101CC000FB0C8C01009751F4CB010E94360D8C0166
:101CD000C801CDB7DEB7E0E10C94170DFC01E60FAB
:101CE000F71F9C0122503109E217F30708F49DC049
:101CF000D901CD91DC911197C617D70798F0C5305F
:101D0000D10530F3CE0104978617970708F3C61B59
:101D1000D70B2297C193D1936D937C93CF010E94EF
:101D2000D20DD6CF5B01AC1ABD0A4C018C0E9D1EA4
:101D3000A091D202B091D302512C412CF12CE12C74
:101D4000109731F58091D0029091D10288159905B4
:101D500009F05CC04616570608F058C08091000193
:101D600090910101009741F48DB79EB74091040115
:101D700050910501841B950BE817F90708F055C031
:101D8000F093D102E093D002F90171836083A0CF78
:101D90008D919C91119712966C90129713967C904E
:101DA0001397A815B90559F56C0142E0C40ED11C72
:101DB000CA14DB0420F1AC014A195B09DA0112965E
:101DC000159780F06282738251834083D9016D93AD
:101DD0007C93E114F10471F0D7011396FC93EE9318
:101DE000129776CF22968C0F9D1FF90191838083E5
:101DF000F301EFCFF093D302E093D20269CF4816FC
:101E0000590608F42C017D01D3019ACFCB010E9421
:101E1000360D7C01009749F0AE01B8010E94180F01
:101E2000C8010E94D20D870153CF10E000E050CFCF
:101E3000FB01DC0102C001900D9241505040D8F7E7
:101E40000895FB01DC018D91019080190110D9F3F7
:101E5000990B0895FB01DC0101900D920020E1F740
:101E60000895FB0151915523A9F0BF01DC014D916B
:101E700045174111E1F759F4CD010190002049F0D7
:101E80004D9140154111C9F3FB014111EFCF81E0A4
:101E900090E00197089510E0C2E6D0E004C0FE0192
:101EA0000E94300D2196C336D107C9F7F894FFCFB1
:101EB0000000D4028000000000008202B001DD01B9
:101EC000CF024002EC01320200000000C504B00164
:101ED0000F05A10120436F6E6E6563742057697A08
:101EE0006172642000202054617020636F6E6E6503
:101EF000637420202000202046696B755379737429
:101F0000656D73202020002020204D757369634C7F
:101F100043442020202020002020446973636F6EFA
:101F20006E65637465642020002020204578636519
:101F30007074696F6E202020200020563A302E30B9
:101F40002E302E3400543A424353000D0A003E31E5
:101F5000003E320020202020202020202020202091
:101F6000202020202020202000442A495E532443A2
:101F7000294F254E2345254326540020202020208C
:0A1F80002020446973706C61790041
:00000001FF
