:100000000C9459000C9481000C9481000C94810094
:100010000C9481000C9481000C9481000C9481005C
:100020000C9481000C9481000C9481000C9481004C
:100030000C9481000C9481000C9481000C9481003C
:100040000C946F070C9481000C94DF070C94B90793
:100050000C9481000C9481000C9481000C9481001C
:100060000C9411080C948100000000002500280069
:100070002B00040404040404040402020202020229
:10008000030303030303010204081020408001025C
:1000900004081020010204081020000000080002DB
:1000A0000100000304070000000000000000300908
:1000B000250E11241FBECFEFD8E0DEBFCDBF23E059
:1000C000A4EFB1E001C01D92A33AB207E1F711E03D
:1000D000A0E0B1E0E0E3F1E202C005900D92A43FA0
:1000E000B107D9F710E0C8E5D0E004C02197FE01C0
:1000F0000E94700EC735D107C9F70E9495090C946C
:100100008B100C9400000895089590E0FC01E656D1
:10011000FF4F2491FC01EA57FF4F3491FC01EE5848
:10012000FF4FE491EE23C9F0222339F0233001F18F
:10013000A8F4213019F1223029F1F0E0EE0FFF1F71
:10014000E859FF4FA591B4918FB7F894EC916111E4
:1001500026C030953E233C938FBF08952730A9F0E9
:100160002830C9F0243049F7809180008F7D03C08A
:10017000809180008F7780938000DFCF84B58F7768
:1001800084BDDBCF84B58F7DFBCF8091B0008F77AE
:100190008093B000D2CF8091B0008F7DF9CF3E2BFD
:1001A000DACF3FB7F8948091C0029091C102A0913C
:1001B000C202B091C30226B5A89B05C02F3F19F01B
:1001C0000196A11DB11D3FBFBA2FA92F982F8827D7
:1001D000BC01CD01620F711D811D911D42E0660FB2
:1001E000771F881F991F4A95D1F708958F929F9284
:1001F000AF92BF92CF92DF92EF92FF924B015C01E0
:100200000E94D1006B017C010E94D1006C197D0914
:100210008E099F09683E734081059105A8F321E08E
:10022000821A9108A108B10888EEC80E83E0D81E92
:10023000E11CF11C81149104A104B10429F7FF9081
:10024000EF90DF90CF90BF90AF909F908F900895E8
:100250002FB7F8946091BC027091BD028091BE02EC
:100260009091BF022FBF08950895DB0114964D9120
:100270005C9115976D917C91DC01ED91FC91028070
:10028000F381E02D0994AF92BF92CF92DF92EF926B
:10029000FF920F931F93CF93DF936C017B018B0130
:1002A000040F151FEB015E01AE18BF08C017D10780
:1002B00059F06991D601ED91FC910190F081E02D0A
:1002C000C6010995892B79F7C501DF91CF911F915F
:1002D0000F91FF90EF90DF90CF90BF90AF90089577
:1002E000FC01538D448D252F30E0842F90E0821B3C
:1002F000930B541710F0CF96089501970895FC01C1
:10030000918D828D981761F0A28DAE0FBF2FB11D18
:100310005D968C91928D9F5F9F73928F90E0089570
:100320008FEF9FEF08950F931F930E942801609312
:10033000D4027093D5028093D6029093D7028CECAE
:1003400092E00E947F0197FF1DC00E94280100914A
:10035000D4021091D5022091D6023091D702601BB1
:10036000710B820B930B0091D0021091D10220915E
:10037000D2023091D3026017710782079307F8F217
:100380008FEF9FEF1F910F910895FC01918D828D4A
:10039000981731F0828DE80FF11D858D90E008955A
:1003A0008FEF9FEF0895FC01918D228D892F90E0B2
:1003B000805C9F4F821B91098F73992708958CEC65
:1003C00092E00E94D30121E0892B09F420E0822FE2
:1003D000089580E090E0892B29F00E94DF018111CF
:1003E0000C9400000895FC01A48DA80FB92FB11D35
:1003F000A35ABF4F2C91848D90E001968F7399275B
:10040000848FA689B7892C93A089B1898C91837038
:1004100080648C93938D848D981306C00288F38931
:10042000E02D80818F7D80830895EF92FF920F935E
:100430001F93CF93DF93EC0181E0888F9B8D8C8D90
:1004400098131AC0E889F989808185FF15C09FB784
:10045000F894EE89FF896083E889F9898081837047
:10046000806480839FBF81E090E0DF91CF911F91F6
:100470000F91FF90EF900895F62E0B8D10E00F5F17
:100480001F4F0F731127E02E8C8D8E110CC00FB6ED
:1004900007FCFACFE889F989808185FFF5CFCE0185
:1004A0000E94F301F1CFEB8DEC0FFD2FF11DE35A0C
:1004B000FF4FF0829FB7F8940B8FEA89FB89808108
:1004C0008062CFCFCF93DF93EC01888D8823B9F082
:1004D000AA89BB89E889F9898C9185FD03C080814F
:1004E00086FD0DC00FB607FCF7CF8C9185FFF2CFCC
:1004F000808185FFEDCFCE010E94F301E9CFDF912E
:10050000CF91089520915C02260F3327331F2132AB
:100510003105ECF420918002FC0190E080E0243071
:1005200069F082E00895A0915C022191AC01445CE5
:100530005D4FA40FB52FB11D2C930196861798F32C
:1005400080915C02680F60935C0280E0089581E016
:1005500008951092800281E08093820210928102BD
:1005600061E082E10E94850061E083E10E948500F4
:10057000E9EBF0E080818E7F808380818D7F8083B6
:1005800088E48093B80085E48093BC000895CF93FD
:10059000DF9391E090933B028823B9F0C091B800BB
:1005A000D091BA008091BC008A7B8093BC0060E04F
:1005B00082E10E94850060E083E10E9485000E9444
:1005C000A902D093BA00C093B800DF91CF910895EB
:1005D0000895E091CB028091CA02E81730F4F0E070
:1005E000EA5EFD4F808190E008958FEF9FEF0895C0
:1005F0009091CB028091CA022FEF3FEF981748F4F9
:10060000E92FF0E0EA5EFD4F208130E09F5F90939C
:10061000CB02C90108958091CA029091CB02891B37
:10062000990B0895CF92DF92EF92FF920F931F9351
:10063000CF93DF937C01CB018A0120911502222305
:1006400089F0EB016B01C40ED51ECC15DD0569F0F8
:100650006991D701ED91FC910190F081E02DC701E6
:100660000995F3CF642F0E948202C801DF91CF91D8
:100670001F910F91FF90EF90DF90CF900895CF934F
:10068000DF931F92CDB7DEB7698320911502222335
:10069000F9F02091C802203258F021E030E0FC014E
:1006A0003383228390E080E00F90DF91CF91089513
:1006B0008091C902E82FF0E0EB50FE4F99819083C2
:1006C0008F5F8093C9028093C80281E090E0ECCFF5
:1006D00061E0CE0101960E948202F7CFCF92DF92B5
:1006E000EF92FF920F931F93CF93DF93FC01C4818E
:1006F00021E020931502C093F4011092C9021092D8
:10070000C8028385682B89E693E00E943F03D0915D
:10071000C802D13208F092C00E94D1006B017C0166
:1007200080918002811165C082E08093800281E027
:10073000809382028FEF80937F021092A402D09365
:10074000A302A5EFB1E0E3E8F2E080E0D81385C0B2
:100750001092A5028091A502CC0FC82BC093A502D0
:1007600080918102813009F07CC0109281020E9448
:10077000D1006B017C018091A5028093BB00809128
:10078000370290913802A0913902B0913A02892B38
:100790008A2B8B2B99F00E94D10000913702109187
:1007A00038022091390230913A026C197D098E0984
:1007B0009F090617170728073907E0F18091BC0049
:1007C00083FDD9CF85EC8093BC000E94D1006B01E2
:1007D0007C0180918002823009F445C080917F02C3
:1007E0008F3F61F180917F02803241F180917F02E1
:1007F00025C08091370290913802A0913902B091C2
:100800003A02892B8A2B8B2B09F48ACF0E94D100C4
:1008100000913702109138022091390230913A024A
:100820006C197D098E099F090617170728073907D4
:1008300008F076CF809136020E94C7021092C9025A
:100840001092C80210921502DF91CF911F910F9163
:10085000FF90EF90DF90CF9008959D9191938F5FDF
:1008600075CF85EEB0CF8091370290913802A0917C
:100870003902B0913A02892B8A2B8B2B09F4A9CF2C
:100880000E94D10000913702109138022091390264
:1008900030913A026C197D098E099F0906171707D6
:1008A0002807390708F095CFC5CF90E080E008957C
:1008B0000F931F93CF938C01C62F0E946E036C2F52
:1008C0006460C8010E946E036C2F6B7FC8010E9498
:1008D0006E0383EC90E00197F1F7CF911F910F9198
:1008E00008950F931F93CF93DF938C01D62FC42FBE
:1008F000607F642B0E94580480E1D89FB0011124CE
:100900006C2BC801DF91CF911F910F910C9458046B
:10091000CF93DF93CDB7DEB728970FB6F894DEBF3D
:100920000FBECDBF98E0E6E0F1E0DE011196019048
:100930000D929A95E1F790919B03981708F48FEF29
:1009400090E0880F991F21E030E02C0F3D1F820FAF
:10095000931FFC016081606840E083E993E0289682
:100960000FB6F894DEBF0FBECDBFDF91CF910C94D0
:10097000710440E061E083E993E00E9471048BE33D
:100980009FE10197F1F70895CF93DF931092CB0287
:100990001092CA021092C9021092C8020E94A902C3
:1009A00083E890E09093C5028093C40284E890E0CD
:1009B0009093C7028093C6021092980380919D0382
:1009C000823018F098E09093980380939B0362E341
:1009D00070E080E090E00E94F60060919E0383E961
:1009E00093E00E946E0368EE73E080E090E00E9466
:1009F000F60060E383E993E00E945804CBE4D6E478
:100A0000CE010197F1F760E383E993E00E94580477
:100A10002197F1F760E383E993E00E94580483E5AE
:100A200092E00197F1F760E283E993E00E945804B5
:100A300060919803606240E083E993E00E94710452
:100A400084E08093990340E06CE083E993E00E94A6
:100A500071040E94B90482E080939A0340E066E04A
:100A600083E993E00E94710440E062E083E993E04F
:100A70000E9471048BE39FE10197F1F7DF91CF9121
:100A8000089541E00E94710481E090E00895FC0126
:100A900001900020E9F73197AF01481B590BBC01C9
:100AA00083E993E00C9443010E94B9048EE391E042
:100AB0000E94470564E670E080E090E00E94F60046
:100AC00080E00E94880464E670E080E090E00E948C
:100AD000F60081E00E94880464E670E080E090E027
:100AE0000E94F6008FE491E00C944705CF93DF93CA
:100AF0002091910330919203232B89F0FC01C09146
:100B00008D03D0918E0360817181CE010E9471109E
:100B1000009729F08C1B9D0BDF91CF9108958FEFEB
:100B20009FEFFACFFC0124813581FB01448155817F
:100B300024173507E1F4FC0180819181FB0160817C
:100B400071810097D9F061157105A9F4232BC9F0C3
:100B5000FC01808190E008C0232B99F0FB0180818B
:100B600090E091958195910921E0892B09F020E091
:100B700081E0822708950E946110F6CF611571050A
:100B800059F721E0F5CF0F931F93CF93DF938C019B
:100B9000EB01FC01808191810097E1F0688179810E
:100BA00061157105A9F0428153812C813D81421765
:100BB000530770F00E946A108C819D81F801958323
:100BC00084831D821C82DF91CF911F910F91089524
:100BD0000E94120F88819981F801918380838A8114
:100BE0009B81938382838C819D81958384831982E9
:100BF00018821B821A82E5CFCF93DF93EC018881A4
:100C00009981009711F00E94120F198218821D829B
:100C10001C821B821A82DF91CF910895FC01808192
:100C20009181009711F00C94120F08950F931F9368
:100C3000CF93DF93EC0188819981009759F02A8145
:100C40003B812617370730F081E0DF91CF911F916C
:100C50000F9108958B016F5F7F4F0E949B0F00974C
:100C600059F0998388831B830A832C813D81232B30
:100C700059F7FC011082E8CF80E0E7CFEF92FF92B6
:100C80000F931F93CF93DF936115710541F480E0BB
:100C9000DF91CF911F910F91FF90EF900895411533
:100CA0005105B1F07B01EC010C811D81040F151F72
:100CB000B8010E941606882351F3288139818C815E
:100CC0009D81B701820F931F0E946A101D830C83C0
:100CD00081E0DECFCF93DF93EC0144E050E06EEC97
:100CE00071E00E943E06811103C0CE010E94FC0506
:100CF000CE01DF91CF910895CF93DF93EC01FB01FB
:100D000044815581608171810E943E06811103C03A
:100D1000CE010E94FC05CE01DF91CF910895EF92A4
:100D2000FF920F931F93CF93DF93EC017B018A0116
:100D3000BA010E94160681110BC0CE010E94FC056B
:100D4000CE01DF91CF911F910F91FF90EF90089509
:100D50001D830C83B701888199810E946A10F0CFAE
:100D6000FB0101900020E9F73197AF01461B570BBB
:100D70000C948F06CF93DF93EC01FB018617970746
:100D800049F0608171816115710541F0448155819F
:100D90000E948F06CE01DF91CF9108950E94FC053D
:100DA000F9CFFC0111821082138212821582148203
:100DB0000C94BA06FC0111821082138212821582F1
:100DC0001482FB0101900020E9F73197AF01461B27
:100DD000570B0C948F06AF92BF92CF92DF92EF9297
:100DE000FF920F931F93CF93DF936C015B017A0106
:100DF00089012417350720F48F2D7901042F182F2E
:100E000067EB71E0C6010E94DA06D5011496CD9118
:100E1000DC91EC16FD06E0F40C171D0708F4E80160
:100E2000D501ED91FC911197EC0FFD1F10811082FF
:100E30006D917C916E0D7F1DC60161157105A1F04C
:100E40000E94B006F50180819181C80FD91F1883D7
:100E5000C601DF91CF911F910F91FF90EF90DF902E
:100E6000CF90BF90AF9008950E94FC05EBCF85ED29
:100E70008093BC008091370290913802A091390292
:100E8000B0913A020796A11DB11D23E0B695A79532
:100E9000979587952A95D1F72091BC0024FD03C032
:100EA000109280020895409137025091380260916B
:100EB000390270913A02452B462B472B69F3009774
:100EC000A105B10541F02AE22A95F1F700C001978A
:100ED000A109B109E1CF809136020C94C7021F929B
:100EE0000F920FB60F9211242F933F938F939F93DE
:100EF000AF93BF938091BC029091BD02A091BE02BE
:100F0000B091BF023091BB0223E0230F2D3758F57B
:100F10000196A11DB11D2093BB028093BC0290934A
:100F2000BD02A093BE02B093BF028091C002909117
:100F3000C102A091C202B091C3020196A11DB11DD0
:100F40008093C0029093C102A093C202B093C302E7
:100F5000BF91AF919F918F913F912F910F900FBEB5
:100F60000F901F90189526E8230F0296A11DB11D22
:100F7000D2CF1F920F920FB60F9211242F933F934F
:100F80004F935F936F937F938F939F93AF93BF9391
:100F9000EF93FF938CEC92E00E94F301FF91EF91AD
:100FA000BF91AF919F918F917F916F915F914F9181
:100FB0003F912F910F900FBE0F901F9018951F9289
:100FC0000F920FB60F9211242F938F939F93EF934D
:100FD000FF93E091DC02F091DD028081E091E2027A
:100FE000F091E30282FD1BC090818091E5028F5F4A
:100FF0008F732091E602821741F0E091E502F0E064
:10100000E453FD4F958F8093E502FF91EF919F91FF
:101010008F912F910F900FBE0F901F901895808188
:10102000F4CF1F920F920FB60F9211242F933F937C
:101030004F935F936F937F938F939F93AF93BF93E0
:10104000EF93FF938091B900887F803609F44AC0FE
:10105000F0F5883209F4A7C018F5803109F49BC077
:10106000B8F4882309F4F9C0883009F494C0FF91DA
:10107000EF91BF91AF919F918F917F916F915F9110
:101080004F913F912F910F900FBE0F901F90189589
:10109000883109F488C0803251F780937F0214C0F0
:1010A000803409F49DC040F48033B9F38833F9F6F5
:1010B00080937F0285ECB0C0803509F485C0883507
:1010C00009F496C0883499F60E943707D0CF883942
:1010D00009F48CC038F5883729F050F4883611F0BF
:1010E000803729F683E08093800210927E0257C0F9
:1010F000883809F47BC0803919F0803809F0B7CFFF
:1011000080917E02803208F071C0E0917E0281E021
:101110008E0F80937E028091BB00F0E0E25AFD4F7B
:1011200080833DC0803B39F0E0F4803A09F479C017
:10113000883A09F09CCF84E08093800210925D028F
:1011400010925C02E091C402F091C5020995809171
:101150005C0281110FC081E080935C0210923C021E
:1011600009C0803C09F4A6CF883C09F4A3CF883B92
:1011700009F07DCFE0915D0281E08E0F80935D02EA
:10118000F0E0E45CFD4F80818093BB0090915D02B4
:1011900080915C0229C08091A5028093BB0085EC00
:1011A0008093BC0064CF9091A4028091A302981711
:1011B00058F5E091A40281E08E0F8093A402F0E044
:1011C000ED57FD4F8081E9CFE091A40281E08E0FC1
:1011D0008093A4028091BB00F0E0ED57FD4F808327
:1011E0009091A4028091A3029817C8F285E8D8CF05
:1011F000E091A40281E08E0F8093A4028091BB0055
:10120000F0E0ED57FD4F80838091820281115CCF29
:1012100081E08093810284EA8093BC001092800276
:1012200026CF85EC8093BC001092800280917E02D4
:10123000803230F4E0917E02F0E0E25AFD4F1082FD
:1012400060917E0270E0E091C602F091C7028EE5E7
:1012500092E0099510927E020ACF10927F0234CF5D
:10126000ECECF2E01382128288EE93E0A0E0B0E0B2
:1012700084839583A683B78322E131E03183208381
:1012800025EC30E03587248724EC30E0378726874B
:1012900020EC30E0318B208B21EC30E0338B228B43
:1012A00022EC30E0358B248B26EC30E0378B268B1C
:1012B000118E128E138E148EE9E6F3E013821282E1
:1012C00084839583A683B78384E291E091838083AE
:1012D000E3E9F3E01382128286E391E09183808355
:1012E00087E2848384E1818784E08287138667EBC9
:1012F00071E08DE893E00E94DA0667EB71E087E821
:1013000093E00E94DA0667EB71E081E893E00E94C7
:10131000DA0667EB71E08BE793E00E94DA0667EB91
:1013200071E085E793E00C94DA06CF93DF93CDB7B5
:10133000DEB76E970FB6F894DEBF0FBECDBF7894C0
:1013400084B5826084BD84B5816084BD85B58260CA
:1013500085BD85B5816085BD80916E00816080937B
:101360006E001092810080918100826080938100E4
:1013700080918100816080938100809180008160F4
:10138000809380008091B10084608093B10080914F
:10139000B00081608093B00080917A008460809377
:1013A0007A0080917A00826080937A0080917A003E
:1013B000816080937A0080917A00806880937A00BF
:1013C0001092C100E091DC02F091DD0282E08083A6
:1013D000E091D802F091D9021082E091DA02F09106
:1013E000DB0280E180831092E402E091E002F09160
:1013F000E10286E08083E091DE02F091DF028081ED
:1014000080618083E091DE02F091DF02808188605C
:101410008083E091DE02F091DF028081806880832A
:10142000E091DE02F091DF0280818F7D80830E9457
:10143000C4040E94C4041092CB021092CA021092FB
:10144000C9021092C8020E94A90283E890E090931A
:10145000C5028093C40284E890E09093C702809311
:10146000C6028CE08093B80088E080939E0360E021
:1014700083E993E00E946E0380E00E94880480E686
:1014800091E00E94470581E00E94880481E791E095
:101490000E94470568EE73E080E090E00E94F6004D
:1014A0000E94540590E1E92EF12C80E0C82E80E0E6
:1014B000D82E8091BA02882309F44CC00E942801DA
:1014C0000091B6021091B7022091B8023091B90292
:1014D000601B710B820B930B68387341810591057A
:1014E000C8F18091B502811135C00E94B90481E034
:1014F0000E94880462E370E080E090E00E94F600C1
:1015000082E891E00E94470562E370E080E090E0AD
:101510000E94F60081E00E94880483E991E00E9425
:10152000470568EE73E080E090E00E94F6000E94BC
:1015300054051092BA0267EB71E087E893E00E94CD
:10154000B00667EB71E081E893E00E94B00681E0AD
:101550008093B5020E9428010091AE021091AF0263
:101560002091B0023091B1024B015C01801A910AC6
:10157000A20AB30A95018401083E134021053105F2
:1015800008F4FAC06093AE027093AF028093B00289
:101590009093B10280918B0390918C03419708F452
:1015A00072C080E00E94880467E873E0CE01019673
:1015B0000E94D106CE0101960E946A06BC01CE01AE
:1015C00049960E94D106CE0101960E940E068D8D8D
:1015D0009E8D0091B2021091B3029801205F3F4F9F
:1015E0002817390708F0F4C0A801BE01675E7F4FD5
:1015F000CE0101960E94EB06BE016F5F7F4F83E92B
:1016000093E00E943501CE0101960E940E06809162
:10161000B2029091B30201969093B3028093B2020A
:101620002D8D3E8D82179307A8F01092B302109271
:10163000B20281E08093A6020E9428016056704F9A
:101640008F4F9F4F6093A7027093A8028093A902C7
:101650009093AA028091A602882389F00E94280113
:101660000091A7021091A8022091A9023091AA022C
:10167000601771078207930710F01092A602CE013F
:1016800049960E940E0680918503909186034197AA
:1016900008F472C081E00E94880461E873E0CE0122
:1016A00001960E94D106CE0101960E946A06BC01F5
:1016B000CE0149960E94D106CE0101960E940E06E7
:1016C0008D8D9E8D0091AC021091AD029801205F2E
:1016D0003F4F2817390708F0BBC0A801BE01675E5D
:1016E0007F4FCE0101960E94EB06BE016F5F7F4FD8
:1016F00083E993E00E943501CE0101960E940E0617
:101700008091AC029091AD0201969093AD028093CE
:10171000AC022D8D3E8D82179307A8F01092AD027A
:101720001092AC0281E08093AB020E9428016056C7
:10173000704F8F4F9F4F6093A7027093A8028093C2
:10174000A9029093AA028091AB02882389F00E949B
:1017500028010091A7021091A8022091A9023091BE
:10176000AA02601771078207930710F01092AB026C
:10177000CE0149960E940E068CEC92E00E94D301A5
:10178000181619062CF48091BA02882309F4A0C017
:101790008CEC92E00E94D301181619060CF4E5C0F7
:1017A00067E873E08BE793E00E94BA0661E873E0B4
:1017B00085E793E00E94BA06C114D10409F479CEFA
:1017C0000E94DF01882309F474CE0E9400006DCED0
:1017D000801B910B9701281B390B50E040E067E814
:1017E00073E0CE010D960E94EB062D8D3E8DA80173
:1017F000BE01675E7F4FCE0101960E94EB06BE01DF
:101800006F5F7F4FCE0107960E94D106BE01635FD6
:101810007F4FCE0107960E947C06BC01CE01439605
:101820000E94D106CE0107960E940E06CE010196B7
:101830000E940E06CE010D960E940E06BE016D5E40
:101840007F4F83E993E00E943501CE014396DDCEC0
:10185000801B910B9701281B390B50E040E061E899
:1018600073E0CE010D960E94EB062D8D3E8DA801F2
:10187000BE01675E7F4FCE0101960E94EB06BE015E
:101880006F5F7F4FCE0107960E94D106BE01635F56
:101890007F4FCE0107960E947C06BC01CE01439685
:1018A0000E94D106CE0107960E940E06CE01019637
:1018B0000E940E06CE010D960E940E06BE016D5EC0
:1018C0007F4F83E993E00E943501CE01439616CF06
:1018D0000E94B9040E9428016093B6027093B70277
:1018E0008093B8029093B9021092B50211E0109360
:1018F000BA0264EA71E0CE010D960E94DA066FEA40
:1019000071E0CE0107960E94DA06BE01695F7F4F43
:10191000CE0101960E94D106BE01635F7F4FCE01CA
:1019200001960E947C06BC018CEC92E00E9435017D
:1019300042E050E065EB71E08CEC92E00E944301E4
:10194000CE0101960E940E061093B40266E470E088
:1019500080E090E00E94F600CE0107960E940E06FD
:10196000CE010D960E940E061BCF8091BA028823ED
:1019700009F416CF0E9428016093B6027093B70253
:101980008093B8029093B9021092B50267EB71E0B0
:101990008DE893E00E94B00667EB71E0CE010196FE
:1019A0000E94DA060E94930197FD0CC08F8318866F
:1019B00041E050E0BE01695F7F4FCE0101960E9479
:1019C0003E06F0CFBE016F5F7F4F8DE893E00E942F
:1019D000C305CE0101960E940E0661E070E080E032
:1019E00090E00E94F60068EB71E0CE0101960E9443
:1019F000DA06CE0101960E94760510E01816190647
:101A00009CF46BEB71E0CE0107960E94DA06CE01E2
:101A100007960E94760511E0181619060CF010E0E2
:101A2000CE0107960E940E06CE0101960E940E0678
:101A3000112309F4B5CE8091B402882341F01092AD
:101A4000B40267EB71E08DE893E00E94B00668EBAA
:101A500071E0CE0107960E94DA06CE0107960E9439
:101A600076059C0150E040E06DE873E0CE01019600
:101A70000E94EB06BE016F5F7F4F87E893E00E94F4
:101A8000C305CE0101960E940E06CE0107960E9464
:101A90000E066BEB71E0CE0107960E94DA06CE01CE
:101AA00007960E9476058C0168EB71E0CE010D96D9
:101AB0000E94DA06CE010D960E947605AC014E5FBB
:101AC0005F4F98016DE873E0CE0101960E94EB062E
:101AD000BE016F5F7F4F81E893E00E94C305CE0196
:101AE00001960E940E06CE010D960E940E06CE01B2
:101AF00007960E940E066BE773E087E893E00E946A
:101B00009205882351F11092B3021092B20280E044
:101B10000E9488048EEB91E00E94470580E00E94BD
:101B2000880480918B0390918C03409708F452C0F5
:101B300020E130E050E040E067E873E0CE0101963C
:101B40000E94EB06BE016F5F7F4F83E993E00E9426
:101B50003501CE0101960E940E0665E773E081E82B
:101B600093E00E949205209185033091860388239B
:101B7000C1F1232B51F063ED71E0809181039091CD
:101B800082030E946110892B79F181E00E94880410
:101B90008EEB91E00E94470581E00E9488048091CD
:101BA000850390918603409708F448C020E130E017
:101BB00050E040E061E873E0CE0101960E94EB0640
:101BC000BE016F5F7F4F83E993E00E943501CE0134
:101BD0000196C8CE67E873E083E993E00E9435017F
:101BE000BCCF232B09F4DCCD63ED71E08091810340
:101BF000909182030E946110892B09F0D1CD0E943F
:101C0000B90480E00E94880462E370E080E090E024
:101C10000E94F60085EE91E00E94470562E370E0C5
:101C200080E090E00E94F60081E00E94880482E853
:101C300091E00E9447050E945405B2CD61E873E02F
:101C400083E993E00E943501ABCD85E793E00E94E4
:101C50000E068BE793E00E940E0681E893E00E9457
:101C60000E0687E893E00E940E068DE893E00C9440
:101C70000E062F923F924F925F926F927F928F92B9
:101C80009F92AF92BF92CF92DF92EF92FF920F930B
:101C90001F93CF93DF93CDB7DEB7CA1BDB0B0FB615
:101CA000F894DEBF0FBECDBF09942A8839884888D2
:101CB0005F846E847D848C849B84AA84B984C88468
:101CC000DF80EE80FD800C811B81AA81B981CE0F5F
:101CD000D11D0FB6F894DEBF0FBECDBFED01089544
:101CE000EE0FFF1F0590F491E02D09940F931F93C1
:101CF000CF93DF938230910510F482E090E0E09181
:101D0000A103F091A20330E020E0B0E0A0E0309722
:101D100099F42115310509F44AC0281B390B2430E8
:101D20003105D8F58A819B816115710589F1FB0127
:101D300093838283FE0111C040815181028113810E
:101D400048175907E0F04817590799F4109761F0C0
:101D500012960C93129713961C933296CF01DF9133
:101D6000CF911F910F9108950093A1031093A203A7
:101D7000F4CF2115310551F04217530738F0A9016E
:101D8000DB019A01BD01DF01F801C1CFEF01F9CFFD
:101D90009093A2038093A103CDCFFE01E20FF31F26
:101DA000819391932250310939832883D7CF209191
:101DB0009F033091A003232B41F420910201309125
:101DC00003013093A00320939F03209100013091E1
:101DD00001012115310541F42DB73EB740910401B1
:101DE00050910501241B350BE0919F03F091A00356
:101DF000E217F307A0F42E1B3F0B2817390778F0E2
:101E0000AC014E5F5F4F2417350748F04E0F5F1F40
:101E10005093A00340939F03819391939FCFF0E051
:101E2000E0E09CCFCF93DF930097E9F0FC0132977D
:101E300013821282A091A103B091A203ED0130E0C0
:101E400020E01097A1F420813181820F931F20910F
:101E50009F033091A0032817390709F061C0F09360
:101E6000A003E0939F03DF91CF910895EA01CE177D
:101E7000DF07E8F54A815B819E0141155105B1F705
:101E8000E901FB83EA8349915991C40FD51FEC17EF
:101E9000FD0761F4808191810296840F951FE9010D
:101EA00099838883828193819B838A83F0E0E0E039
:101EB00012968D919C9113970097B9F52D913C91B5
:101EC0001197CD010296820F931F20919F033091AD
:101ED000A0032817390739F6309751F51092A2035D
:101EE0001092A103B093A003A0939F03BCCFD38310
:101EF000C28340815181840F951FC817D90761F4AF
:101F00004E5F5F4F88819981480F591F51834083ED
:101F10008A819B81938382832115310509F0B0CF9B
:101F2000F093A203E093A1039ECFFD01DC01C0CF9B
:101F300013821282D7CFB0E0A0E0E1EAFFE00C9478
:101F40003B0E8C01009751F4CB010E94760E8C0160
:101F5000C801CDB7DEB7E0E10C94570EFC01E60FE7
:101F6000F71F9C0122503109E217F30708F49DC0C6
:101F7000D901CD91DC911197C617D70798F0C530DC
:101F8000D10530F3CE0104978617970708F3C61BD7
:101F9000D70B2297C193D1936D937C93CF010E946D
:101FA000120FD6CF5B01AC1ABD0A4C018C0E9D1EE0
:101FB000A091A103B091A203512C412CF12CE12C52
:101FC000109731F580919F039091A0038815990592
:101FD00009F05CC04616570608F058C08091000111
:101FE00090910101009741F48DB79EB74091040193
:101FF00050910501841B950BE817F90708F055C0AF
:10200000F093A003E0939F03F90171836083A0CF55
:102010008D919C91119712966C90129713967C90CB
:102020001397A815B90559F56C0142E0C40ED11CEF
:10203000CA14DB0420F1AC014A195B09DA011296DB
:10204000159780F06282738251834083D9016D932A
:102050007C93E114F10471F0D7011396FC93EE9395
:10206000129776CF22968C0F9D1FF9019183808362
:10207000F301EFCFF093A203E093A10369CF4816D9
:10208000590608F42C017D01D3019ACFCB010E949F
:10209000760E7C01009749F0AE01B8010E945810FD
:1020A000C8010E94120F870153CF10E000E050CF0B
:1020B000FB01DC0102C001900D9241505040D8F765
:1020C0000895FB01DC018D91019080190110D9F375
:1020D000990B0895FB01DC0101900D920020E1F7BE
:1020E0000895FB0151915523A9F0BF01DC014D91E9
:1020F00045174111E1F759F4CD010190002049F055
:102100004D9140154111C9F3FB014111EFCF81E021
:1021100090E00197089510E0C8E5D0E004C0FE010A
:102120000E94700E2196C935D107C9F7F894FFCFE8
:102130000000A303800000004000140054000000D1
:1021400000001502430170016202D3017F01C50145
:10215000000000003F0312035504E8020B03F802DD
:10216000E902000000004105430155043401204309
:102170006F6E6E6563742057697A61726420002007
:102180002054617020636F6E6E65637420202000A0
:10219000202046696B7553797374656D7320202018
:1021A000002020204D757369634C4344202020207B
:1021B00020002020446973636F6E6E6563746564EC
:1021C000202000202020457863657074696F6E20A0
:1021D0002020200020563A302E302E302E3400544D
:1021E0003A424353000D0A003E31003E32002020A7
:1021F00020202020202020202020202020202020DF
:10220000202000442A495E532443294F254E23456C
:10221000254326540020202020202020446973706C
:042220006C61790074
:00000001FF
