:100000000C9459000C9481000C9481000C94810094
:100010000C9481000C9481000C9481000C9481005C
:100020000C9481000C9481000C9481000C9481004C
:100030000C9481000C9481000C9481000C9481003C
:100040000C948B070C9481000C94FB070C94D5073F
:100050000C9481000C9481000C9481000C9481001C
:100060000C942D080C94810000000000250028004D
:100070002B00040404040404040402020202020229
:10008000030303030303010204081020408001025C
:1000900004081020010204081020000000080002DB
:1000A00001000003040700000000000000004C09EC
:1000B000930E11241FBECFEFD8E0DEBFCDBF23E0EB
:1000C000ACE4B2E001C01D92AB3FB207E1F712E031
:1000D000A0E0B1E0ECE0F2E202C005900D92AC3499
:1000E000B107D9F710E0C8E5D0E004C02197FE01C0
:1000F0000E94DE0EC735D107C9F70E94B1090C94E2
:10010000F9100C9400000895089590E0FC01E65663
:10011000FF4F2491FC01EA57FF4F3491FC01EE5848
:10012000FF4FE491EE23C9F0222339F0233001F18F
:10013000A8F4213019F1223029F1F0E0EE0FFF1F71
:10014000E859FF4FA591B4918FB7F894EC916111E4
:1001500026C030953E233C938FBF08952730A9F0E9
:100160002830C9F0243049F7809180008F7D03C08A
:10017000809180008F7780938000DFCF84B58F7768
:1001800084BDDBCF84B58F7DFBCF8091B0008F77AE
:100190008093B000D2CF8091B0008F7DF9CF3E2BFD
:1001A000DACF3FB7F8948091180390911903A0918A
:1001B0001A03B0911B0326B5A89B05C02F3F19F069
:1001C0000196A11DB11D3FBFBA2FA92F982F8827D7
:1001D000BC01CD01620F711D811D911D42E0660FB2
:1001E000771F881F991F4A95D1F708958F929F9284
:1001F000AF92BF92CF92DF92EF92FF924B015C01E0
:100200000E94D1006B017C010E94D1006C197D0914
:100210008E099F09683E734081059105A8F321E08E
:10022000821A9108A108B10888EEC80E83E0D81E92
:10023000E11CF11C81149104A104B10429F7FF9081
:10024000EF90DF90CF90BF90AF909F908F900895E8
:100250002FB7F894609114037091150380911603E1
:10026000909117032FBF08950895DB0114964D91C7
:100270005C9115976D917C91DC01ED91FC91028070
:10028000F381E02D0994AF92BF92CF92DF92EF926B
:10029000FF920F931F93CF93DF936C017B018B0130
:1002A000040F151FEB015E01AE18BF08C017D10780
:1002B00059F06991D601ED91FC910190F081E02D0A
:1002C000C6010995892B79F7C501DF91CF911F915F
:1002D0000F91FF90EF90DF90CF90BF90AF90089577
:1002E000FC01538D448D252F30E0842F90E0821B3C
:1002F000930B541710F0CF96089501970895FC01C1
:10030000918D828D981761F0A28DAE0FBF2FB11D18
:100310005D968C91928D9F5F9F73928F90E0089570
:100320008FEF9FEF08950F931F930E942801609312
:100330002C0370932D0380932E0390932F0384E25C
:1003400093E00E947F0197FF1DC00E942801009149
:100350002C0310912D0320912E0330912F03601B4D
:10036000710B820B930B00912803109129032091AC
:100370002A0330912B036017710782079307F8F265
:100380008FEF9FEF1F910F910895FC01918D828D4A
:10039000981731F0828DE80FF11D858D90E008955A
:1003A0008FEF9FEF0895FC01918D228D892F90E0B2
:1003B000805C9F4F821B91098F739927089584E277
:1003C00093E00E94D30121E0892B09F420E0822FE1
:1003D000089580E090E0892B29F00E94DF018111CF
:1003E0000C9400000895FC01A48DA80FB92FB11D35
:1003F000A35ABF4F2C91848D90E001968F7399275B
:10040000848FA689B7892C93A089B1898C91837038
:1004100080648C93938D848D981306C00288F38931
:10042000E02D80818F7D80830895EF92FF920F935E
:100430001F93CF93DF93EC0181E0888F9B8D8C8D90
:1004400098131AC0E889F989808185FF15C09FB784
:10045000F894EE89FF896083E889F9898081837047
:10046000806480839FBF81E090E0DF91CF911F91F6
:100470000F91FF90EF900895F62E0B8D10E00F5F17
:100480001F4F0F731127E02E8C8D8E110CC00FB6ED
:1004900007FCFACFE889F989808185FFF5CFCE0185
:1004A0000E94F301F1CFEB8DEC0FFD2FF11DE35A0C
:1004B000FF4FF0829FB7F8940B8FEA89FB89808108
:1004C0008062CFCFCF93DF93EC01888D8823B9F082
:1004D000AA89BB89E889F9898C9185FD03C080814F
:1004E00086FD0DC00FB607FCF7CF8C9185FFF2CFCC
:1004F000808185FFEDCFCE010E94F301E9CFDF912E
:10050000CF9108952091B402260F3327331F213253
:100510003105ECF42091D802FC0190E080E0243019
:1005200069F082E00895A091B4022191AC014C568B
:100530005D4FA40FB52FB11D2C930196861798F32C
:100540008091B402680F6093B40280E0089581E066
:1005500008951092D80281E08093DA021092D902B5
:1005600061E082E10E94850061E083E10E948500F4
:10057000E9EBF0E080818E7F808380818D7F8083B6
:1005800088E48093B80085E48093BC000895CF93FD
:10059000DF9391E0909393028823B9F0C091B80063
:1005A000D091BA008091BC008A7B8093BC0060E04F
:1005B00082E10E94850060E083E10E9485000E9444
:1005C000A902D093BA00C093B800DF91CF910895EB
:1005D0000895E091230380912203E81730F4F0E0BE
:1005E000E259FD4F808190E008958FEF9FEF0895CD
:1005F00090912303809122032FEF3FEF981748F447
:10060000E92FF0E0E259FD4F208130E09F5F9093A9
:100610002303C90108958091220390912303891B2C
:10062000990B0895CF92DF92EF92FF920F931F9351
:10063000CF93DF937C01CB018A0120916D022223AD
:1006400089F0EB016B01C40ED51ECC15DD0569F0F8
:100650006991D701ED91FC910190F081E02DC701E6
:100660000995F3CF642F0E948202C801DF91CF91D8
:100670001F910F91FF90EF90DF90CF900895CF934F
:10068000DF931F92CDB7DEB7698320916D022223DD
:10069000F9F020912003203258F021E030E0FC01F5
:1006A0003383228390E080E00F90DF91CF91089513
:1006B00080912103E82FF0E0E35BFD4F9981908367
:1006C0008F5F809321038093200381E090E0ECCF43
:1006D00061E0CE0101960E948202F7CFCF92DF92B5
:1006E000EF92FF920F931F93CF93DF93FC01C4818E
:1006F00021E020936D02C0934C02109221031092CE
:1007000020038385682B81EC93E00E943F03D09106
:100710002003D13208F092C00E94D1006B017C010D
:100720008091D802811165C082E08093D80281E077
:100730008093DA028FEF8093D7021092FC02D0935D
:10074000FB02ADE4B2E0EBEDF2E080E0D81385C04F
:100750001092FD028091FD02CC0FC82BC093FD02C8
:100760008091D902813009F07CC01092D9020E9498
:10077000D1006B017C018091FD028093BB008091D0
:100780008F0290919002A0919102B0919202892BD8
:100790008A2B8B2B99F00E94D10000918F0210912F
:1007A000900220919102309192026C197D098E097C
:1007B0009F090617170728073907E0F18091BC0049
:1007C00083FDD9CF85EC8093BC000E94D1006B01E2
:1007D0007C018091D802823009F445C08091D70213
:1007E0008F3F61F18091D702803241F18091D70231
:1007F00025C080918F0290919002A0919102B091BA
:100800009202892B8A2B8B2B09F48ACF0E94D1006C
:1008100000918F02109190022091910230919202EA
:100820006C197D098E099F090617170728073907D4
:1008300008F076CF80918E020E94C70210922103A9
:100840001092200310926D02DF91CF911F910F91B2
:10085000FF90EF90DF90CF9008959D9191938F5FDF
:1008600075CF85EEB0CF80918F0290919002A091CC
:100870009102B0919202892B8A2B8B2B09F4A9CF7C
:100880000E94D10000918F0210919002209191025C
:10089000309192026C197D098E099F09061717077E
:1008A0002807390708F095CFC5CF90E080E008957C
:1008B0000F931F93CF938C01C62F0E946E036C2F52
:1008C0006460C8010E946E036C2F6B7FC8010E9498
:1008D0006E0383EC90E00197F1F7CF911F910F9198
:1008E00008950F931F93CF93DF938C01D62FC42FBE
:1008F000607F642B0E94580480E1D89FB0011124CE
:100900006C2BC801DF91CF911F910F910C9458046B
:10091000CF93DF93CDB7DEB728970FB6F894DEBF3D
:100920000FBECDBF98E0E6E0F1E0DE011196019048
:100930000D929A95E1F79091F303981710F48FEFC9
:10094000890F90E0880F991F21E030E02C0F3D1FA8
:10095000820F931FFC016081606840E08BEE93E0A2
:1009600028960FB6F894DEBF0FBECDBFDF91CF91B2
:100970000C94710440E061E08BEE93E00E947104FE
:100980008BE39FE10197F1F70895CF93DF931092E6
:1009900023031092220310922103109220030E943D
:1009A000A90283E890E090931D0380931C0384E8E0
:1009B00090E090931F0380931E031092F0038091A8
:1009C000F503823018F098E09093F0038093F303DE
:1009D00062E370E080E090E00E94F6006091F60330
:1009E0008BEE93E00E946E0368EE73E080E090E08F
:1009F0000E94F60060E38BEE93E00E945804CBE483
:100A0000D6E4CE010197F1F760E38BEE93E00E940C
:100A100058042197F1F760E38BEE93E00E945804AD
:100A200083E592E00197F1F760E28BEE93E00E949C
:100A300058046091F003606240E08BEE93E00E9406
:100A4000710484E08093F10340E06CE08BEE93E06E
:100A50000E9471040E94BA0482E08093F20340E095
:100A600066E08BEE93E00E94710440E062E08BEE62
:100A700093E00E9471048BE39FE10197F1F7DF910E
:100A8000CF91089541E00E94710481E090E00895C3
:100A9000FC0101900020E9F73197AF01481B590B89
:100AA000BC018BEE93E00C9443018EE391E00E9435
:100AB000480564E670E080E090E00E94F60081E086
:100AC0000E94880464E670E080E090E00E94F600F6
:100AD00083E591E00E94480564E670E080E090E0E4
:100AE0000E94F60082E00E94880464E670E080E0E4
:100AF00090E00E94F60088E691E00E94480564E6D6
:100B000070E080E090E00E94F60083E00E9488049C
:100B100064E670E080E090E00E94F6008DE791E0EE
:100B20000C944805CF93DF932091E9033091EA03B9
:100B3000232B89F0FC01C091E503D091E60360818D
:100B40007181CE010E94DF10009729F08C1B9D0B54
:100B5000DF91CF9108958FEF9FEFFACFFC012481B1
:100B60003581FB014481558124173507E1F4FC01EF
:100B700080819181FB01608171810097D9F06115BD
:100B80007105A9F4232BC9F0FC01808190E008C015
:100B9000232B99F0FB01808190E09195819591093B
:100BA00021E0892B09F020E081E0822708950E944E
:100BB000CF10F6CF6115710559F721E0F5CF0F93EE
:100BC0001F93CF93DF938C01EB01FC018081918116
:100BD0000097E1F06881798161157105A9F0428182
:100BE00053812C813D814217530770F00E94D81029
:100BF0008C819D81F801958384831D821C82DF9105
:100C0000CF911F910F9108950E94800F8881998143
:100C1000F801918380838A819B81938382838C8175
:100C20009D8195838483198218821B821A82E5CF65
:100C3000CF93DF93EC0188819981009711F00E9496
:100C4000800F198218821D821C821B821A82DF91FA
:100C5000CF910895FC0180819181009711F00C944F
:100C6000800F08950F931F93CF93DF93EC0188813A
:100C70009981009759F02A813B812617370730F078
:100C800081E0DF91CF911F910F9108958B016F5FEC
:100C90007F4F0E940910009759F0998388831B8326
:100CA0000A832C813D81232B59F7FC011082E8CF68
:100CB00080E0E7CFEF92FF920F931F93CF93DF93E4
:100CC0006115710541F480E0DF91CF911F910F9183
:100CD000FF90EF90089541155105B1F07B01EC01B3
:100CE0000C811D81040F151FB8010E943206882354
:100CF00051F3288139818C819D81B701820F931F27
:100D00000E94D8101D830C8381E0DECFCF93DF9348
:100D1000EC0144E050E063E671E00E945A06811164
:100D200003C0CE010E941806CE01DF91CF91089535
:100D3000CF93DF93EC01FB01448155816081718188
:100D40000E945A06811103C0CE010E941806CE01EE
:100D5000DF91CF910895EF92FF920F931F93CF935E
:100D6000DF93EC017B018A01BA010E9432068111F6
:100D70000BC0CE010E941806CE01DF91CF911F91CA
:100D80000F91FF90EF9008951D830C83B701888128
:100D900099810E94D810F0CFFB0101900020E9F763
:100DA0003197AF01461B570B0C94AB06CF93DF93E3
:100DB000EC01FB018617970749F06081718161158D
:100DC000710541F0448155810E94AB06CE01DF914F
:100DD000CF9108950E941806F9CFFC01118210826C
:100DE00013821282158214820C94D606FC011182A1
:100DF00010821382128215821482FB01019000205E
:100E0000E9F73197AF01461B570B0C94AB06AF9235
:100E1000BF92CF92DF92EF92FF920F931F93CF93E7
:100E2000DF936C015B017A0189012417350720F4F7
:100E30008F2D7901042F182F6DE172E0C6010E94F9
:100E4000F606D5011496CD91DC91EC16FD06E0F482
:100E50000C171D0708F4E801D501ED91FC911197DD
:100E6000EC0FFD1F108110826D917C916E0D7F1D26
:100E7000C60161157105A1F00E94CC06F5018081C3
:100E80009181C80FD91F1883C601DF91CF911F919F
:100E90000F91FF90EF90DF90CF90BF90AF900895AB
:100EA0000E941806EBCF85ED8093BC0080918F02E5
:100EB00090919002A0919102B09192020796A11D8B
:100EC000B11D23E0B695A795979587952A95D1F7FB
:100ED0002091BC0024FD03C01092D80208954091D7
:100EE0008F02509190026091910270919202452B75
:100EF000462B472B69F30097A105B10541F02AE283
:100F00002A95F1F700C00197A109B109E1CF8091BD
:100F10008E020C94C7021F920F920FB60F921124EB
:100F20002F933F938F939F93AF93BF93809114031D
:100F300090911503A0911603B091170330911303FC
:100F400023E0230F2D3758F50196A11DB11D2093E5
:100F500013038093140390931503A0931603B09387
:100F600017038091180390911903A0911A03B0916F
:100F70001B030196A11DB11D8093180390931903C3
:100F8000A0931A03B0931B03BF91AF919F918F91D0
:100F90003F912F910F900FBE0F901F90189526E84C
:100FA000230F0296A11DB11DD2CF1F920F920FB633
:100FB0000F9211242F933F934F935F936F937F93DF
:100FC0008F939F93AF93BF93EF93FF9384E293E04C
:100FD0000E94F301FF91EF91BF91AF919F918F918B
:100FE0007F916F915F914F913F912F910F900FBE25
:100FF0000F901F9018951F920F920FB60F92112409
:101000002F938F939F93EF93FF93E0913403F0918D
:1010100035038081E0913A03F0913B0382FD1BC0D0
:10102000908180913D038F5F8F7320913E038217E3
:1010300041F0E0913D03F0E0EC5DFC4F958F809333
:101040003D03FF91EF919F918F912F910F900FBED4
:101050000F901F9018958081F4CF1F920F920FB6BA
:101060000F9211242F933F934F935F936F937F932E
:101070008F939F93AF93BF93EF93FF938091B900AA
:10108000887F803609F44AC0F0F5883209F4A7C099
:1010900018F5803109F49BC0B8F4882309F4F9C02D
:1010A000883009F494C0FF91EF91BF91AF919F9167
:1010B0008F917F916F915F914F913F912F910F9001
:1010C0000FBE0F901F901895883109F488C08032A8
:1010D00051F78093D70214C0803409F49DC040F4C6
:1010E0008033B9F38833F9F68093D70285ECB0C02A
:1010F000803509F485C0883509F496C0883499F69E
:101100000E945307D0CF883909F48CC038F588374E
:1011100029F050F4883611F0803729F683E0809367
:10112000D8021092D60257C0883809F47BC08039A3
:1011300019F0803809F0B7CF8091D602803208F0DC
:1011400071C0E091D60281E08E0F8093D60280912B
:10115000BB00F0E0EA54FD4F80833DC0803B39F096
:10116000E0F4803A09F479C0883A09F09CCF84E031
:101170008093D8021092B5021092B402E0911C0341
:10118000F0911D0309958091B40281110FC081E097
:101190008093B4021092940209C0803C09F4A6CF57
:1011A000883C09F4A3CF883B09F07DCFE091B502DC
:1011B00081E08E0F8093B502F0E0EC56FD4F808108
:1011C0008093BB009091B5028091B40229C08091B8
:1011D000FD028093BB0085EC8093BC0064CF9091AE
:1011E000FC028091FB02981758F5E091FC0281E027
:1011F0008E0F8093FC02F0E0E552FD4F8081E9CF35
:10120000E091FC0281E08E0F8093FC028091BB0094
:10121000F0E0E552FD4F80839091FC028091FB024B
:101220009817C8F285E8D8CFE091FC0281E08E0FD4
:101230008093FC028091BB00F0E0E552FD4F80837B
:101240008091DA0281115CCF81E08093D90284EA37
:101250008093BC001092D80226CF85EC8093BC000E
:101260001092D8028091D602803230F4E091D602FA
:10127000F0E0EA54FD4F10826091D60270E0E091F8
:101280001E03F0911F0386EB92E009951092D6029F
:101290000ACF1092D70234CFE4E2F3E01382128235
:1012A00088EE93E0A0E0B0E084839583A683B783C3
:1012B00022E131E03183208325EC30E0358724873B
:1012C00024EC30E03787268720EC30E0318B208B10
:1012D00021EC30E0338B228B22EC30E0358B248BF9
:1012E00026EC30E0378B268B118E128E138E148EE7
:1012F000E1ECF3E01382128284839583A683B783A3
:1013000084E291E091838083EBEEF3E0138212821A
:1013100086E391E09183808387E2848384E18187FF
:1013200084E0828713866DE172E085EE93E00E948F
:10133000F6066DE172E08FED93E00E94F6066DE136
:1013400072E089ED93E00E94F6066DE172E083EDB4
:1013500093E00E94F6066DE172E08DEC93E00C9450
:10136000F606CF93DF93CDB7DEB76E970FB6F8943E
:10137000DEBF0FBECDBF789484B5826084BD84B5D6
:10138000816084BD85B5826085BD85B5816085BD80
:1013900080916E00816080936E0010928100809138
:1013A00081008260809381008091810081608093C0
:1013B0008100809180008160809380008091B100E5
:1013C00084608093B1008091B00081608093B00010
:1013D00080917A00846080937A0080917A008260A4
:1013E00080937A0080917A00816080937A00809166
:1013F0007A00806880937A001092C100E0913403F3
:10140000F091350382E08083E0913003F091310365
:101410001082E0913203F091330380E180831092D7
:101420003C03E0913803F091390386E08083E0913A
:101430003603F0913703808180618083E091360329
:10144000F0913703808188608083E0913603F091CA
:101450003703808180688083E0913603F091370301
:1014600080818F7D8083109223031092220310923B
:101470002103109220030E94A90283E890E0909338
:101480001D0380931C0384E890E090931F038093D6
:101490001E038CE08093B8000E94C5040E94C5041E
:1014A00088E08093F60360E08BEE93E00E946E0389
:1014B00080E00E94880482E991E00E94480581E072
:1014C0000E94880487EA91E00E94480583E00E9418
:1014D00088048CEB91E00E94480568EE73E080E0A0
:1014E00090E00E94F6000E94550594E1E92EF12C4F
:1014F00080E0C82E80E0D82E80911203882309F462
:1015000067C00E94280100910E0310910F032091E3
:10151000100330911103601B710B820B930B683821
:1015200073418105910508F453C080910D03811129
:101530004FC00E94BA0480E00E94880462E370E019
:1015400080E090E00E94F60081ED91E00E94480565
:1015500062E370E080E090E00E94F60081E00E948B
:10156000880483E591E00E94480562E370E080E032
:1015700090E00E94F60082E00E94880486EE91E0EE
:101580000E94480562E370E080E090E00E94F6006F
:1015900083E00E94880483E591E00E94480568EE9C
:1015A00073E080E090E00E94F6000E9455051092E2
:1015B00012036DE172E08FED93E00E94CC066DE1C5
:1015C00072E089ED93E00E94CC0681E080930D03E8
:1015D0000E9428010091060310910703209108033F
:1015E000309109034B015C01801A910AA20AB30AE7
:1015F00095018401083E13402105310508F4FAC025
:101600006093060370930703809308039093090384
:101610008091E3039091E403459708F472C081E060
:101620000E9488046FED73E0CE0101960E94ED06E2
:10163000CE0101960E948606BC01CE0149960E9409
:10164000ED06CE0101960E942A068D8D9E8D009199
:101650000A0310910B0398012C5E3F4F281739079E
:1016600008F0F4C0A801BE01675E7F4FCE0101966D
:101670000E940707BE016F5F7F4F8BEE93E00E94D1
:101680003501CE0101960E942A0680910A039091AD
:101690000B03019690930B0380930A032D8D3E8DCF
:1016A00082179307A8F010920B0310920A0381E0AF
:1016B0008093FE020E9428016056704F8F4F9F4F0B
:1016C0006093FF02709300038093010390930203E1
:1016D0008091FE02882389F00E9428010091FF0278
:1016E00010910003209101033091020360177107EC
:1016F0008207930710F01092FE02CE0149960E94D5
:101700002A068091DD039091DE03459708F472C0AC
:1017100082E00E94880469ED73E0CE0101960E9488
:10172000ED06CE0101960E948606BC01CE014996C7
:101730000E94ED06CE0101960E942A068D8D9E8D97
:10174000009104031091050398012C5E3F4F281768
:10175000390708F0BBC0A801BE01675E7F4FCE010C
:1017600001960E940707BE016F5F7F4F8BEE93E0EB
:101770000E943501CE0101960E942A068091040341
:1017800090910503019690930503809304032D8D9A
:101790003E8D82179307A8F0109205031092040360
:1017A00081E0809303030E9428016056704F8F4FA1
:1017B0009F4F6093FF027093000380930103909307
:1017C000020380910303882389F00E94280100917D
:1017D000FF02109100032091010330910203601772
:1017E00071078207930710F010920303CE01499608
:1017F0000E942A0684E293E00E94D301181619067B
:101800002CF480911203882309F4A0C084E293E0B1
:101810000E94D301181619060CF4ECC06FED73E0AA
:1018200083ED93E00E94D60669ED73E08DEC93E0C2
:101830000E94D606C114D10409F45ECE0E94DF01D5
:10184000882309F459CE0E94000052CE801B910BD0
:101850009701281B390B50E040E06FED73E0CE019B
:101860000D960E9407072D8D3E8DA801BE01675E73
:101870007F4FCE0101960E940707BE016F5F7F4F29
:10188000CE0107960E94ED06BE01635F7F4FCE0139
:1018900007960E949806BC01CE0143960E94ED0671
:1018A000CE0107960E942A06CE0101960E942A06C2
:1018B000CE010D960E942A06BE016D5E7F4F8BEE13
:1018C00093E00E943501CE014396DDCE801B910B43
:1018D0009701281B390B50E040E069ED73E0CE0121
:1018E0000D960E9407072D8D3E8DA801BE01675EF3
:1018F0007F4FCE0101960E940707BE016F5F7F4FA9
:10190000CE0107960E94ED06BE01635F7F4FCE01B8
:1019100007960E949806BC01CE0143960E94ED06F0
:10192000CE0107960E942A06CE0101960E942A0641
:10193000CE010D960E942A06BE016D5E7F4F8BEE92
:1019400093E00E943501CE01439616CF0E94BA045F
:1019500080E00E9488048BEF91E00E9448050E947D
:10196000280160930E0370930F03809310039093EC
:10197000110310920D0311E0109312036AE072E05C
:10198000CE010D960E94F60665E172E0CE01079643
:101990000E94F606BE01695F7F4FCE0101960E944C
:1019A000ED06BE01635F7F4FCE0101960E9498064F
:1019B000BC0184E293E00E94350142E050E06BE11B
:1019C00072E084E293E00E944301CE0101960E94FE
:1019D0002A0610930C0366E470E080E090E00E9419
:1019E000F600CE0107960E942A06CE010D960E94AF
:1019F0002A0614CF80911203882309F40FCF0E9486
:101A0000280160930E0370930F038093100390934B
:101A1000110310920D036DE172E085EE93E00E94D8
:101A2000CC066DE172E0CE0101960E94F6060E949E
:101A3000930197FD0CC08F83188641E050E0BE01F2
:101A4000695F7F4FCE0101960E945A06F0CFBE011A
:101A50006F5F7F4F85EE93E00E94DF05CE01019618
:101A60000E942A0661E070E080E090E00E94F600AB
:101A70006EE172E0CE0101960E94F606CE0101965B
:101A80000E94920510E0181619069CF461E272E0BB
:101A9000CE0107960E94F606CE0107960E94920597
:101AA00011E0181619060CF010E0CE0107960E94FE
:101AB0002A06CE0101960E942A06112309F4AECE11
:101AC00080910C03882389F010920C036DE172E081
:101AD00085EE93E00E94CC060E94BA0480E00E944A
:101AE00088048BEF91E00E9448056EE172E0CE0120
:101AF00007960E94F606CE0107960E9492059C0169
:101B000050E040E065EE73E0CE0101960E940707C9
:101B1000BE016F5F7F4F8FED93E00E94DF05CE0126
:101B200001960E942A06CE0107960E942A0661E2CB
:101B300072E0CE0107960E94F606CE0107960E943B
:101B400092058C016EE172E0CE010D960E94F606C0
:101B5000CE010D960E949205AC014E5F5F4F980139
:101B600065EE73E0CE0101960E940707BE016F5F2C
:101B70007F4F89ED93E00E94DF05CE0101960E9420
:101B80002A06CE010D960E942A06CE0107960E94D3
:101B90002A0663ED73E08FED93E00E94AE05882383
:101BA00051F110920B0310920A0381E00E94880405
:101BB00083E591E00E94480581E00E9488048091BD
:101BC000E3039091E403449708F452C024E130E029
:101BD00050E040E06FED73E0CE0101960E940707F0
:101BE000BE016F5F7F4F8BEE93E00E943501CE0107
:101BF00001960E942A066DEC73E089ED93E00E9445
:101C0000AE052091DD033091DE038823C1F1232B43
:101C100051F064E272E08091D9039091DA030E945E
:101C2000CF10892B79F182E00E94880483E591E04E
:101C30000E94480582E00E9488048091DD03909113
:101C4000DE03449708F468C024E130E050E040E04F
:101C500069ED73E0CE0101960E940707BE016F5F38
:101C60007F4F8BEE93E00E943501CE010196BFCEEF
:101C70006FED73E08BEE93E00E943501BCCF232B18
:101C800009F4CCCD64E272E08091D9039091DA033B
:101C90000E94CF10892B09F0C1CD0E94BA0480E0C8
:101CA0000E94880462E370E080E090E00E94F60009
:101CB00081ED91E00E94480562E370E080E090E0F1
:101CC0000E94F60081E00E94880483E591E00E9472
:101CD000480562E370E080E090E00E94F60082E058
:101CE0000E94880486E392E00E94480562E370E067
:101CF00080E090E00E94F60083E00E94880483E583
:101D000091E00E94480568EE73E080E090E00E9458
:101D1000F6000E94550582CD69ED73E08BEE93E0ED
:101D20000E9435017BCD8DEC93E00E942A0683ED65
:101D300093E00E942A0689ED93E00E942A068FED27
:101D400093E00E942A0685EE93E00C942A062F92D7
:101D50003F924F925F926F927F928F929F92AF923B
:101D6000BF92CF92DF92EF92FF920F931F93CF9388
:101D7000DF93CDB7DEB7CA1BDB0B0FB6F894DEBF1F
:101D80000FBECDBF09942A88398848885F846E8445
:101D90007D848C849B84AA84B984C884DF80EE808F
:101DA000FD800C811B81AA81B981CE0FD11D0FB698
:101DB000F894DEBF0FBECDBFED010895EE0FFF1FFB
:101DC0000590F491E02D09940F931F93CF93DF9327
:101DD0008230910510F482E090E0E091F903F091F7
:101DE000FA0330E020E0B0E0A0E0309799F421154C
:101DF000310509F44AC0281B390B24303105D8F5C8
:101E00008A819B816115710589F1FB01938382832E
:101E1000FE0111C040815181028113814817590789
:101E2000E0F04817590799F4109761F012960C9357
:101E3000129713961C933296CF01DF91CF911F9189
:101E40000F9108950093F9031093FA03F4CF21152D
:101E5000310551F04217530738F0A901DB019A010F
:101E6000BD01DF01F801C1CFEF01F9CF9093FA0373
:101E70008093F903CDCFFE01E20FF31F819391937D
:101E80002250310939832883D7CF2091F70330912D
:101E9000F803232B41F42091020130910301309388
:101EA000F8032093F70320910001309101012115DF
:101EB000310541F42DB73EB7409104015091050121
:101EC000241B350BE091F703F091F803E217F307B9
:101ED000A0F42E1B3F0B2817390778F0AC014E5F9A
:101EE0005F4F2417350748F04E0F5F1F5093F803DC
:101EF0004093F703819391939FCFF0E0E0E09CCF74
:101F0000CF93DF930097E9F0FC013297138212829E
:101F1000A091F903B091FA03ED0130E020E01097B1
:101F2000A1F420813181820F931F2091F70330911A
:101F3000F8032817390709F061C0F093F803E0931C
:101F4000F703DF91CF910895EA01CE17DF07E8F597
:101F50004A815B819E0141155105B1F7E901FB837F
:101F6000EA8349915991C40FD51FEC17FD0761F41D
:101F7000808191810296840F951FE901998388835E
:101F8000828193819B838A83F0E0E0E012968D91B9
:101F90009C9113970097B9F52D913C911197CD0124
:101FA0000296820F931F2091F7033091F8032817B0
:101FB000390739F6309751F51092FA031092F90368
:101FC000B093F803A093F703BCCFD383C2834081BF
:101FD0005181840F951FC817D90761F44E5F5F4F79
:101FE00088819981480F591F518340838A819B8141
:101FF000938382832115310509F0B0CFF093FA0362
:10200000E093F9039ECFFD01DC01C0CF1382128261
:10201000D7CFB0E0A0E0EFE0F0E10C94A90E8C0186
:10202000009751F4CB010E94E40E8C01C801CDB79A
:10203000DEB7E0E10C94C50EFC01E60FF71F9C0132
:1020400022503109E217F30708F49DC0D901CD9160
:10205000DC911197C617D70798F0C530D10530F33A
:10206000CE0104978617970708F3C61BD70B229754
:10207000C193D1936D937C93CF010E94800FD6CFF3
:102080005B01AC1ABD0A4C018C0E9D1EA091F90398
:10209000B091FA03512C412CF12CE12C109731F521
:1020A0008091F7039091F8038815990509F05CC0B9
:1020B0004616570608F058C0809100019091010122
:1020C000009741F48DB79EB74091040150910501EE
:1020D000841B950BE817F90708F055C0F093F80337
:1020E000E093F703F90171836083A0CF8D919C91F8
:1020F000119712966C90129713967C901397A815CF
:10210000B90559F56C0142E0C40ED11CCA14DB04B8
:1021100020F1AC014A195B09DA011296159780F09B
:102120006282738251834083D9016D937C93E11461
:10213000F10471F0D7011396FC93EE93129776CFCA
:1021400022968C0F9D1FF90191838083F301EFCFBD
:10215000F093FA03E093F90369CF4816590608F49F
:102160002C017D01D3019ACFCB010E94E40E7C01AA
:10217000009749F0AE01B8010E94C610C8010E9444
:10218000800F870153CF10E000E050CFFB01DC014E
:1021900002C001900D9241505040D8F70895FB01C4
:1021A000DC018D91019080190110D9F3990B0895EC
:1021B000FB01DC0101900D920020E1F70895FB0185
:1021C00051915523A9F0BF01DC014D9145174111F3
:1021D000E1F759F4CD010190002049F04D914015EF
:1021E0004111C9F3FB014111EFCF81E090E001976C
:1021F000089510E0C8E5D0E004C0FE010E94DE0EA4
:0C2200002196C935D107C9F7F894FFCF2B
:10220C000000FB038000000040001400540000009C
:10221C0000001502430170016202D3017F01C50168
:10222C00000000003F0312035504E8020B03F80200
:10223C00E90200000000420543015504340120204E
:10224C0020436F6E6E6563742057697A61726420E7
:10225C002020002020202020202020202020202092
:10226C00202020202020200020506C6561736520E8
:10227C0074617020636F6E6E65637420002020693A
:10228C006E204D75736963204C4344205052472097
:10229C0020002020202046696B7553797374656D7E
:1022AC007320202020200020202020204D757369D1
:1022BC00634C434420202020202020004769744890
:1022CC0075623A202046696B7553797374656D732A
:1022DC000020202020446973636F6E6E6563746503
:1022EC0064202020200020496E7465726E616C2081
:1022FC00457863657074696F6E2000202020202063
:10230C00204D757369634C43440020563A302E308F
:10231C002E302E3400543A424353000D0A003E3105
:10232C00003E3200442A495E532443294F254E2354
:10233C00452543265400446973706C6179204469C7
:0C234C0073636F6E6E656374656400005F
:00000001FF
