:100000000C9464000C94870A0C94600A0C948C0085
:100010000C948C000C94810C0C948C000C94AE0A03
:100020000C948C000C948C000C948C000C948C0020
:100030000C948C000C948C000C948C000C948C0010
:100040000C94160A0C948C000C94300B0C940A0B34
:100050000C948C000C948C000C948C000C948C00F0
:100060000C94620B0C948C0000000000240027000C
:100070002A000000000023002600290000000008DC
:10008000000201000003040700000000000000005F
:10009000010204081020408001020408102001021F
:1000A0000408102000000000250028002B00040494
:1000B0000404040404040202020202020303030310
:1000C00003030200A60C561311241FBECFEFD8E085
:1000D000DEBFCDBF24E0A8E4B2E001C01D92A43190
:1000E000B207E1F712E0A0E0B1E0EAEBFCE202C007
:1000F00005900D92A834B107D9F710E0C3E6D0E01F
:1001000004C02197FE010E943514C236D107C9F7F9
:100110000E94170D0C9450160C9400000895089539
:10012000833081F028F4813099F08230A9F008956D
:100130008730A9F08830C9F08430B1F48091800014
:100140008F7D03C0809180008F7780938000089519
:1001500084B58F7784BD089584B58F7DFBCF809162
:10016000B0008F778093B00008958091B0008F7DAC
:10017000F9CFCF93DF93282F30E0F901E458FF4FF8
:100180008491F901E057FF4FD491F901E255FF4FF7
:10019000C491CC23A1F081110E949000EC2FF0E0DB
:1001A000EE0FFF1FEE58FF4FA591B491EC91ED2398
:1001B00081E090E009F480E0DF91CF91089580E044
:1001C00090E0FACF1F93CF93DF93282F30E0F9010F
:1001D000E458FF4F8491F901E057FF4FD491F901A2
:1001E000E255FF4FC491CC23A9F0162F81110E9434
:1001F0009000EC2FF0E0EE0FFF1FEC55FF4FA591A4
:10020000B4918FB7F894EC91111108C0D095DE230A
:10021000DC938FBFDF91CF911F910895DE2BF8CF34
:10022000CF93DF9390E0FC01E057FF4F249182557C
:100230009F4FFC0184918823D1F090E0880F991F93
:10024000FC01E859FF4FA591B491FC01EC55FF4F1B
:10025000C591D491623071F49FB7F8943C91822F8C
:10026000809583238C93E8812E2B28839FBFDF9179
:10027000CF9108958FB7F894EC912E2B2C938FBFCC
:10028000F6CFCF92DF92EF92FF92CF936C018091E5
:1002900004018B3049F08F3F09F444C0CF91FF90A7
:1002A000EF90DF90CF900895E2ECF0E0C491C7FDAD
:1002B000F5CF61E08BE00E941001F12CE12CCC2302
:1002C000D9F0960150E040E0C23009F09AC07A01BE
:1002D00060E970ED83E090E00E94F413BA01A90197
:1002E000415051096109710993E04F3F5105610582
:1002F000710509F00CF4C1C068E478EE81E090E08B
:10030000A70196010E94F413BA01A90141505109B5
:100310006109710994E0C111B0C085B5887F83601F
:1003200085BDB7C08BE080930401E2ECF0E0C4919E
:10033000CF3F09F4B3CFC13021F150F0C23009F4FE
:100340003EC0C7FDABCF61E08BE00E941001B9CF8A
:1003500014BC15BC84B5826084BD85B5816085BD43
:10036000E9EBF0E0E491F0E0EE0FFF1FEC55FF4FFA
:1003700085919491EBE9F0E0E491E0932403C0E0EF
:1003800098CF109280001092810080918100886047
:100390008093810080918100816080938100E9EBEE
:1003A000F0E0E491F0E0EE0FFF1FEC55FF4F859178
:1003B0009491EBE9F0E0E491E09323037ACF10927B
:1003C000B0001092B1008091B00082608093B000C4
:1003D0008091B10081608093B100E9EBF0E0E4919D
:1003E000F0E0EE0FFF1FEC55FF4F85919491909335
:1003F000220380932103EBE9F0E0E491E0932003F2
:1004000058CF60E072E18AE790E00E94F413BA01ED
:10041000A9014150510961097109C130A1F58091CB
:100420008100887F81608093810050938900409390
:1004300088008FEF9FEFDC018093290390932A03BC
:10044000A0932B03B0932C0380916F008260809364
:100450006F0024CF4093B3008FEF9FEFDC018093B8
:10046000250390932603A0932703B093280380913C
:10047000700082608093700011CF8091B100887FFE
:10048000892B8093B100C13081F2C23019F3C111C0
:1004900005CF47BD8FEF9FEFDC0180932D03909335
:1004A0002E03A0932F03B093300380916E008260DF
:1004B00080936E00F3CE3FB7F8948091140390912F
:1004C0001503A0911603B091170326B5A89B05C08C
:1004D0002F3F19F00196A11DB11D3FBFBA2FA92FC3
:1004E000982F8827BC01CD01620F711D811D911DC0
:1004F00042E0660F771F881F991F4A95D1F708952C
:100500008F929F92AF92BF92CF92DF92EF92FF9223
:100510004B015C010E945B026B017C010E945B024B
:100520006C197D098E099F09683E7340810591050C
:10053000A8F321E0821A9108A108B10888EEC80E3C
:1005400083E0D81EE11CF11C81149104A104B104C4
:1005500029F7FF90EF90DF90CF90BF90AF909F90E2
:100560008F9008952FB7F894609110037091110344
:1005700080911203909113032FBF08950895089559
:100580009091040189130BC0E2ECF0E0E4919FEF3D
:1005900090930401E13049F028F0E23061F060E02E
:1005A0000C94E20010926E00FACF90916F009D7F44
:1005B00090936F00F4CF909170009D7F90937000A6
:1005C00091E09093B0009091B100987F94609093E7
:1005D000B1001092B300E3CFDB0114964D915C9112
:1005E00015976D917C91DC01ED91FC910280F38176
:1005F000E02D0994AF92BF92CF92DF92EF92FF92DB
:100600000F931F93CF93DF936C017B018B01040F3A
:10061000151FEB015E01AE18BF08C017D10759F0D6
:100620006991D601ED91FC910190F081E02DC60118
:100630000995892B79F7C501DF91CF911F910F9112
:10064000FF90EF90DF90CF90BF90AF900895FC01A6
:10065000538D448D252F30E0842F90E0821B930B27
:10066000541710F0CF96089501970895FC01918DCD
:10067000828D981761F0A28DAE0FBF2FB11D5D96D0
:100680008C91928D9F5F9F73928F90E008958FEF72
:100690009FEF08950F931F930E94B2026093390356
:1006A00070933A0380933B0390933C0381E393E080
:1006B0000E94360397FF1DC00E94B20200913903C9
:1006C00010913A0320913B0330913C03601B710B66
:1006D000820B930B00913503109136032091370361
:1006E000309138036017710782079307F8F28FEF94
:1006F0009FEF1F910F910895FC01918D828D9817A6
:1007000031F0828DE80FF11D858D90E008958FEF17
:100710009FEF0895FC01918D228D892F90E0805CE0
:100720009F4F821B91098F739927089581E393E06E
:100730000E948A0321E0892B09F420E0822F08958A
:1007400080E090E0892B29F00E94960381110C949F
:1007500000000895FC01A48DA80FB92FB11DA35A64
:10076000BF4F2C91848D90E001968F739927848FD1
:10077000A689B7892C93A089B1898C9183708064F4
:100780008C93938D848D981306C00288F389E02D95
:1007900080818F7D80830895EF92FF920F931F9346
:1007A000CF93DF93EC0181E0888F9B8D8C8D981324
:1007B0001AC0E889F989808185FF15C09FB7F89430
:1007C000EE89FF896083E889F9898081837080647C
:1007D00080839FBF81E090E0DF91CF911F910F91C7
:1007E000FF90EF900895F62E0B8D10E00F5F1F4FD6
:1007F0000F731127E02E8C8D8E110CC00FB607FCE5
:10080000FACFE889F989808185FFF5CFCE010E9472
:10081000AA03F1CFEB8DEC0FFD2FF11DE35AFF4F33
:10082000F0829FB7F8940B8FEA89FB898081806200
:10083000CFCFCF93DF93EC01888D8823B9F0AA89BD
:10084000BB89E889F9898C9185FD03C0808186FD8B
:100850000DC00FB607FCF7CF8C9185FFF2CF8081DA
:1008600085FFEDCFCE010E94AA03E9CFDF91CF91A2
:1008700008952091B002260F3327331F213231050E
:10088000ECF42091D402FC0190E080E0243069F087
:1008900082E00895A091B0022191AC0140575D4FD4
:1008A000A40FB52FB11D2C930196861798F3809154
:1008B000B002680F6093B00280E0089581E008956F
:1008C0001092D40281E08093D6021092D50261E0AA
:1008D00082E10E94E20061E083E10E94E200E9EB34
:1008E000F0E080818E7F808380818D7F808388E4AB
:1008F0008093B80085E48093BC000895CF93DF9384
:1009000091E090938F028823B9F0C091B800D09104
:10091000BA008091BC008A7B8093BC0060E082E1D9
:100920000E94E20060E083E10E94E2000E94600415
:10093000D093BA00C093B800DF91CF910895089585
:10094000E0911F0380911E03E81730F4F0E0E659B0
:10095000FD4F808190E008958FEF9FEF0895909173
:100960001F0380911E032FEF3FEF981748F4E92FE4
:10097000F0E0E659FD4F208130E09F5F90931F0328
:10098000C901089580911E0390911F03891B990B43
:100990000895CF92DF92EF92FF920F931F93CF9320
:1009A000DF937C01CB018A0120916902222389F027
:1009B000EB016B01C40ED51ECC15DD0569F0699104
:1009C000D701ED91FC910190F081E02DC7010995CF
:1009D000F3CF642F0E943904C801DF91CF911F919A
:1009E0000F91FF90EF90DF90CF900895CF93DF931A
:1009F0001F92CDB7DEB76983209169022223F9F0F7
:100A000020911C03203258F021E030E0FC013383B8
:100A1000228390E080E00F90DF91CF910895809144
:100A20001D03E82FF0E0E75BFD4F998190838F5F16
:100A300080931D0380931C0381E090E0ECCF61E084
:100A4000CE0101960E943904F7CFCF92DF92EF9248
:100A5000FF920F931F93CF93DF93FC01C48121E09A
:100A600020936902C093480210921D0310921C0348
:100A70008385682B8EEC93E00E94F604D0911C03D2
:100A8000D13208F092C00E945B026B017C01809120
:100A9000D402811165C082E08093D40281E080930A
:100AA000D6028FEF8093D3021092F802D093F70210
:100AB000A9E4B2E0E7EDF2E080E0D81385C010923F
:100AC000F9028091F902CC0FC82BC093F9028091F2
:100AD000D502813009F07CC01092D5020E945B02E1
:100AE0006B017C018091F9028093BB0080918B02A5
:100AF00090918C02A0918D02B0918E02892B8A2B4D
:100B00008B2B99F00E945B0200918B0210918C025A
:100B100020918D0230918E026C197D098E099F09FA
:100B20000617170728073907E0F18091BC0083FDFD
:100B3000D9CF85EC8093BC000E945B026B017C01E5
:100B40008091D402823009F445C08091D3028F3F56
:100B500061F18091D302803241F18091D30225C0AE
:100B600080918B0290918C02A0918D02B0918E02A7
:100B7000892B8A2B8B2B09F48ACF0E945B02009170
:100B80008B0210918C0220918D0230918E026C1993
:100B90007D098E099F09061717072807390708F0EE
:100BA00076CF80918A020E947E0410921D031092DB
:100BB0001C0310926902DF91CF911F910F91FF905A
:100BC000EF90DF90CF9008959D9191938F5F75CFB7
:100BD00085EEB0CF80918B0290918C02A0918D0216
:100BE000B0918E02892B8A2B8B2B09F4A9CF0E94FE
:100BF0005B0200918B0210918C0220918D0230914A
:100C00008E026C197D098E099F09061717072807A0
:100C1000390708F095CFC5CF90E080E008950F9395
:100C20001F93CF938C01C62F0E9425056C2F646003
:100C3000C8010E9425056C2F6B7FC8010E94250505
:100C400083EC90E00197F1F7CF911F910F910895F8
:100C50000F931F93CF93DF938C01D62FC42F607F08
:100C6000642B0E940F0680E1D89FB00111246C2BE9
:100C7000C801DF91CF911F910F910C940F06CF9374
:100C8000DF93CDB7DEB728970FB6F894DEBF0FBE5F
:100C9000CDBF98E0EBE0F1E0DE01119601900D92FE
:100CA0009A95E1F790910C04981710F48FEF890F43
:100CB00090E0880F991F21E030E02C0F3D1F820F3C
:100CC000931FFC016081606840E084E094E0289616
:100CD0000FB6F894DEBF0FBECDBFDF91CF910C945D
:100CE000280640E061E084E094E00E9428068BE35F
:100CF0009FE10197F1F70895CF93DF9310921F03BF
:100D000010921E0310921D0310921C030E94600497
:100D10008EE890E090931903809318038FE890E099
:100D200090931B0380931A031092090480910E0480
:100D3000823018F098E09093090480930C0462E3E9
:100D400070E080E090E00E94800260910F0484E0F7
:100D500094E00E94250568EE73E080E090E00E9438
:100D6000800260E384E094E00E940F06CBE4D6E4C6
:100D7000CE010197F1F760E384E094E00E940F0652
:100D80002197F1F760E384E094E00E940F0683E589
:100D900092E00197F1F760E284E094E00E940F0690
:100DA00060910904606240E084E094E00E942806BB
:100DB00084E080930A0440E06CE084E094E00E94C8
:100DC00028060E94710682E080930B0440E066E0F2
:100DD00084E094E00E94280640E062E084E094E031
:100DE0000E9428068BE39FE10197F1F7DF91CF91F5
:100DF000089541E00E94280681E090E00895FC01FA
:100E000001900020E9F73197AF01481B590BBC0155
:100E100084E094E00C94FA020E9471068BE491E065
:100E20000E94FF0664E670E080E090E00E9480028D
:100E300080E00E943F0664E670E080E090E00E945F
:100E4000800281E00E943F0664E670E080E090E06E
:100E50000E9480028CE591E00C94FF06CF93DF9313
:100E6000BC0181E393E00E94EC02EC0142E050E01F
:100E70006DE671E081E393E00E94FA028C0F9D1F02
:100E8000DF91CF91089590E080E00E94A713811137
:100E900020C088EE93E00E94410168EC70E080E0A1
:100EA00090E00E9480028BE00E94C00261E070E04E
:100EB00080E090E00E94800284EF91E00E94410176
:100EC00068EC70E080E090E00E9480028BE00C947F
:100ED000C0020895CF93DF93DC0114962D913C91CD
:100EE0001597232B79F0FB01CD91DC916081718105
:100EF000CE010E943616009729F08C1B9D0BDF91C6
:100F0000CF9108958FEF9FEFFACFFC0124813581B7
:100F1000232B39F421E0FB018081882349F020E074
:100F200007C0808191810E94261621E0892BB9F7A4
:100F3000822F0895CF93DF93EC01A881B981EB0153
:100F4000E881F9811097F1F03097B1F4EC018C81D0
:100F50009D81892BC9F08C9190E00BC0DB01149628
:100F60008D919C91892B81F0808190E09195819564
:100F70009109DF91CF910895BF01CD01DF91CF910C
:100F80000C942616309751F790E080E0F2CF0F9343
:100F90001F93CF93DF938C01EB01FC018081918142
:100FA0000097E1F06881798161157105A9F04281AE
:100FB00053812C813D814217530770F00E942F16F8
:100FC0008C819D81F801958384831D821C82DF9131
:100FD000CF911F910F9108950E94D7148881998114
:100FE000F801918380838A819B81938382838C81A2
:100FF0009D8195838483198218821B821A82E5CF92
:10100000CF93DF93EC0188819981009711F00E94C2
:10101000D714198218821D821C821B821A82DF91CA
:10102000CF910895FC0180819181009711F00C947B
:10103000D71408950F931F93CF93DF93EC0188810A
:101040009981009759F02A813B812617370730F0A4
:1010500081E0DF91CF911F910F9108958B016F5F18
:101060007F4F0E946015009759F0998388831B83F6
:101070000A832C813D81232B59F7FC011082E8CF94
:1010800080E0E7CFEF92FF920F931F93CF93DF9310
:101090006115710541F480E0DF91CF911F910F91AF
:1010A000FF90EF90089541155105B1F07B01EC01DF
:1010B0000C811D81040F151FB8010E941A08882396
:1010C00051F3288139818C819D81B701820F931F53
:1010D0000E942F161D830C8381E0DECFCF93DF9318
:1010E000EC0144E050E062E272E00E9442088111AB
:1010F00003C0CE010E940008CE01DF91CF91089578
:10110000CF93DF93EC01FB014481558160817181B4
:101110000E944208811103C0CE010E940008CE0146
:10112000DF91CF910895EF92FF920F931F93CF938A
:10113000DF93EC017B018A01BA010E941A08811138
:101140000BC0CE010E940008CE01DF91CF911F910C
:101150000F91FF90EF9008951D830C83B701888154
:1011600099810E942F16F0CFFB0101900020E9F732
:101170003197AF01461B570B0C9493080F931F93A5
:10118000CF93DF93CDB7DEB762970FB6F894DEBF8B
:101190000FBECDBF8C01CB01F801118210821382EA
:1011A0001282158214824AE0BE016F5F7F4F0E9457
:1011B0007213BE016F5F7F4FC8010E94B408629630
:1011C0000FB6F894DEBF0FBECDBFDF91CF911F9158
:1011D0000F910895CF93DF93EC01FB0186179707DA
:1011E00049F0608171816115710541F0448155813B
:1011F0000E949308CE01DF91CF9108950E940008CC
:10120000F9CFFC011182108213821282158214829E
:101210000C94EA08CF93DF93CDB7DEB76E970FB685
:10122000F894DEBF0FBECDBF82E00E94B900BC01C2
:10123000CE0143960E94BE0883E00E94B900BC0123
:10124000CE010D960E94BE0884E00E94B900BC0148
:10125000CE0101960E94BE08BE016F5F7F4FCE0196
:1012600007960E940109BE01635F7F4FCE0107967A
:101270000E948008BE016D5E7F4F0E948008BC0105
:10128000CE0149960E940109CE0107960E941208DC
:10129000CE0101960E941208CE010D960E941208FE
:1012A000CE0143960E9412082D8D3E8D8091DE0363
:1012B0009091DF032817390741F46AED73E0CE01FE
:1012C00049960E949A07892B41F080910E0388234A
:1012D00021F0CE0149960E942E07BE01675E7F4F26
:1012E0008AED93E00E94EA08CE0149960E94120816
:1012F0006E960FB6F894DEBF0FBECDBFDF91CF91D3
:101300000895FC01118210821382128215821482C8
:10131000FB0101900020E9F73197AF01461B570B05
:101320000C949308AF92BF92CF92DF92EF92FF920C
:101330000F931F93CF93DF936C015B017A018901B7
:101340002417350720F48F2D7901042F182F6FE60D
:1013500071E0C6010E948109D5011496CD91DC91FE
:10136000EC16FD06E0F40C171D0708F4E801D501A2
:10137000ED91FC911197EC0FFD1F108110826D9182
:101380007C916E0D7F1DC60161157105A1F00E9453
:10139000B408F50180819181C80FD91F1883C60157
:1013A000DF91CF911F910F91FF90EF90DF90CF9041
:1013B000BF90AF9008950E940008EBCF85ED809319
:1013C000BC0080918B0290918C02A0918D02B09113
:1013D0008E020796A11DB11D23E0B695A79597959E
:1013E00087952A95D1F72091BC0024FD03C0109267
:1013F000D402089540918B0250918C0260918D022D
:1014000070918E02452B462B472B69F30097A1055F
:10141000B10541F02AE22A95F1F700C00197A10930
:10142000B109E1CF80918A020C947E041F920F9241
:101430000FB60F9211242F933F938F939F93AF93E7
:10144000BF938091100390911103A0911203B0916A
:10145000130330910F0323E0230F2D3758F5019626
:10146000A11DB11D20930F038093100390931103CE
:10147000A0931203B093130380911403909115036A
:10148000A0911603B09117030196A11DB11D809381
:10149000140390931503A0931603B0931703BF9101
:1014A000AF919F918F913F912F910F900FBE0F9011
:1014B0001F90189526E8230F0296A11DB11DD2CFCB
:1014C0001F920F920FB60F9211242F933F934F93B9
:1014D0005F936F937F938F939F93AF93BF93EF939C
:1014E000FF93E0910201F09103010995FF91EF91C3
:1014F000BF91AF919F918F917F916F915F914F912C
:101500003F912F910F900FBE0F901F9018951F9233
:101510000F920FB60F9211242F933F934F935F9327
:101520006F937F938F939F93AF93BF93EF93FF93AB
:10153000E0910001F09101010995FF91EF91BF91B8
:10154000AF919F918F917F916F915F914F913F915B
:101550002F910F900FBE0F901F9018951F920F9212
:101560000FB60F9211242F933F934F935F936F9376
:101570007F938F939F93AF93BF93EF93FF9380914C
:10158000250390912603A0912703B0912803892B6E
:101590008A2B8B2BD1F190912003E0912103F091C4
:1015A00022038081892780838091250390912603DF
:1015B000A0912703B0912803181619061A061B06D6
:1015C0009CF48091250390912603A0912703B0916C
:1015D00028030197A109B10980932503909326035D
:1015E000A0932703B0932803FF91EF91BF91AF9190
:1015F0009F918F917F916F915F914F913F912F912B
:101600000F900FBE0F901F901895809104010E94BB
:10161000C002EACF1F920F920FB60F9211242F93A0
:101620003F934F935F936F937F938F939F93AF936A
:10163000BF93EF93FF9381E393E00E94AA03FF918E
:10164000EF91BF91AF919F918F917F916F915F913A
:101650004F913F912F910F900FBE0F901F901895B3
:101660001F920F920FB60F9211242F938F939F9377
:10167000EF93FF93E0914103F09142038081E09169
:101680004703F091480382FD1BC0908180914A037B
:101690008F5F8F7320914B03821741F0E0914A03D3
:1016A000F0E0EF5CFC4F958F80934A03FF91EF9140
:1016B0009F918F912F910F900FBE0F901F901895B3
:1016C0008081F4CF1F920F920FB60F9211242F93A7
:1016D0003F934F935F936F937F938F939F93AF93BA
:1016E000BF93EF93FF938091B900887F803609F410
:1016F0004AC0F0F5883209F4A7C018F5803109F422
:101700009BC0B8F4882309F4F9C0883009F494C068
:10171000FF91EF91BF91AF919F918F917F916F91C9
:101720005F914F913F912F910F900FBE0F901F909F
:101730001895883109F488C0803251F78093D3021C
:1017400014C0803409F49DC040F48033B9F3883369
:10175000F9F68093D30285ECB0C0803509F485C0DA
:10176000883509F496C0883499F60E94DE09D0CFF6
:10177000883909F48CC038F5883729F050F4883658
:1017800011F0803729F683E08093D4021092D202C0
:1017900057C0883809F47BC0803919F0803809F0C7
:1017A000B7CF8091D202803208F071C0E091D202AE
:1017B00081E08E0F8093D2028091BB00F0E0EE5466
:1017C000FD4F80833DC0803B39F0E0F4803A09F45E
:1017D00079C0883A09F09CCF84E08093D4021092BB
:1017E000B1021092B002E0911803F091190309952B
:1017F0008091B00281110FC081E08093B0021092FD
:10180000900209C0803C09F4A6CF883C09F4A3CF1C
:10181000883B09F07DCFE091B10281E08E0F80938B
:10182000B102F0E0E057FD4F80818093BB009091C2
:10183000B1028091B00229C08091F9028093BB006F
:1018400085EC8093BC0064CF9091F8028091F70200
:10185000981758F5E091F80281E08E0F8093F80216
:10186000F0E0E952FD4F8081E9CFE091F80281E09C
:101870008E0F8093F8028091BB00F0E0E952FD4F9B
:1018800080839091F8028091F7029817C8F285E85A
:10189000D8CFE091F80281E08E0F8093F80280911A
:1018A000BB00F0E0E952FD4F80838091D6028111A8
:1018B0005CCF81E08093D50284EA8093BC001092D3
:1018C000D40226CF85EC8093BC001092D402809184
:1018D000D202803230F4E091D202F0E0EE54FD4FBB
:1018E00010826091D20270E0E0911A03F0911B0324
:1018F00082EB92E009951092D2020ACF1092D302A5
:1019000034CF1F920F920FB60F9211242F933F9353
:101910004F935F936F937F938F939F93AF93BF93F7
:10192000EF93FF931C9B0E940A09FF91EF91BF91D7
:10193000AF919F918F917F916F915F914F913F9167
:101940002F910F900FBE0F901F901895E1E3F3E0D9
:101950001382128288EE93E0A0E0B0E08483958346
:10196000A683B7832FE131E03183208325EC30E07B
:101970003587248724EC30E03787268720EC30E059
:10198000318B208B21EC30E0338B228B22EC30E04A
:10199000358B248B26EC30E0378B268B118E128E04
:1019A000138E148EEEECF3E01382128284839583FF
:1019B000A683B78381E391E091838083E4E0F4E040
:1019C0001382128283E491E09183808387E284838F
:1019D00080E1818782E0828713866FE671E08EEF77
:1019E00093E00E9481096FE671E088EF93E00E9426
:1019F00081096FE671E082EF93E00E9481096FE652
:101A000071E08CEE93E00E9481096FE671E086EE52
:101A100093E00E9481096FE671E080EE93E00E94FE
:101A200081096FE671E08AED93E00C948109CF9310
:101A3000DF93CDB7DEB7A4970FB6F894DEBF0FBE25
:101A4000CDBF789484B5826084BD84B5816084BD47
:101A500085B5826085BD85B5816085BD80916E004C
:101A6000816080936E00109281008091810082607D
:101A700080938100809181008160809381008091BA
:101A800080008160809380008091B10084608093A9
:101A9000B1008091B00081608093B00080917A00A5
:101AA000846080937A0080917A00826080937A00CB
:101AB00080917A00816080937A0080917A008068BA
:101AC00080937A001092C10010921F0310921E039F
:101AD00010921D0310921C030E9460048EE890E097
:101AE00090931903809318038FE890E090931B0361
:101AF00080931A038CE08093B8000E947C060E94B9
:101B00007C0688E080930F0460E084E094E00E940B
:101B1000250540E062E084E094E00E9428068BE323
:101B20009FE10197F1F780E00E943F0680E791E096
:101B30000E94FF0681E00E943F0681E891E00E943A
:101B4000FF0690E080E00E94A713811127C084EF78
:101B500091E00E94410168EC70E080E090E00E941A
:101B600080028BE00E94C00288EE93E00E94410157
:101B700068EC70E080E090E00E9480028BE00E94C0
:101B8000C00280E293E00E94410168EC70E080E0D6
:101B900090E00E9480028BE00E94C00268EE73E039
:101BA00080E090E00E9480020E947106E091410373
:101BB000F091420382E08083E0913D03F0913E0387
:101BC0001082E0913F03F091400380E18083109206
:101BD0004903E0914503F091460386E08083E0915C
:101BE0004303F0914403808180618083E09143034B
:101BF000F0914403808188608083E0914303F091F9
:101C00004403808180688083E0914303F091440322
:101C100080818F7D808340E060E784E094E00E94D3
:101C2000280603E111E09BE1E92E91E0F92EF8018D
:101C300061918F0184E094E00E94F906E016F106BC
:101C4000B1F761E08BE00E94100162E089E00E9440
:101C5000100162E084E00E94100162E083E00E94D3
:101C6000100162E082E00E941001809168008460AF
:101C70008093680080916D00806180936D002AE000
:101C800039E03093010120930001809169008C7F3D
:101C9000816080936900E89A3093030120930201E8
:101CA00080916900837F846080936900E99A0E9433
:101CB0000C0790E080E00E94A713811120C088E704
:101CC00095E00E94410166E970E080E090E00E94AA
:101CD00080028BE00E94C00268E270E080E090E049
:101CE0000E94800288E795E00E94410168E572E069
:101CF00080E090E00E9480028BE00E94C00280E0C1
:101D0000E82E80E0F82E80910E03882309F450C05D
:101D10000E94B20200910A0310910B0320910C0360
:101D200030910D03601B710B820B930B683873416C
:101D300081059105E8F180910903811139C00E9464
:101D400043070E94710681E00E943F0662E370E053
:101D500080E090E00E94800282E991E00E94FF060C
:101D600062E370E080E090E00E94800281E00E94E7
:101D70003F0683EA91E00E94FF0668EE73E080E090
:101D800090E00E9480020E940C070E94430710927C
:101D90000E036FE671E08EEF93E00E94B4086FE6E9
:101DA00071E088EF93E00E94B40881E0809309031A
:101DB0006FE671E0CE014F960E9481096FE671E0F7
:101DC000CE0149960E94810981E393E00E948A0333
:101DD000181619060CF0A6C180910E038111A2C13C
:101DE0000E94B20260930A0370930B0380930C036A
:101DF00090930D031092090381E080930E0364EB2E
:101E000071E0CE010D960E9481096DEB71E0CE016B
:101E100007960E948109BE01695F7F4FCE0101963E
:101E20000E940109BE01635F7F4FCE0101960E94AF
:101E300080080E942E07CE0101960E94120890E0B1
:101E400080E00E94A71381111AC084EF91E00E94E4
:101E5000410168EC70E080E090E00E9480028BE03D
:101E60000E94C00288EE93E00E94410168EC70E09D
:101E700080E090E00E9480028BE00E94C0020E94FD
:101E8000710681E00E943F0686EC91E00E94FF0609
:101E900082E00E943F068BED91E00E94FF0681E008
:101EA0008093FA0266E470E080E090E00E94800295
:101EB000CE0107960E941208CE010D960E941208CC
:101EC0006EEF73E082EF93E00E94EA0868EF73E040
:101ED0008CEE93E00E94EA08CE0149960E94120817
:101EE000CE014F960E9412080E94B2020091050393
:101EF0001091060320910703309108035B016C01E8
:101F0000A01AB10AC20AD30A96018501083E1340FD
:101F10002105310508F4FAC06093050370930603A8
:101F20008093070390930803809102049091030427
:101F3000419708F472C080E00E943F066EEF73E0A4
:101F4000CE0101960E940109CE0101960E946E0801
:101F5000BC01CE0149960E940109CE0101960E9462
:101F600012088D8D9E8D0091FC021091FD0298014A
:101F7000205F3F4F2817390708F018C3A801BE019A
:101F8000675E7F4FCE0101960E949209BE016F5F8E
:101F90007F4F84E094E00E94EC02CE0101960E9403
:101FA00012088091FC029091FD0201969093FD022F
:101FB0008093FC022D8D3E8D82179307A8F010921E
:101FC000FD021092FC0281E08093FB020E94B202AB
:101FD0006056704F8F4F9F4F6093FE027093FF02C9
:101FE00080930003909301038091FB02882389F082
:101FF0000E94B2020091FE021091FF0220910003A4
:1020000030910103601771078207930710F0109257
:10201000FB02CE0149960E9412088091FC03909128
:10202000FD03419708F472C081E00E943F0668EF0B
:1020300073E0CE0101960E940109CE0101960E9433
:102040006E08BC01CE0149960E940109CE0101969D
:102050000E9412088D8D9E8D009103031091040340
:102060009801205F3F4F2817390708F0DFC2A80109
:10207000BE01675E7F4FCE0101960E949209BE01AC
:102080006F5F7F4F84E094E00E94EC02CE010196E6
:102090000E9412088091030390910403019690938B
:1020A0000403809303032D8D3E8D82179307A8F0C0
:1020B000109204031092030381E0809302030E94B4
:1020C000B2026056704F8F4F9F4F6093FE02709325
:1020D000FF02809300039093010380910203882301
:1020E00089F00E94B2020091FE021091FF0220913D
:1020F000000330910103601771078207930710F006
:1021000010920203CE0149960E941208E114F104D4
:1021100009F4F9CD0E949603882309F4F4CD0E94B6
:102120000000F1CD81E393E00E948A03181619069E
:102130000CF0C6CE80910E03882309F4C1CE0E9414
:10214000B20260930A0370930B0380930C03909385
:102150000D03109209036FE671E0CE014F960E94C5
:10216000B40860EF71E080EE93E00E94B4086FE67F
:1021700071E0CE0101960E9481090E944A0397FDF9
:102180000CC08F83188641E050E0BE01695F7F4F2D
:10219000CE0101960E944208F0CFBE016F5F7F4FD3
:1021A000CE014F960E94C707CE0101960E941208E9
:1021B00061E070E080E090E00E94800265E072E003
:1021C000CE0101960E948109BE016F5F7F4FCE0153
:1021D0004F960E946A0710E0181619060CF040C0CE
:1021E00068E072E0CE0107960E948109BE01695F36
:1021F0007F4FCE014F960E946A0710E0181619060D
:102200005CF56BE072E0CE010D960E948109BE0183
:10221000635F7F4FCE014F960E946A0710E0181649
:102220001906B4F46EE072E0CE0143960E94810973
:10223000BE016D5E7F4FCE014F960E946A0711E08E
:10224000181619060CF010E0CE0143960E941208F1
:10225000CE010D960E941208CE0107960E94120828
:10226000CE0101960E941208112309F429CE809113
:10227000FA02882351F01092FA026FE671E0CE0163
:102280004F960E94B4080E94710665E072E0CE018C
:1022900007960E948109BE01695F7F4FCE014F966C
:1022A0000E946A079C0150E040E0BE01615E7F4FE2
:1022B000CE0101960E949209BE016F5F7F4F8EEFA3
:1022C00093E00E94C707CE0101960E941208CE013A
:1022D00007960E94120868E072E0CE0107960E94FD
:1022E0008109BE01695F7F4FCE014F960E946A0748
:1022F0008C0165E072E0CE010D960E948109BE015D
:10230000635F7F4FCE014F960E946A07AC014E5F1C
:102310005F4F9801BE01615E7F4FCE0101960E9422
:102320009209BE016F5F7F4F88EF93E00E94C7075D
:10233000CE0101960E941208CE010D960E9412084D
:10234000CE0107960E9412080BA11CA16EE072E05C
:10235000CE0107960E948109BE01695F7F4FCE01C1
:102360004F960E946A07AC014E5F5F4F9801BE0115
:10237000615E7F4FCE0101960E949209BE016F5FA0
:102380007F4FCE0149960E94C707CE0101960E9459
:102390001208CE0107960E9412086FE671E0CE0186
:1023A00049960E94850781114EC024E030E042E04A
:1023B00050E0BE01675E7F4FCE0101960E949209F8
:1023C00061E172E0CE0101960E948507182FCE01CF
:1023D00001960E9412081123B1F121E030E050E093
:1023E00040E0BE01675E7F4FCE0101960E949209D8
:1023F00062E172E0CE0101960E948507182FCE019E
:1024000001960E94120861E0111119C021E030E02C
:1024100050E040E0BE01675E7F4FCE0101960E9412
:10242000920964E172E0CE0101960E948507182F9F
:10243000CE0101960E941208112329F060E090E07D
:1024400080E00E94AF132091020430910304809138
:10245000F6039091F7032817390741F462EF73E010
:102460008EEF93E00E949A07892B51F11092FD02A2
:102470001092FC0280E00E943F0686E192E00E94FA
:10248000FF0680E00E943F068091020490910304C1
:10249000409708F459C020E130E050E040E06EEF92
:1024A00073E0CE0101960E949209BE016F5F7F4FDB
:1024B00084E094E00E94EC02CE0101960E94120892
:1024C0002091FC033091FD038091F0039091F10382
:1024D0002817390749F46CEE73E088EF93E00E9407
:1024E0009A0711E0892B09F010E067E272E088EFAB
:1024F00093E00E94850711112EC081112FC081E049
:102500000E943F0686E192E00E94FF0681E00E9461
:102510003F068091FC039091FD03409708F43FC073
:1025200020E130E050E040E068EF73E0CE0101963A
:102530000E949209BE016F5F7F4F84E094E00E9489
:10254000EC02CE010196BACC6EEF73E084E094E029
:102550000E94EC02B5CF882309F4B2CC0E94430755
:102560000E94710680E00E943F0662E370E080E016
:1025700090E00E94800289E392E00E94FF0662E3FD
:1025800070E080E090E00E94800281E00E943F06BF
:1025900082E991E00E94FF060E940C0791CC68EF4F
:1025A00073E084E094E00E94EC028ACC9801281B3E
:1025B000390B205F3F4F50E040E06EEF73E0CE01FB
:1025C0000D960E9492092D8D3E8DA801BE01675E79
:1025D0007F4FCE0101960E949209BE016F5F7F4F2F
:1025E000CE0107960E940109BE01635F7F4FCE01B5
:1025F00007960E948008BC01CE0143960E94010903
:10260000CE0107960E941208CE0101960E94120880
:10261000CE010D960E941208BE016D5E7F4F84E0D0
:1026200094E00E94EC02CE014396B9CC9801281B9D
:10263000390B205F3F4F50E040E068EF73E0CE0180
:102640000D960E9492092D8D3E8DA801BE01675EF8
:102650007F4FCE0101960E949209BE016F5F7F4FAE
:10266000CE0107960E940109BE01635F7F4FCE0134
:1026700007960E948008BC01CE0143960E94010982
:10268000CE0107960E941208CE0101960E94120800
:10269000CE010D960E941208BE016D5E7F4F84E050
:1026A00094E00E94EC02CE014396F2CC8AED93E0D6
:1026B0000E94120880EE93E00E94120886EE93E0DA
:1026C0000E9412088CEE93E00E94120882EF93E0C1
:1026D0000E94120888EF93E00E9412088EEF93E0A8
:1026E0000C941208BB274A3031F4992322F4BDE23E
:1026F000909581959F4F0C947E13BB27FB01552726
:10270000AA27880F991FAA1FA41710F0A41B83954E
:102710005051B9F7A05DAA3308F0A95DA1930097C5
:1027200079F7B111B1931192CB010C949713DC019D
:10273000FC01672F71917723E1F7329704C07C91F8
:102740006D9370836291AE17BF07C8F30895F9992E
:10275000FECF92BD81BDF89A992780B50895262FA6
:10276000F999FECF1FBA92BD81BD20BD0FB6F89476
:10277000FA9AF99A0FBE019608952F923F924F92BE
:102780005F926F927F928F929F92AF92BF92CF9201
:10279000DF92EF92FF920F931F93CF93DF93CDB70A
:1027A000DEB7CA1BDB0B0FB6F894DEBF0FBECDBF82
:1027B00009942A88398848885F846E847D848C8453
:1027C0009B84AA84B984C884DF80EE80FD800C815C
:1027D0001B81AA81B981CE0FD11D0FB6F894DEBF3F
:1027E0000FBECDBFED010895052E97FB1EF400949A
:1027F0000E940B1457FD07D00E94131407FC03D04E
:102800004EF40C940B1450954095309521953F4F04
:102810004F4F5F4F089590958095709561957F4FCC
:102820008F4F9F4F0895A1E21A2EAA1BBB1BFD01DB
:102830000DC0AA1FBB1FEE1FFF1FA217B307E4079F
:10284000F50720F0A21BB30BE40BF50B661F771FF7
:10285000881F991F1A9469F76095709580959095D7
:102860009B01AC01BD01CF010895EE0FFF1F059044
:10287000F491E02D09940F931F93CF93DF9382304F
:10288000910510F482E090E0E0911204F0911304BD
:1028900030E020E0B0E0A0E0309799F42115310558
:1028A00009F44AC0281B390B24303105D8F58A8138
:1028B0009B816115710589F1FB0193838283FE0180
:1028C00011C0408151810281138148175907E0F0FE
:1028D0004817590799F4109761F012960C931297C4
:1028E00013961C933296CF01DF91CF911F910F91D8
:1028F00008950093120410931304F4CF21153105A9
:1029000051F04217530738F0A901DB019A01BD01CC
:10291000DF01F801C1CFEF01F9CF90931304809349
:102920001204CDCFFE01E20FF31F81939193225049
:10293000310939832883D7CF2091100430911104B5
:10294000232B41F4209107013091080130931104A9
:1029500020931004209105013091060121153105C5
:1029600041F42DB73EB74091090150910A01241B53
:10297000350BE0911004F0911104E217F307A0F475
:102980002E1B3F0B2817390778F0AC014E5F5F4FC5
:102990002417350748F04E0F5F1F509311044093E2
:1029A0001004819391939FCFF0E0E0E09CCFCF9310
:1029B000DF930097E9F0FC01329713821282A09115
:1029C0001204B0911304ED0130E020E01097A1F45F
:1029D00020813181820F931F2091100430911104C6
:1029E0002817390709F061C0F0931104E09310042F
:1029F000DF91CF910895EA01CE17DF07E8F54A810C
:102A00005B819E0141155105B1F7E901FB83EA8322
:102A100049915991C40FD51FEC17FD0761F48081CE
:102A200091810296840F951FE901998388838281A1
:102A300093819B838A83F0E0E0E012968D919C91D4
:102A400013970097B9F52D913C911197CD010296FE
:102A5000820F931F20911004309111042817390719
:102A600039F6309751F51092130410921204B09376
:102A70001104A0931004BCCFD383C2834081518141
:102A8000840F951FC817D90761F44E5F5F4F888187
:102A90009981480F591F518340838A819B81938379
:102AA00082832115310509F0B0CFF0931304E09330
:102AB00012049ECFFD01DC01C0CF13821282D7CF5A
:102AC000B0E0A0E0E6E6F5E10C94BF138C010097BE
:102AD00051F4CB010E943B148C01C801CDB7DEB785
:102AE000E0E10C94DB13FC01E60FF71F9C01225080
:102AF0003109E217F30708F49DC0D901CD91DC91AB
:102B00001197C617D70798F0C530D10530F3CE011D
:102B100004978617970708F3C61BD70B2297C19314
:102B2000D1936D937C93CF010E94D714D6CF5B01D4
:102B3000AC1ABD0A4C018C0E9D1EA0911204B091DE
:102B40001304512C412CF12CE12C109731F580917C
:102B50001004909111048815990509F05CC046167F
:102B6000570608F058C08091050190910601009722
:102B700041F48DB79EB74091090150910A01841B21
:102B8000950BE817F90708F055C0F0931104E0938E
:102B90001004F90171836083A0CF8D919C911197EE
:102BA00012966C90129713967C901397A815B905FE
:102BB00059F56C0142E0C40ED11CCA14DB0420F1AB
:102BC000AC014A195B09DA011296159780F062820E
:102BD000738251834083D9016D937C93E114F10496
:102BE00071F0D7011396FC93EE93129776CF22964D
:102BF0008C0F9D1FF90191838083F301EFCFF09338
:102C00001304E093120469CF4816590608F42C0106
:102C10007D01D3019ACFCB010E943B147C01009728
:102C200049F0AE01B8010E941D16C8010E94D714D8
:102C3000870153CF10E000E050CFFB01DC0102C060
:102C400001900D9241505040D8F70895FB01DC01EE
:102C50008D91019080190110D9F3990B0895FB0112
:102C6000DC0101900D920020E1F70895FB015191E4
:102C70005523A9F0BF01DC014D9145174111E1F742
:102C800059F4CD010190002049F04D9140154111BA
:102C9000C9F3FB014111EFCF81E090E00197089566
:102CA00010E0C3E6D0E004C0FE010E943514219676
:0A2CB000C436D107C9F7F894FFCF2E
:102CBA00BF02BF02FF00001404800000004000149D
:102CCA000054000E1115111515110E00000000CC4C
:102CDA0003FA02270319048A0336037C030000005F
:102CEA0000F604C9040C069F04C204AF04A0040041
:102CFA00000000F906FA020C06BE0220436F6E6E4F
:102D0A006563742057697A617264200020205461D7
:102D1A007020636F6E6E656374202020000D0A00B8
:102D2A00202046696B7553797374656D7320202072
:102D3A00002020204D757369634C434420202020D5
:102D4A0020002020446973636F6E6E656374656446
:102D5A00202000202020457863657074696F6E20FA
:102D6A002020200020302E302E302E3400493243CD
:102D7A0020313678340020436F6E6E656374696F54
:102D8A006E20666F756E6421202000202020506C12
:102D9A006561736520776169742E2E2E20202000CC
:102DAA002E2E2E2E2E2E2E2E2E2E2E2E2E2E2E2E39
:102DBA002E2E2E2E003E31003E32003E33003E348F
:102DCA000031310030002020202020202020202027
:102DDA0020202020202000442A495E532443294FE2
:102DEA00254E23452543265400202020202020203C
:082DFA00446973706C617900FB
:00000001FF
